:020000040800F2
:1000000000000220056601089DE40008A1E4000844
:10001000A5E40008A9E40008ADE400080000000021
:10002000000000000000000000000000B1E4000833
:10003000B5E4000800000000B9E40008BDE40008D1
:100040004D6601084D6601084D6601084D660108C0
:100050004D6601084D660108C9E40008C1E40008C6
:100060004D6601084D6601084D6601084D660108A0
:100070004D6601084D6601084D6601084D66010890
:100080004D6601084D6601084D6601084D66010880
:100090004D6601084D6601084D6601084D66010870
:1000A0004D6601084D6601084D6601084D66010860
:1000B000D1E400084D6601084D6601084D6601084F
:1000C0004D6601084D6601084D6601084D66010840
:1000D0004D6601084D6601084D6601084D66010830
:1000E0004D6601084D6601084D6601084D66010820
:1000F0004D6601084D6601084D6601084929000852
:100100004D6601084D6601084D6601084D660108FF
:100110004D6601084D6601084D6601084D660108EF
:100120004D6601084D6601084D6601084D660108DF
:100130004D6601084D6601084D6601084D660108CF
:100140004D6601084D6601084D660108D5E40008BA
:100150004D6601084D6601084D6601084D660108AF
:100160004D6601084D6601084D6601084D6601089F
:100170004D6601084D6601084D6601084D6601088F
:080180004D6601084D660108FF
:1001C0002DE9F04FDFF8B4814FEAA30C03F00304EC
:1001D00008EB8403BCF11F0F89B008EB841BA8BF98
:1001E0004FF01F0CBCF11B0FD3F80031DBF80440BB
:1001F0000193D8BF0CF10305DBF80C30CDF808B043
:100200000646DBF80800D4BF25EAE5751F2540FA4D
:1002100005F72C412B4100200439059406970793DC
:100220000490E3460EE008AC04EB850555F8104C4D
:10023000002B40EA0400B8BF6442013A41F8044F81
:1002400000F0828056F8043B23F00045032DEADDE0
:100250000F2D0BDC029CBBF1000F54F82540BABFF8
:10026000CBF10005AC4044FA0BF4E1E73F2D0CDC88
:1002700008EB8505019CD5F8D05085FB0474ABF1E3
:100280000305002D57DB2C41D2E76C04B4F1006F5D
:100290005DDA04276C0500970625B4F1005FBCBF4A
:1002A000A4000095B4F1804F03DA009D013564008D
:1002B00000952A4F2A4DDFF8C8C0DFF8C890BC422D
:1002C000284FD8BF3D46284F0395D8BFBA46274D83
:1002D000274FCCBFAA46BE4605F1F955254F05F577
:1002E000CE2505F29B15D8BF3D46234FCABFAE466B
:1002F000B9466546A44689FB0C7C6544A14685FB4E
:1003000009C9CE4425468EFB05C5AA448AFB045480
:10031000009D08EB8507039D2C44D7F8D05184FB42
:1003200005E5ED00019C85FB04E4D7F8F051C5EB31
:100330000B05002DA7DA6D426FF0004747FA05FE66
:10034000744508DD3C4673E709B0BDE8F08F00272F
:1003500002250097A1E7AC406AE700BF9979825A6D
:10036000B477F5FE591858FF8D496C23F0CEC2279B
:100370001BAA575928482EB0A9BDA029DCC60108E0
:10038000A4F633D3632185102DE9F04F91B01A9C68
:10039000069064690791022C05920A9300F0FB8095
:1003A0000D2303934FF016091A9B0A9A1B6C116ACE
:1003B0001A9A01335B00002001934B0892680D905C
:1003C00000D10232C2F1D20300931B9BCDF81090F2
:1003D0004FF0000A5F1EDFF82C8202975546D34685
:1003E000DDF8289002E0049B9E422EDAD9F83420F2
:1003F00002991A9B32F91540D3F83CE011F8013FFD
:10040000029102EB45020699B2F9022001EB8B0141
:10041000141B6E1C0846224608EB060CBEF1000FAA
:1004200001D01CF801EC019F7344BE46009F0EFBF7
:100430000373FFF7C5FEA3444AEA000A00B10D9515
:10044000059B1B689B453546CDDB1C9A0D9B536174
:1004500000231360D360936053601361039B0B2BE5
:100460006FDC03990D914B005A180E910F911B9957
:10047000CDF808B017328A1804921A9A50462432DE
:10048000DDF810A00B9259460A9ADDF82CB0526B99
:10049000DDF81C801344069AB3F93060B3F92E30AE
:1004A000F61A039B02EB81040133A1460894B500C0
:1004B00009930027044600995BF8043F1AF8012BC2
:1004C00001EBC3030199484601FB02334146324622
:1004D000FFF776FEA9440443A84418B10DAA039B74
:1004E00042F827300137032FE5D1029A06EB460385
:1004F0001A44002E20460292089C12DD079A02EB55
:10050000C60615443146131F53F8042F226055F8D0
:10051000042B626056F8042BA260A94204F10C047B
:10052000F2D1059B029A1B689A4231DA099B049A20
:10053000039303320D2B049209D05B00029992467B
:10054000A2E7BAFA8AF0013811B0BDE8F08FDDF801
:1005500008B08246059B0E99C3F800B01A9B1C9CFC
:1005600098690D9B0F9A636000280CBF0120022040
:100570008B42B8BF0B469342B8BF13462060BAFA0D
:100580008AF00138A1602361E26011B0BDE8F08F0C
:1005900093468246DEE71A9B9B69C3B91A9A106C90
:1005A0000A9A116A1A9A0130400049109268019023
:1005B00019D01C9903939B460B604B61CB608B60F9
:1005C0004B600B61C2F1D2030093DA4649E70A9B04
:1005D0001B78002B4FF0030314BF4FF006094FF0B8
:1005E00008090393E0E61C9B039119605961D960E7
:1005F000996059601961C2F1D0038B4600938A4615
:100600002FE700BFECC8010830B4C4786CB900EB28
:10061000820003339B10D0F8D05006D0224601321E
:1006200051F8040B28609342F9D1002030BC704788
:100630000332921030B4D0F8D05009D008460023CD
:1006400001332C6840F8044B9A42F9D101EB820146
:10065000084630BC704700BFF0B50124402200239B
:10066000A14284708280C37000F06681002900F08E
:1006700050814278C3604FF4006101610678002A1E
:1006800000F06D814FF460674FF488644FF480612F
:1006900003F5106E03F53065012AC0F818E04565D2
:1006A0007ED003F5126E03F53265022AC0F81CE015
:1006B000856575D003F5146E03F53465032AC0F81B
:1006C00020E0C5656CD003F5166E03F53665042A87
:1006D000C0F824E0056663D003F5186E03F53865AD
:1006E000052AC0F828E045665AD003F51A6E03F5CE
:1006F0003A65062AC0F82CE0856651D003F51C6ED9
:1007000003F53C65072AC0F830E0C56648D003F51C
:100710001E6E03F53E65082AC0F834E005673FD039
:1007200003F5206E03F54065092AC0F838E04567F7
:1007300036D003F5226E03F542650A2AC0F83CE084
:1007400085672DD003F5246E03F544650B2AC0F8A8
:1007500040E0C56724D003F5266E03F546650C2AF4
:10076000C0F844E0C0F880501AD003F5286E03F5B5
:1007700048650D2AC0F848E0C0F8845010D003F551
:100780002A6E03F54A650E2AC0F84CE0C0F888507E
:1007900006D003F52C6503F54C620565C0F88C2086
:1007A0004161C0F8CC40002E00F0AF8003F5A0629C
:1007B000012EC0F8902000F0DA8003F5A462022E2A
:1007C000C0F894204BD003F5A862032EC0F89820FF
:1007D00045D003F5AC62042EC0F89C203FD003F551
:1007E000B062052EC0F8A02039D003F5B462062E01
:1007F000C0F8A42033D003F5B862072EC0F8A820B3
:100800002DD003F5BC62082EC0F8AC2027D003F52C
:10081000C062092EC0F8B02021D003F5C4620A2EB0
:10082000C0F8B4201BD003F5C8620B2EC0F8B82066
:1008300015D003F5CC620C2EC0F8BC200FD003F508
:10084000D0620D2EC0F8C02009D003F5D4620E2E60
:10085000C0F8C42003D003F5D862C0F8C82003F55F
:10086000805103F50052022EC0F8D010C0F8D420F9
:100870004BD003F54052032EC0F8D82045D003F5E5
:100880008042042EC0F8DC203FD003F5A042052EA4
:10089000C0F8E02039D003F5C042062EC0F8E420AD
:1008A00033D003F5E042072EC0F8E8202DD003F541
:1008B0000042082EC0F8EC2027D003F51042092E84
:1008C000C0F8F02021D003F520420A2EC0F8F42011
:1008D0001BD003F530420B2EC0F8F82015D003F5DD
:1008E00040420C2EC0F8FC200FD003F550420D2ED4
:1008F000C0F8002109D003F560420E2EC0F8042193
:1009000003D003F57043C0F80831C0F80C71002023
:10091000F0BD194DC1724FF4A0610C260622C180B2
:10092000164F174C1749DFF86CE006702B464270E3
:10093000C560C0F810E0ABE64FF4A07402230826AF
:1009400004224FF0A045C172C48003720670427049
:100950002B460D4F0D4C0E49DFF83CE0E8E71346FF
:100960004FF460674FF488644FF4806118E703F533
:100970008053C0F8D030C8E700000440000E0440A7
:100980004004044000040440000E005040040050A5
:1009900000040050000804400008005070B5037ABD
:1009A000012B82B005464FF0000256D0C1685F4C63
:1009B000CB6843F04003CB60032001920CF048FE6B
:1009C000EB681A69019206E00CF042FEEB68013C0C
:1009D0001A69019219D0019A002A4FF00300F3DA44
:1009E0000199524A41F00101019101991961196976
:1009F000019103E019690191013A02D00199C907F7
:100A0000F8D403200CF024FEEB682A7A697A032AD2
:100A100014BF4FF434124FF43C1209B142F4801267
:100A20009A6314200CF054FEEB68297ADA680329E3
:100A300008BF42F48032DA602A7A032A5FD0EB786A
:100A4000012B07D1EB689E68052262F3440646F04D
:100A500020069E60002002B070BDC168437A164631
:100A60008A6B66F310420BB142F480128A63CB6842
:100A70002E4C23F4800323F0500343F010036FF354
:100A8000C3036FF3C7136FF351436FF3D343CB60CB
:100A90000320002300930CF0DBFDEB681A69009241
:100AA00006E00CF0D5FDEB68013C1A69009218D005
:100AB000009A002A4FF00300F3DA00991B4A41F034
:100AC00001010091009919611969009103E0196908
:100AD0000091013A02D00099C807F8D403200CF025
:100AE000B7FDEB78012BB5D1052363F34406EB6822
:100AF00046F020069E60EB78012BA3D0AAE71C6B82
:100B0000012262F39B646FF3D7542D2244F080548A
:100B100062F316441C63C8200CF0DAFDEB6844F461
:100B200000041C63C8200CF0D3FD88E7400D0300CF
:100B3000C268936843F0010393600020704700BFD0
:100B4000C268936823F0010393600020704700BFE0
:100B500000B583B000230193019A0E4B42F02002AE
:100B60000192019A61F38A120192C168019A0A61A5
:100B70000A69019203E00A690192013B02D0019ADD
:100B80009206F8D403200CF063FD002003B05DF85A
:100B900004FB00BF400D030000B583B000230193A8
:100BA000019A0C4B42F010020192C168019A0A614D
:100BB0000A69019203E00A690192013B02D0019A9D
:100BC000D206F8D403200CF043FD002003B05DF8FA
:100BD00004FB00BF400D0300C26808B5D3680129BB
:100BE0006FF35D736FF39E7308D009B943F08043D0
:100BF000D36032200CF06CFD002008BD43F00053A0
:100C0000F6E700BFC368586900F00100704700BFF5
:100C1000C368586900F0010080F00100704700BF10
:100C2000C368586900F00100704700BFC368586985
:100C30009B691840704700BFC3685868704700BF81
:100C400030B5044683B00CF0A9FCD4F80C216369DC
:100C5000002010601A68012161F301021A601A680D
:100C600060F382021A60E37A8B4200F0D280E1687E
:100C700000230193019A6F4B42F020020192019AE6
:100C8000102060F38A120192019A0A610A690192A6
:100C900003E00A690192013B02D0019A9506F8D45B
:100CA00003200CF0D5FC00230093009AE168614B0F
:100CB00042F010020092009A0A610A69009203E071
:100CC0000A690092013B02D0009AD006F8D40320B2
:100CD0000CF0BEFC2378002B69D0D4F890104FF0B4
:100CE000FF3200238A60CB60217801295FD9D4F8D4
:100CF00094108A60CB602178022958D9D4F89810D2
:100D00008A60CB602178032951D9D4F89C108A607D
:100D1000CB60217804294AD9D4F8A0108A60CB602E
:100D20002178052943D9D4F8A4108A60CB602178B2
:100D300006293CD9D4F8A8108A60CB60217807290D
:100D400035D9D4F8AC108A60CB60217808292ED927
:100D5000D4F8B0108A60CB602378092B27D9D4F857
:100D6000B41000238A60CB6021780A291FD9D4F8F7
:100D7000B8108A60CB6021780B2918D9D4F8BC1040
:100D80008A60CB6021780C2911D9D4F8C0108A6010
:100D9000CB6021780D290AD9D4F8C4108A60CB60C1
:100DA00021780E2903D9D4F8C8108A60CB600121BC
:100DB00020460CF0E7FBD4F8CC2013686FF38203D5
:100DC0006FF341036FF3C3036FF34513D90402D4E8
:100DD00043F480531360C8200CF07AFCE268164894
:100DE0004FF0FF3100239361516151605161906177
:100DF000E3789169002B14BF0023102343F00C53B8
:100E000043F4001343F008030B430020936103B045
:100E100030BD02468023E025E16863F30F0065F3EF
:100E20000F02C0F26000C0F260024B628862C1F83B
:100E300000211DE7400D0300000800804369986809
:100E400000F0010080F00100704700BF38B5054692
:100E50000C460CF097FBD5F8CC2013686FF3820397
:100E60006FF341036FF3C3036FF34513D90406D443
:100E7000012C0FD0C820BDE838400CF029BC002C54
:100E8000F8D1194664F30C311160C820BDE8384030
:100E90000CF01EBC43F480511160C820BDE83840FE
:100EA0000CF016BC10B4C2680C4C00234FF0FF319C
:100EB00093615161516051619461C07891695DF8AD
:100EC000044B984208BF102343F00C5343F4001323
:100ED00043F008030B430020936170470008008033
:100EE0004269136861F3010313607047D0F8CC3096
:100EF000186820F02E00704743695869704700BF9A
:100F000038B505460A20D5F8CC2013686FF3820364
:100F10006FF341036FF3C3036FF3451343F480741E
:100F200014600CF0D5FBD5F8CC306FF308241C60AE
:100F300014200CF0CDFB012038BD00BFF0B500EB54
:100F400081034FF0FF32D3F890504B01C418AA60D0
:100F5000C27894F89167012A14BF00240424002267
:100F6000032E13D8DFE806F002530247C61844F4F4
:100F7000936496F88E7744F00104002F44D196F8DC
:100F8000906744F040040EB144F02004D0F814E01F
:100F9000EC60DEF81840C768012606FA01F121432B
:100FA000CEF81810B969184441F00073BB6190F88D
:100FB0008C7790F88F3790F88D6790F88E4790F87F
:100FC0009117B0F8920767F39C52A3F1020366F3FE
:100FD000CE22B3FA83F364F3CF325B0963F3514259
:100FE00061F3934260F30A02032908BF42F0005202
:100FF0002A600020F0BDC61844F4D36496F88E67CA
:1010000044F00104002EC1D044F48074BEE7C61839
:1010100044F4087496F88E6744F00104002EB5D0AD
:1010200044F4C074B2E700BFF0B54D014619002486
:10103000D6F89C3783B1B6F892775A1E3A44B2FB81
:10104000F7F292B2B2F5807F5AD93B024FF4807E1C
:10105000C6F89C37724602E04FF0010E7246461900
:1010600096F88E772FB1B6F8923702FB03F3C6F8E5
:101070009C3701F10D0700EB471200EB810192F85C
:10108000F4C5D1F8906063F312046EF3DC446CF3A2
:101090005E743461C478D0F814E0012C04BFD2F837
:1010A000F82572613268DEF8084004F0010484F02B
:1010B000010464F35D7242F000426FF39E7232608D
:1010C000C278DAB9054495F88E27BAB9B3B195F864
:1010D0009127032A1FD8DFE802F016021602DEF875
:1010E0001040DA1CA4B2C2F38F02A24213D9C46822
:1010F000A26942F08062A261C27862B10020F0BDB4
:10110000C2F3090EABE7C568EC6ADA1CA4B2C2F3FD
:101110008F02A24211D89BB200EB471003339B1001
:10112000D0F8F805D1F8D040E8D00022013250F8CC
:10113000041B21609342F9D1E0E7AA6942F0200242
:10114000AA61C278002AD9D1E5E700BF00EB81018E
:10115000D1F89020136843F04043590309D5416901
:101160000969C1F3074109B96FF3DF731360002008
:101170007047C168C96AC1F307410029F4D0136000
:101180000020704700EB81014FF00043D1F8902020
:10119000012161F3DC4313611368002043F0004335
:1011A00060F39E731360704710B5436900224FF0DF
:1011B000FF319A615961037882B00446002B00F038
:1011C000C480D0F890100B6862F3DF7343F0804363
:1011D00062F3CF330B600378012B40F2B680D0F876
:1011E00094100B6862F3DF7343F0804362F3CF33F4
:1011F0000B600378022B40F2A880D0F898100B689F
:1012000062F3DF7343F0804362F3CF330B60037804
:10121000032B40F29A80D0F89C100B6862F3DF73C6
:1012200043F0804362F3CF330B600378042B40F22A
:101230008C80D0F8A0100B6862F3DF7343F080431A
:1012400062F3CF330B600378052B7ED9D0F8A4105E
:101250000B6862F3DF7343F0804362F3CF330B60BC
:101260000378062B71D9D0F8A8100B6862F3DF73EE
:1012700043F0804362F3CF330B600378072B64D9CC
:10128000D0F8AC100B6862F3DF7343F0804362F375
:10129000CF330B600378082B57D9D0F8B0100B6808
:1012A00062F3DF7343F0804362F3CF330B60037864
:1012B000092B4AD9D0F8B42013686FF3DF7343F0D9
:1012C00080436FF3CF33136003780A2B3DD9D0F8F6
:1012D000B82013686FF3DF7343F080436FF3CF33AD
:1012E000136003780B2B30D9D0F8BC2013686FF350
:1012F000DF7343F080436FF3CF33136003780C2B1D
:1013000023D9D0F8C02013686FF3DF7343F0804314
:101310006FF3CF33136003780D2B16D9D0F8C420A8
:1013200013686FF3DF7343F080436FF3CF331360C1
:1013300003780E2B09D9D0F8C82013686FF3DF7338
:1013400043F080436FF3CF33136000230193019A7E
:10135000E168184B42F010020192019A0A610A6991
:10136000019203E00A690192013B02D0019AD00682
:10137000F8D403200CF06CF900230093009AE16884
:101380000C4B42F020020092009A102060F38A1267
:101390000092009A0A610A69009203E00A690092C9
:1013A000013B02D0009A9206F8D403200CF050F9C9
:1013B00002B010BD400D03000269136861F3010320
:1013C00013607047D0F80C31F0B500220446006974
:1013D0001A60036862F3CC230360E17A012983B0C9
:1013E00000F00382E16800230193019A124B42F05E
:1013F00020020192019A102060F38A120192019A50
:101400000A610A69019203E00A690192013B02D074
:10141000019A9006F8D403200CF01AF900230093E7
:10142000009AE168044B42F010020092009A0A61AF
:101430000A69009206E000BF400D03000A690092AD
:10144000013B02D0009AD206F8D403200CF000F938
:10145000206900224FF0FF33026142618361C26163
:101460006378002B00F09881A36919680029ACBF4C
:1014700000254FF09045FF211D601A619960637847
:10148000012B40F2BA80E3691D68002DACBF002536
:101490004FF090451D601A6199606378022B40F20D
:1014A000AC80236A1D68002DACBF00254FF090452D
:1014B0001D601A6199606378032B40F29E80636A15
:1014C0001D68002DACBF00254FF090451D601A61CE
:1014D00099606378042B40F29080A36A1D68002D08
:1014E000ACBF00254FF090451D601A61996063788C
:1014F000052B40F28280E36A1D68002DACBF0025F9
:101500004FF090451D601A6199606378062B74D97D
:10151000236B1D68002DACBF00254FF090451D606A
:101520001A6199606378072B67D9636B1D68002D7A
:10153000ACBF00254FF090451D601A61996063783B
:10154000082B5AD9A36B1D68002DACBF00254FF0A6
:1015500090451D601A6199606378092B4DD9E36B42
:101560001A68002AACBF00254FF090450021FF22E9
:101570001D6019619A6063780A2B3ED9236C1D683F
:101580008D42ACBF0D464FF090451D6019619A60C9
:1015900063780B2B31D9636C1D688D42ACBF0D464F
:1015A0004FF090451D6019619A6063780C2B24D927
:1015B000A36C1D688D42ACBF0D464FF090451D6079
:1015C00019619A6063780D2B17D9E36C1D688D4201
:1015D000ACBF0D464FF090451D6019619A6063786D
:1015E0000E2B0AD9236D1D688D42ACBF0D464FF0FE
:1015F00090451D6019619A606378002B00F0CC80E3
:10160000616D0B68002BACBF00254FF090450022A8
:10161000FF230D600A618B606178012940F2BC8074
:10162000A16D0D689542ACBF15464FF090450D6019
:101630000A618B606178022940F2AE80E16D0D682D
:101640009542ACBF15464FF090450D600A618B6026
:101650006178032940F2A080216E0D689542ACBFED
:1016600015464FF090450D600A618B606178042942
:1016700040F29280616E0D689542ACBF15464FF006
:1016800090450D600A618B606178052940F2848085
:10169000A16E0D689542ACBF15464FF090450D60A8
:1016A0000A618B606178062976D9E16E0D689542F2
:1016B000ACBF15464FF090450D600A618B606178B4
:1016C000072969D9216F0D689542ACBF15464FF0C7
:1016D00090450D600A618B60617808295CD9616F63
:1016E0000D689542ACBF15464FF090450D600A61FC
:1016F0008B606378092B4FD9A16F0B689342ACBF05
:1017000015464FF09045FF230D600A618B606178AC
:101710000A2941D9E16F0D689542ACBF15464FF0DB
:1017200090450D600A618B6061780B2934D9D4F83B
:1017300080100D689542ACBF15464FF090450D6086
:101740000A618B6061780C2926D9D4F884100D6861
:101750009542ACBF15464FF090450D600A618B6015
:1017600061780D2918D9D4F888100D689542ACBF5E
:1017700015464FF090450D600A618B6061780E2927
:101780000AD9D4F88C100D689542ACBF15464FF0BD
:1017900090450D600A618B60036943F480730361B7
:1017A000E378012B04D1204B402262F359430363B9
:1017B000E2681E484FF0FF31002393615161516090
:1017C00051619061E3789169002B14BF4FF400637D
:1017D0004FF4016343F4701343F4405343F00803A0
:1017E0000B430020936103B0F0BD0668E168134627
:1017F000C022802562F30F034FF4800265F31F437C
:1018000046F0030665F30F024FF4A07706604D62C1
:101810008A62C1F8043167F30F036FF31F43C1F805
:101820000831C1F80C31DEE5030101000008008039
:1018300010B4C2680C4C00234FF0FF31936151612A
:10184000516051619461C07891695DF8044B984290
:1018500008BF102343F4701343F4605343F00803AC
:101860000B430020936170470008008003699B6868
:10187000C3F34103022B06D003D8012B01D0032070
:101880007047022070470120704700BF03698169DB
:101890009A680868C2F34102022A06BF032262F373
:1018A0000A006FF30A0008605A6842F480725A60B6
:1018B0000020704770B44B78012B4FF000041FD00C
:1018C0000D7800EB85020123AB40526D63F31F449A
:1018D00013681D040DD48E68CD78C98866F30A0399
:1018E00065F3934361F3995343F0805343F400430A
:1018F00013600269D36923430020D36170BC704731
:101900000A7800EB8205934063F30F04AA69DFE7CE
:1019100030B44B780022012B144612D00B7800EB28
:101920008305012199406D6D61F31F4401696FF3D7
:10193000CF322A60CB6923EA04030020CB6130BC9C
:101940007047097800EB81058B4063F30F04AD69A4
:10195000ECE700BFF0B54B780A78012B2AD000EBFA
:1019600082024B69566D8C6832683569F3B1234445
:10197000013BB3FBF4F3C3F3090304FB03F4C4F327
:1019800012049BB263F3DC4564F312053561C3783E
:10199000012B5CD0CB78012B54D00B7800EB83006B
:1019A00042F00442436D1A600020F0BD0123C4F3ED
:1019B0001204E7E700EB82024C69966932683569E8
:1019C000002C4BD08F6891F803E064F31205E31903
:1019D000013BBEF1010FB3FBF7F363F3DC4508BF36
:1019E0006EF35E753561C378012B46D0CB78012B41
:1019F0003CD04CB106690F78756B0123BB402B437B
:101A00007363CB78012B31D00B7800EB830342F06A
:101A100004429B691A60CB78012BC5D1C278002A99
:101A2000C2D10D78A3B200EB850003339B10D0F830
:101A3000D040B9D0C96851F8040B206001329342FC
:101A4000F9D1B1E74B7973B142F00052A5E70B78B9
:101A50000C6900EB83035B6D5C619BE764F312052B
:101A600063F3DC45BEE742F0805296E703699B686A
:101A7000DB0509D442F00052C6E70B780D6900EB94
:101A800083039B695D61BCE742F08052BCE700BF05
:101A9000F0B44A78012A82B02DD00B784A6900EB65
:101AA00083035C6D23682569009502B38A684A61E7
:101AB00002F07F029DF802609DF80050012762F35A
:101AC000060567F3C4068DF802608DF80050009A91
:101AD0002261C278BA4241D00A7800EB820043F01A
:101AE0000443426D1360002002B0F0BC70478A6866
:101AF00002F07F02DEE784694D692368266900965B
:101B0000002D32D08A689DF80060954284BF02F0B3
:101B10007F054A619DF8022098BF05F07F050127E7
:101B200065F3060667F3C4028DF800608DF80220A5
:101B3000009A2261C278012A24D043F00443236032
:101B4000C378002BCFD14B69002BCCD0006909782A
:101B5000426B01238B4013434363C4E70A780C694B
:101B600000EB8202526D5461B6E79DF800709DF85B
:101B7000026065F3060762F3C4068DF800708DF805
:101B80000260D5E70A780D6900EB8202926955611F
:101B9000D3E700BF4B78012B0B7800EB830006D016
:101BA000426D136843F4001313600020704782698C
:101BB0001368002BF6DA43F0804343F400131360FC
:101BC000002070474B78CA78012B0B7800EB83001C
:101BD000A2F102020CBF8069406D0368012A6FF315
:101BE000555398BF43F0805303600020704700BFF7
:101BF00003699869DB691840000C704700EB8101AC
:101C000003694A6D90685B69184070470369986979
:101C1000DB69184080B2704710B4012383B04FF0E5
:101C2000000263F3C402C024002318210093436D13
:101C30008DF802208DF803408DF80010009A1A618B
:101C4000C278012A06D100F5B96058614FF08022B0
:101C500019681A6003B05DF8044B7047D0F814316E
:101C6000EBB103699A68D20719D510B5827A42B1EF
:101C7000D0F80C21D0F80C116FF341026FF3000281
:101C80000A605A68044642F001025A6005200BF0CF
:101C90001FFD2269536823F00103536010BD704794
:101CA000837A63B103699B68DB0708D5D0F80C31F0
:101CB000D0F80C216FF341036FF3000313607047FA
:101CC00030B54378012283B0044680F81221002BFE
:101CD0006BD08269FF239360426D93604278012A42
:101CE00063D9C2699360826D93604278022A5CD99D
:101CF000026A9360C26D93604278032A55D9426AA2
:101D00009360026E93604278042A4ED9826A93608F
:101D1000426E93604278052A47D9C26A9360826E08
:101D200093604278062A40D9026B9360C26E93603A
:101D30004278072A39D9426B9360026F93604278E8
:101D4000082A32D9826B9360426F93604378092BE3
:101D50002BD9C26BFF239360826F936042780A2A6B
:101D600023D9026C9360C26F936042780B2A1CD90E
:101D7000426C9360D0F88020936042780C2A14D98A
:101D8000826C9360D0F88420936042780D2A0CD93D
:101D9000C26C9360D0F88820936042780E2A04D9F0
:101DA000026D9360D0F88C2093602069E1681D4B30
:101DB00000224FF0FF3502614261C26185610192EC
:101DC000019A42F010020192019A0A610A69019295
:101DD00003E00A690192013B02D0019AD006F8D4CF
:101DE00003200BF035FC00230093009AE1680D4BB3
:101DF00042F020020092009A102060F38A120092B2
:101E0000009A0A610A69009203E00A690092013BA4
:101E100002D0009A9206F8D403200BF019FC03B00C
:101E200030BD00BF400D03004B78012B0B7800EB59
:101E3000830010D0436D1B68C3F307439A0607D491
:101E400013F0020F14BF4FF400504FF4405070478E
:101E50004FF48050704783691B68C3F307439906AA
:101E600005D413F0020F14BF20203020704710203B
:101E7000704700BF4B78012B0B7870B400EB8300E8
:101E800012D0446D2368B2F5805F1D4617D0B2F5BD
:101E9000005F11D0B2F5405F1CD012B962F3CF35AC
:101EA0002B46236070BC704786693368102A34461D
:101EB0001D4624D0202A05D143F00063F1E743F406
:101EC0000013EEE7302AE8D19D0213D500244C71AF
:101ED000806904E09A020DD500244C71406DCB78E6
:101EE0000268023B64F35552012B98BF42F08052C6
:101EF0000260D7E743F0044343F40043D1E733687B
:101F0000002BB8BF43F0804343F400133360C9E7AC
:101F1000F8B500EB410500EB4114B5F86C599DF89C
:101F2000187084F88C2705F07F06C5F3C01584F877
:101F30008D6784F88E57BDF81C6084F88F370025B4
:101F400084F89177A4F8926784F8A45784F8A55789
:101F500013B9012384F89037FEF7F0FF0020F8BD95
:101F600070B54C01BDF8145012B1061986F88C27D3
:101F70000219B2F89267AE4200D05DB9044494F8F9
:101F80008F279A4202D00BB184F88F37FEF7D6FF25
:101F9000002070BDA2F89257F0E700BFB0F96C398D
:101FA000002B1DDAB0F96E39002B25DAB0F9703943
:101FB000002B24DAB0F97239002B23DAB0F9743926
:101FC000002B22DAB0F97639002B21DAB0F9783912
:101FD000002B20DAB0F97A39002B1FDAFF20704786
:101FE0000022134600EB43036FEA41416FEA51417F
:101FF000A3F86C191046704701221346F2E702223B
:102000001346EFE703221346ECE704221346E9E701
:1020100005221346E6E706221346E3E707221346A6
:10202000E0E700BF072907D800EB4100B0F86C39A2
:10203000C3F30E03A0F86C390020704700F5176257
:102040000023C0F87039184653609360704700BF92
:102050002DE9F04FDFF830E3DFF824A30F4601212C
:1020600087B04FF0000805460846CEF80880CEF845
:102070000080CEF80C80CEF80480CEF81080144694
:102080008EF814801E460AF075F8012102200AF02D
:1020900071F8012104200AF06DF8012108200AF0EE
:1020A00069F801214FF400100AF064F801214FF49F
:1020B00000104FF0100B0AF087F801214FF4004098
:1020C0000AF082F84FF00209012350460DEB0B0194
:1020D0008DF8143001938DF816808DF81780CDF8A7
:1020E00010B08DF8159007F0DFF8019BA1488DF82E
:1020F00016304FF410720DEB0B0104928DF8159011
:102100008DF814908DF8178007F0CEF80422062180
:10211000984807F05BF904220921964807F056F920
:102120004FF4A4530DEB0B01934804938DF81590D5
:102130008DF814908DF816808DF8178007F0B4F89C
:10214000062207218C4807F041F906220A218A4815
:1021500007F03CF906220C21874807F037F90DEB10
:102160000B018648CDF810B08DF815908DF81490BD
:102170008DF816808DF8178007F096F80622042156
:102180007E4807F023F9AAF81AB0CDF80C80039B1B
:1021900044F6FE72934206DC00BF039B01330393B7
:1021A000039B9342F8DD764B10221A8301214FF4F2
:1021B00000100AF04FF800214FF400100AF04AF81E
:1021C000704B2A2148F233029980D2201A812B21A8
:1021D00040F201429883198419461A800A8B694B90
:1021E0009007FBD41A8892B242F480721A80998ABE
:1021F000644AC907FBD594231382918A614B8807EF
:10220000FBD50222198B1A82998A5E4A0906FBD5F0
:1022100001231382918A5B4B4807FBD51A8892B23F
:1022200042F400721A801A46118B564B8907FBD470
:102230001A8892B242F480721A80998A514AC80769
:10224000FBD594231382918A4E4B8907FBD5042238
:10225000198B1A82998A4B4A0806FBD5AF23138241
:10226000918A484B4907FBD51A8892B242F4007212
:102270001A801A46118B434B8807FBD41A8892B2F6
:1022800042F480721A80998A3E4AC907FBD594238A
:102290001382918A3B4B8807FBD50522198B1A8242
:1022A000998A384A0906FBD581231382918A354BD6
:1022B0004807FBD51A8892B242F400721A801A4677
:1022C000118B304B8907FBD41A8892B242F480728A
:1022D0001A80998A2B4AC807FBD594231382918AC6
:1022E000284B8907FBD50622198B1A82998A254A21
:1022F0000806FBD504231382918A224B4907FBD59C
:102300001A8892B242F400721A801A46118B1D4B41
:102310008807FBD41A8892B242F480721A80998A94
:10232000184AC907FBD594231382918A154B880755
:10233000FBD52022198B1A82998A124A0906FBD5ED
:1023400018231382918A0F4B4807FBD51A8892B243
:1023500042F400721A801A46118B0A4B8907FBD48B
:102360001A8892B242F480721A80998A054AC80784
:102370000CE000BF000402400008024000000240E0
:10238000000C024000540040380A0020EDD5942390
:102390001382918A8D4B8907FBD52122198B1A82D2
:1023A000998A8A4A0806FBD518231382918A874B9B
:1023B0004907FBD51A8892B242F400721A801A4675
:1023C000118B824B8807FBD41A8892B242F4807238
:1023D0001A80998A7D4AC907FBD594231382918A72
:1023E0007A4B8807FBD50222198B1A82998A774A81
:1023F0000906FBD59E231382918A744B4807FBD5AF
:102400001A8892B242F400721A801A46118B6F4BEE
:102410008907FBD41A8892B242F480721A80998A92
:102420006A4AC807FBD594231382918A674B8907B0
:10243000FBD50A22198B1A82998A644A0806FBD5B1
:1024400000231382918A614B4907FBD51A8892B207
:1024500042F400721A801A46118B5C4B8807FBD439
:102460001A8892B242F480721A80998A574AC90730
:10247000FBD594231382918A544B8807FBD50E22F7
:10248000198B1A82998A514A0906FBD504231382B3
:10249000918A4E4B4807FBD51A8892B242F40072DB
:1024A0001A801A46118B494B8907FBD41A8892B2BD
:1024B00042F480721A80998A444AC807FBD5942353
:1024C0001382918A414B8907FBD52722198B1A82E7
:1024D000998A3E4A0806FBD500231382918A3B4B1A
:1024E0004907FBD51A8892B242F400721A801A4644
:1024F000118B364B8807FBD41A8892B242F4807253
:102500001A80998A314AC907FBD594231382918A8C
:102510002E4B8807FBD51F22198B1A82998A2B4ACA
:102520000906FBD50F231382918A284B4807FBD558
:102530001A8892B242F400721A801A46118B234B09
:102540008907FBD41A8892B242F480721A80998A61
:102550001E4AC807FBD594231382918A1B4B890717
:10256000FBD51A22198B1A82998A184A0806FBD5BC
:102570000A231382918A154B4907FBD51A8892B218
:1025800042F400721A801A46118B104B8807FBD454
:102590001A8892B242F480721A80998A0B4AC9074B
:1025A000FBD594231382918A084B8807FBD51B2205
:1025B000198B1A82998A054A0906FBD50A231382C8
:1025C000938A02495807FBD502E000BF005400403F
:1025D0000B881248124A9BB243F400730B8000230D
:1025E00083839368AD0123F4000345EA0777936082
:1025F000C2F88470136843F08063136013681B0192
:10260000FCD544F40074054B44EA0626B6B24FF4F8
:1026100060621E849A8307B0BDE8F08F003C0040E2
:102620000038024015490A8B144B9007FBD41A88D6
:1026300092B242F480721A80998A104AC907FBD577
:1026400094231382918A0D4B8807FBD50222198BA4
:102650001A82998A094A0906FBD59E231382938A16
:1026600006495B07FBD50B88054A9BB243F4007310
:102670004FF460600B809083704700BF00540040AF
:10268000003C004014490A8B134B9007FBD41A8876
:1026900092B242F480721A80998A0F4AC907FBD518
:1026A00094231382918A0C4B8807FBD50222198B45
:1026B0001A82998A084A0906FBD501231382938A54
:1026C00005495B07FBD50B88044A9BB243F40073B2
:1026D00000200B809083704700540040003C004075
:1026E00019302649C0B20A8B244B9207FBD41A88B2
:1026F00092B242F480721A80998A204AC907FBD5A7
:1027000094231382918A1D4B8907FBD52022198BB4
:102710001A82998A194A0906FBD580B21082918AD9
:10272000164B4907FBD51A8892B242F400721A8000
:102730001A46118B114B8907FBD41A8892B242F4C6
:1027400080721A80998A0D4AC907FBD59423138297
:10275000918A0A4B8907FBD52122198B1A82998A03
:10276000064A0906FBD51082938A04495B07FBD50C
:102770000B889BB243F400730B80704700540040F9
:1027800003490B89024A9B07FBD580B290817047B1
:10279000003C0040014B80B298817047003C0040F3
:1027A000124A136823F00103F0B40546136008468B
:1027B000136813F00103FBD10D4C0E4A0E4E237526
:1027C0004FF400474021576082F82F13B2886060B1
:1027D00092B242F00202B280236125601DB12169EC
:1027E0002B46F0BC1847F0BC704700BFB8600240F1
:1027F000380A002000E100E0003C00400D4A136868
:1028000023F001031360136813F00103FBD10A499D
:102810000A4830B40B758288094C22F00202120477
:102820004FF40045120C8280C4F884500B6030BC19
:10283000704700BFB8600240380A0020003C0040EA
:1028400000E100E01C4A38B593681BB130BF9368C3
:10285000002BFBD1194C184B4FF40045C4F88450A1
:102860009060D160127D02F0FF0122B1134B4FF452
:1028700000425A6038BD124A12481060DC681248A3
:10288000546090609868D0600420506110681C68A3
:1028900040F00100106099601A69012182F0010284
:1028A0001A611975002CE1D019695868A047034BCB
:1028B0004FF400425A6038BD380A002000E100E0C1
:1028C000B8600240502C01000C3C0040194B9A6843
:1028D0000AB100207047184A10B54FF40044C2F8FE
:1028E00084409860D9601A7D02F0FF012AB1124B32
:1028F0004FF400425A60012010BD104A1048106089
:10290000DC681048546090609868D0600420506182
:1029100010681C6840F00100106099601A6901217C
:1029200082F001021A611975002CE0D0196958680B
:10293000A047DCE7380A002000E100E0B860024070
:10294000502C01000C3C00401649174BCA6842F05D
:102950000062CA609A68FAB1144A154910B411604D
:10296000D8681449506091609968D1600421516120
:1029700011681C6841F001010020116098601A691B
:10298000012182F001021A6119753CB11969586878
:1029900023465DF8044B18471A7570475DF8044BE1
:1029A000704700BF00600240380A0020B860024053
:1029B000502C01000C3C004008B5054800F054FDC7
:1029C000044B18B11A7802F0FE021A70187808BD8C
:1029D000E4AE00200000002018B9034B1878C0B204
:1029E00070470120704700BF0000002008B104209C
:1029F0007047002BFBD014480078C00701D5032096
:102A00007047F8B511481D4617460E4600F02CFDDC
:102A1000A0B16D0201E0032C11D12B463A4631469C
:102A20000A4801F029FE0A49044608480AF0CCFE8B
:102A3000064800F019FD0028EDD10120F8BD201C4A
:102A400018BF0120F8BD00BF00000020E4AE002048
:102A500084D8002008B104207047002BFBD0F8B5C3
:102A600015480478E40701D50320F8BD0078400735
:102A700001D50220F8BD11481D4617460E4600F04C
:102A8000F3FCA0B16D0201E0032C11D12B463A46B4
:102A900031460A4801F0A6FD0949044607480AF0F4
:102AA00093FE064800F0E0FC0028EDD10120F8BDBF
:102AB000201C18BF0120F8BD00000020E4AE00205B
:102AC00084D8002008B1042070470E4B1B78DB0728
:102AD00001D5032070470329F5D8DFE801F0020E85
:102AE0000904002070474FF4007313600120704701
:102AF0004FF40073138000207047034B1B68136072
:102B000000207047000000202CDB00202DE9F04F52
:102B10004FF0007383B04FF0000E8446176854687E
:102B20000E68CD6DC6FB073E66427446C5FB063493
:102B3000D5684F688E6D9068C7FB00346D42C6FB48
:102B4000053455698F684E6D1069C7FB00346D42BE
:102B5000C6FB0534D569CF680E6D9069C7FB00349C
:102B60006D42C6FB0534556A0F69CE6C106AC7FB0F
:102B700000346D42C6FB0534D56A4F698E6C906A8D
:102B8000C7FB00346D42C6FB0534556B8F694E6C34
:102B9000106BC7FB00346D42C6FB0534D56BCF69A3
:102BA0000E6C906BC7FB00346D42C6FB05341B0DE9
:102BB00043EA0433DC17B4EB635F18BF84F4FF45CA
:102BC00001F580560CBF9D1185F07F05ACF80050D3
:102BD0004FF0007300243668D2F80054C6FB053469
:102BE00041F20405D2F804644D59C5FB063441F2A4
:102BF0000805D2F808644D59C5FB063441F20C05AE
:102C0000D2F80C644D59C5FB063441F21005D2F8D8
:102C100010644D59C5FB063441F21405D2F8146412
:102C20004D59C5FB063441F21805D2F818644D59C8
:102C3000C5FB063441F21C05D2F81C644D59C5FB96
:102C400006341B0D43EA0433DD17B5EB635F4FEA2F
:102C5000A3141CBF85F4FF4484F07F0402F588634D
:102C6000ACF820400CF14009E64602F180060193E1
:102C70004FF000784FF0000C56F840AC56F83CBCD2
:102C8000D1F80051D1F85C7142466446C5FB0A2474
:102C900043466046C5FB0B30CBF10005C7FB05245E
:102CA000C7FB0A3056F8387C56F834ACD1F804B17A
:102CB000D1F85851CBFB0724CBFB0A30CAF1000AEC
:102CC000C5FB0A24C5FB073056F8307C56F82CACFF
:102CD000D1F808B1D1F85451CBFB0724CBFB0A3013
:102CE000CAF1000AC5FB0A24C5FB073056F8287C48
:102CF00056F824ACD1F80CB1D1F85051CBFB0724D5
:102D0000CBFB0A30CAF1000AC5FB0A24C5FB073019
:102D100056F8207C56F81CACD1F810B1D1F84C51C3
:102D2000CBFB0724CBFB0A30CAF1000AC5FB0A24FF
:102D3000C5FB073056F818AC56F8145CD1F814B13E
:102D4000D1F84871CBFB0A24CBFB05306D42C7FBA1
:102D50000524C7FB0A3056F810AC56F80C5CD1F8C5
:102D600018B1D1F84471CBFB0A24CBFB05306D427E
:102D7000C7FB0524C7FB0A3056F808AC56F8045CBC
:102D8000D1F81CB1D1F84071CBFB0A24CBFB053044
:102D90006D42C7FB0524C7FB0A30120D42EA04321C
:102DA000D5171B0DB5EB625F43EA00334FEAA2145F
:102DB0004FEAE37018BF85F4FF444FEAA31218BF2F
:102DC00084F07F04B0EB635F019B2EF8024F18BFC5
:102DD00080F4FF4206F1400618BF82F07F029E4257
:102DE00029F8022D01F580717FF446AF03B0BDE8EC
:102DF000F08F00BF2DE9F04F4FF00073002585B034
:102E000016680F681C46AE46C7FB064E5768C7F1EA
:102E1000000CCF6DC7FB0C4ED1F88070C7FB063598
:102E2000D1F8DC60C6FB0C3596684F68C7FB064ED0
:102E3000D768C7F1000C8F6DC7FB0C4ED1F88470BA
:102E4000C7FB0635D1F8D860C6FB0C3516698F680C
:102E5000C7FB064E5769C7F1000C4F6DC7FB0C4E00
:102E6000D1F88870C7FB0635D1F8D460C6FB0C35A5
:102E70009669CF68C7FB064ED769C7F1000C0F6D86
:102E8000C7FB0C4ED1F88C70C7FB0635D1F8D0606B
:102E9000C6FB0C35166A0F69C7FB064E576AC7F1A9
:102EA000000CCF6CC7FB0C4ED1F89070C7FB0635F9
:102EB000D1F8CC60C6FB0C35966A4F69C7FB064E4D
:102EC000D76AC7F1000C8F6CC7FB0C4ED1F8947019
:102ED000C7FB0635D1F8C860C6FB0C35166B8F6989
:102EE000C7FB064E576BC7F1000C4F6CC7FB0C4E6F
:102EF000D1F89870C7FB0635D1F8C460C6FB0C3515
:102F0000966BCF69C7FB064ED76BC7F1000C0F6CF1
:102F1000C7FB0C4ED1F89C70C7FB0635D1F8C060DA
:102F2000C6FB0C35240D44EA0E34E7171B0DB7EB36
:102F3000645F43EA053318BF87F4FF464FEAE37541
:102F40000CBFA61186F07F06B5EB635F4FEAA314B2
:102F500018BF85F4FF4401F5805318BF84F07F0447
:102F6000068000274FF00076039344801B68D2F858
:102F700000543446BC46C3FB054C01F5845EDEF8C4
:102F800000E0CEFB056741F2040E6346D2F804541C
:102F900051F80EE0CEFB054341F2840E51F80EE0ED
:102FA000CEFB056741F2080E254651F80EE0D2F837
:102FB0000844CEFB045341F2880E51F80EE0CEFBDC
:102FC000046741F20C0E2C4651F80EE0D2F80C5476
:102FD000CEFB054341F28C0E51F80EE0CEFB0567A7
:102FE00041F21005D2F810E44D59C5FB0E4341F2F1
:102FF000900C35463E4651F80C70C7FB0E5641F218
:10300000140ED2F8147451F80EE0CEFB074341F2CF
:10301000940E51F80EE0CEFB075641F2180ED2F88E
:10302000187451F80EE0CEFB074341F2980E51F8A8
:103030000EE0CEFB075641F21C0ED2F81C7451F87C
:103040000EE0CEFB074341F29C0E51F80EE0CEFBA2
:103050000756240D44EA0334E317B3EB645F4FEAE9
:10306000A41718BF83F4FF474FEA155343EA06330A
:103070004FEAE37518BF87F07F07B5EB635F4FEA50
:10308000A3141CBF85F4FF4484F07F0400F10803FF
:10309000A0F84070A0F8424001F5807102F1800B69
:1030A000009301905BF840CC5BF83C8C0868CB6DDA
:1030B0004FF000744FF0000EC0FB0C4E4FF000724A
:1030C0000026C0FB0826C8F10009C3FB094EC3FB5C
:1030D0000C264FF000700292D1F880A00027CAFBA6
:1030E0000C074FF000730025CAFB0835D1F8DC202F
:1030F000C2FB0907C2FB0C355BF838AC5BF834CC7B
:10310000D1F80490D1F85880C9FB0A4E029AC9FB45
:103110000C26CCF10009C8FB094EC8FB0A26029216
:10312000D1F8D880D1F88420C2FB0A07C2FB0C3545
:10313000C8FB0907C8FB0A355BF830AC5BF82CCC40
:10314000D1F80890D1F85480C9FB0A4E029AC9FB05
:103150000C26CCF10009C8FB094EC8FB0A260292D6
:10316000D1F8D480D1F88820C2FB0A07C2FB0C3505
:10317000C8FB0907C8FB0A355BF828AC5BF824CC10
:10318000D1F80C90D1F85080C9FB0A4E029AC9FBC5
:103190000C26CCF10009C8FB094EC8FB0A26029296
:1031A000D1F8D080D1F88C20C2FB0A07C2FB0C35C5
:1031B000C8FB0907C8FB0A355BF820AC5BF81CCCE0
:1031C000D1F81090D1F84C80C9FB0A4E029AC9FB85
:1031D0000C26CCF10009C8FB094EC8FB0A26029256
:1031E000D1F8CC80D1F89020C2FB0A07C2FB0C3585
:1031F000C8FB0907C8FB0A355BF818AC5BF814CCB0
:10320000D1F81490D1F84880C9FB0A4E029AC9FB44
:103210000C26CCF10009C8FB094EC8FB0A26029215
:10322000D1F8C880D1F89420C2FB0A07C2FB0C3544
:10323000C8FB0907C8FB0A355BF810AC5BF80CCC7F
:10324000D1F81890D1F84480C9FB0A4E029AC9FB04
:103250000C26CCF10009C8FB094EC8FB0A260292D5
:10326000D1F8C480D1F89820C2FB0A07C2FB0C3504
:10327000C8FB0907C8FB0A351BE90014D1F81C90EC
:10328000D1F84080C9FB0A4E029AC9FB0C26CCF14A
:103290000009C8FB094EC8FB0A260292D1F8C0807B
:1032A000D1F89C20C2FB0A07C2FB0C35C8FB0907FA
:1032B000C8FB0A35240D44EA0E344FEAE47CBCEB2B
:1032C000645F4FEAA41E009A1CBF8CF4FF4E8EF080
:1032D0007F0E22F804EC000D029A40EA0730C7176F
:1032E000120DB7EB605F42EA06324FEAA0144FEAD4
:1032F000E27618BF87F4FF44009818BF84F07F047B
:103300001B0DB6EB625F43EA053320F8024C4FEA2F
:10331000A21018BF86F4FF40019A18BF80F07F000A
:10332000DC17B4EB635FA2F87C004FEAA312009BAA
:10333000019803F104030093A0F104030193039B9C
:1033400018BF84F4FF4201F5807118BF82F07F023C
:103350009942A0F87E200BF1400B7FF4A3AE05B09C
:10336000BDE8F08F38B500250823C0F8F0560446B4
:10337000C0F8F456C0F8305780F86C57C0F8F856CB
:10338000C0F8345780F86D57C0F8FC56C0F838576D
:1033900080F86E57C0F80057C0F83C5780F86F5758
:1033A000C0F80457C0F8405780F87057C0F8085765
:1033B000C0F8445780F87157C0F80C57C0F8485708
:1033C00080F87257C0F81057C0F84C5780F8735700
:1033D000C0F81457C0F8505780F87457C0F8185701
:1033E000C0F8545780F87557C0F81C57C0F85857A4
:1033F000A0F8923780F87657C0F82057C0F85C578D
:1034000080F87757C0F82457C0F8605780F878578D
:10341000C0F82857C0F8645780F87957C0F82C577F
:10342000C0F8685780F87A57FDF716F92046FDF77F
:1034300087FB2046FDF7B2FA01212046FDF7CCFBC1
:103440002046FDF7FDFB2046FDF772FB284638BD00
:10345000D0F8CC301868C0F34140704708B5FDF78C
:103460004FFD002008BD00BFD0F8F006704700BF38
:103470004369986880B27047014491F87B077047B0
:1034800001F5E67150F82100704700BF014491F842
:103490006C07704708B5FDF751FD08BD10B500EB8E
:1034A00041134418002284F87B27C3F8A027FDF7B6
:1034B000BBFD10BDD0F88C3901221A72D0F88C39BE
:1034C00000229A72704700BFD0F88C3901225A72DC
:1034D000D0F88C390022DA72704700BF2DE9F8432A
:1034E000DDF82080144606460F46994609F0C6FFCF
:1034F00000200AF053F8002501224023A371E27056
:10350000227784F82120217925706570A57084F8D0
:1035100020503046FEF786FD61793046FEF782FD89
:103520000A4AC4F87C90C4F880803946C6F88C29D1
:10353000304615725572FFF715FFD4F880301B68BE
:1035400098473046BDE8F84309F0FABF0400002070
:1035500070B50123002540220C468A71CB700B7791
:1035600081F821300D704D708D7081F82050064625
:103570000979FEF757FD61793046FEF753FD28467D
:1035800070BD00BF0B1F012B08D9062900D0704762
:10359000D0F880300C221B680270184710B5D0F8A4
:1035A000803004465B6C98470C23237010BD00BF2D
:1035B0000B7F0022013B70B50C468A7405460A2B2E
:1035C00000F29080DFE803F0141C2A334B5D6A910F
:1035D000738506008B7B0133DBB2022B8B7340F2C9
:1035E000A0804B780B7008228A740223184670BDA5
:1035F0004A79143100F066FB022323770023F5E7B4
:103600004979FFF739FF012800F08F80032869D13D
:1036100005230B22A37422770023E7E70B790A7BAB
:10362000896800F08BFB042323770023DEE7097908
:10363000FFF722FF012800F08B8004286DD00328BB
:1036400008D02846FFF714FF4D4A238A1288C01A73
:10365000904247D90B2323770023184670BD4B793E
:1036600000EB431393F8A52782F0010283F8A52706
:103670004B790A7B896800F03DFB06232377002302
:10368000B4E74979FFF7F8FE012864D0042844D054
:10369000022825D1052323770023A7E700222379D9
:1036A000114600F04BFB0823237700239EE74B795C
:1036B00000EB4313002293F8A51781F0010183F872
:1036C000A5176379114600F015FB0A232377002321
:1036D0008CE74979FFF7D0FE01281ED002283ED0A2
:1036E0000328B7D00023184670BD0979FFF7C4FE40
:1036F0000128064611D00328ACD02846FFF7B8FEB3
:103700001F4A238A1288C01A9042A3D8042EE9D1F6
:1037100063782370A674032368E76378237000231B
:1037200064E701230B77002360E7237D628B23F09E
:103730007F03DBB2BAB1124A41F288311180CBB9B2
:10374000052323772846FFF793FE002320824DE7C9
:103750000923237775E707232377002346E7092307
:103760002377002342E7064A322111802BB9072331
:103770002377E7E703232377E4E709232377E1E7C8
:103780004E0A002070B50B7894B002220C468DF8DA
:103790000F2005460C2B21D8DFE813F061006B00E9
:1037A0007100200020002000B300CE00D900EF00FF
:1037B00051002000F20091F83220002A00F0B3817D
:1037C000FF21009104AB214601F0A4F830B9D4F8F0
:1037D000803004A81B6B98470823A3702846FFF786
:1037E00043FE18B9D5F88C39DE7A0EB114B070BD2D
:1037F000D4F880301B699847D5F88C290123D372FF
:103800004022A271E370237784F821302179267059
:103810006670A67084F820602846FEF703FC617984
:103820002846FEF7FFFBD4F880305B689847E36FCB
:1038300028465B6804F12001984714B070BDD1F8A8
:1038400080309B6B98470128C8D1E36F21461B68E5
:10385000284698470028C1D107232370BEE7FFF709
:1038600003FE0028BAD02846FEF7E8FB02232370A7
:10387000B4E7FFF7F3FD0028B0D12070AEE7D1F830
:1038800080309B689847D5F88C3900215972D5F85B
:103890008C3901229A722846FEF780FB80216071E4
:1038A0002846FEF77BFB20712846FFF7D7FD06462A
:1038B000002893D1D4F88030DB6898472846FFF77A
:1038C000C7FDD4F88030C0B284F8210006229B697D
:1038D00022709847A07994F8213094F8202021791B
:1038E000019000962846FEF713FBA07994F821304A
:1038F00094F820206179019000962846FEF708FB95
:103900006CE78B78092B3FF669AF01A252F823F0E0
:103910008F3A0008713A0008D33A00080D3A0008BF
:103920004B3A00081F3A0008E1390008B737000891
:10393000CD390008BF390008CB6F9B6898478DF8D8
:103940000F009DF80F303BB90823237046E7CB6F7B
:10395000DB6898478DF80F009DF80F30DBB21A1F17
:10396000012A40F2D980062B7FF438AFD4F880309A
:103970000C221B682270984730E7FFF719FE2DE7ED
:1039800000230122402123706370A37084F820304B
:10399000E270227784F82120A1712179FEF742FBA1
:1039A00061792846FEF73EFBD4F880305B68984783
:1039B000E36F04F120015B68284698470EE7D1F8D1
:1039C00080305B6B98470A23237007E791F8392012
:1039D00000F0FCFF00287FF401AF0923A370FDE68F
:1039E00091F83120002A00F0AE80FF21009104AB55
:1039F000214600F08FFF00287FF4F0AED4F880302D
:103A000004A8DB6A98470723A370E7E6092200F0C1
:103A1000F5FE00287FF4E2AE0423A370DEE691F801
:103A20003020002A00F08780FF21009104AB21465E
:103A300000F070FF00287FF4D1AED4F8803004A8E5
:103A40009B6A98470623A370C8E6CA8E00F0D6FE8C
:103A500000287FF4C3AED4F8803004F150025B6AD2
:103A600004F13E0104F1340098470523A370B5E644
:103A7000122200F067FE00287FF4B0AED4F8803048
:103A800004F12200DB6998470223A370A6E608220E
:103A900000F058FE064600287FF4A0AE94F82930C6
:103AA000A3712846FFF7DAFCA37961790096012219
:103AB000A2702846019332463346FEF751FAA379A5
:103AC000217901930096334632462846FEF748FA9C
:103AD00084E6012200F06EFF064600287FF47EAEE9
:103AE0000122D4F8803084F820201B6A98470323F1
:103AF00094F820202179019600962846A370334639
:103B0000FEF72EFA94F8202061790196009633464C
:103B10002846FEF725FA61E6D4F880305B6C9847BA
:103B20000C2323705AE6D1F880300B481B6B984762
:103B30000823A37052E6D1F8803007489B6A984763
:103B40000623A3704AE6D1F880300348DB6A984721
:103B50000723A37042E600BF34DD0108002800F00F
:103B60008180C368002B7DD02DE9F04F446985B07A
:103B7000002C74D0D0F81880B8F1000F6FD0D0F8B6
:103B8000BC37022B0F4608F5085604F5D8592BD040
:103B9000326809F118094FF0000A0AF00105D9F856
:103BA0000030009320462B46414605F095FC3368D3
:103BB0002E4A2901294403EB8111384608EB810183
:103BC000FEF7A4FF32680AF1010A521B02F0070255
:103BD000BAF1120F04F1800407F140073260DCD122
:103BE000002005B0BDE8F08F04F51063CB460393C9
:103BF000326808F1800309F118090BF11C0B0293DC
:103C00004FF0000A0AF00105D9F800300093204671
:103C10002B46414605F060FCDBF800303268029923
:103C2000009304F510602B4605F056FC33680F4AEC
:103C30002901294403EB8111384608EB8101FFF784
:103C4000D9F83268039B521B803402F007029C4271
:103C50000AF1010A07F180073260D3D1C0E74FF0C3
:103C6000FF30BEE74FF0FF30704700BF04C90108C6
:103C7000F8B50C4649791D461646FFF7FDFBE3787B
:103C8000012B0DD0022B09D1012818D0032812D006
:103C9000042803D10123E3700320F8BD0120F8BDFF
:103CA0002778A66009210222A5812377184667702C
:103CB0002170E270F8BD01221846E270F8BDE07094
:103CC0000020F8BDF8B502F10D0400EB441400EB40
:103CD000421300270326082583F88E77C4F8F815C9
:103CE00084F8F4651146C3F89C57FFF7D7FBC0B2C0
:103CF000F8BD00BFF8B503F10D0400EB431500EB70
:103D00004416002785F88E77C6F8F815C5F89C2765
:103D100062B9012185F8A517022200EB4414194667
:103D200084F8F425FFF7BAFB0020F8BD00EB43123E
:103D300092F8A527002A18BF0222EEE7F8B503F192
:103D40000D0500EB451500EB43140127022684F80E
:103D50008E77C5F8F81585F8F4651946C4F89C27E0
:103D6000FFF79CFB0020F8BDF8B503F10D0500EB53
:103D7000431700EB4515002687F88E67C5F8F81540
:103D8000C7F89C2797F8A527B24218BF022285F8EA
:103D9000F4251946FFF782FB3046F8BDF8B503F16C
:103DA0000D0500EB431600EB4515012786F88E77CD
:103DB000C5F8F815C6F89C2796F8A427002A18BF5E
:103DC000022285F8F4251946FFF768FB0020F8BDAC
:103DD000F8B503F10D0500EB431600EB451501277F
:103DE00086F88E77C5F8F815C6F89C2796F8A427AC
:103DF000002A18BF022285F8F42596F8A4277A40F5
:103E0000194686F8A427FFF749FB0020F8BD00BF3C
:103E1000F8B503F10D0500EB431700EB451500263F
:103E200087F88E67C5F8F815C7F89C2797F8A42778
:103E3000B24218BF022285F8F42597F8A42782F031
:103E40000102194687F8A427FFF728FB3046F8BD82
:103E50002DE9F04182B041B34FF400412B482C4F83
:103E600005F0A4FA4FF48041284805F0A1FA294E44
:103E7000294C31682068DFF8AC8010F0BFFF25685E
:103E800031680346C91A1D44002300933160D8F8F5
:103E900000002560324621463B4611F021F8C0B1B2
:103EA00002300ED002B0BDE8F0814FF480411748D7
:103EB0001A4F05F07BFA4FF40041144805F078FAE8
:103EC000D5E7174B1969384602B0BDE8F041FEF757
:103ED000B9BC134CD8F80000214610F0A5FF636868
:103EE0002169012BEFD100290DDB07EB8103A3EB47
:103EF00041023D1FB2F90000188032F902095880D2
:103F0000043BAB42F6D149002161DCE7000C0240E2
:103F1000500A002008D900200CD90020502A002087
:103F200010D90020DCAE0020F0B52A4D83B000246B
:103F300006460F46284601AB01220DF1030101940C
:103F40008DF803400DF0E2FD10B9019B012B02D06A
:103F5000012003B0F0BD013E772E10D801AB2846FA
:103F6000324639460DF0D2FD10B1019B9E42EFD191
:103F70009DF8030068B101280DD00020E9E7A96889
:103F8000284631440EF052FA003018BF012003B029
:103F9000F0BDB855DDE7022E12D93B78FF2B13D0C8
:103FA0000023FC18791E0022023314F8120001F8D5
:103FB000010F9E4202F10102F6D80020B854C8E772
:103FC000002EEDD13246F8E77B78FE2B0CBF0223A2
:103FD0000023E6E7B8AA00202DE9F04FADF50D7DEE
:103FE000B84B1393B8494FF4807315A814930EF08F
:103FF000F3FA002840F0A580B44CDFF8E49225469F
:10400000CA460DA915A80EF003FC002840F09980BF
:104010009DF83D30002B00F094802E2BF1D0139BA7
:104020001A780AB90DF13D039DF83C20D006E8D47A
:104030000DF5B478A649A44A404612F0E3FB404689
:104040002E2112F055FC0028DBD04045D9D0461C6B
:104050003146A04811F028FA002876D19E4E9F4F95
:104060009F4837604FF400534146012223600DF012
:1040700057FB86460028C4D104AB07A90A229848FA
:104080008DF878E08DF8F0E0CDF810E00DF03EFD11
:1040900010B9049B0A2B6DD00DF1280843464FF44C
:1040A00000528E498E480DF031FD10F0A1FE8D4A70
:1040B000022110600023062240F20F10FDF7C8FF16
:1040C000AF20FEF70DFB00218748FEF769FB236850
:1040D000B3F5805FFBDA2A683168804811F040F957
:1040E0002B6829687E483760C3F5005B5A4639441F
:1040F00043460DF00BFDD8F800307C494FF40052D8
:104100009B452A6003D810B90B69DA07DFD5FEF7A3
:1041100075FB06220023022140F20F10FDF798FFE5
:104120000020FEF7DDFA6E480EF0E8F86F4A1369DA
:10413000DB07FCD40DA915A80EF06AFB00283FF49C
:1041400067AF0DF50D7DBDE8F08F3146684811F081
:10415000ABF9002882D03146664811F0A5F9002855
:104160003FF47CAF3146644811F09EF900283FF4DB
:1041700075AF46E79DF81C30492B07D001900DF133
:104180002808019956480EF051F987E79DF81D302F
:10419000442BF3D19DF81E30332BEFD19DF8220034
:1041A0009DF823309DF825109DF8242040059B03A1
:1041B00000F07E6003F4FE13034301F07F010B4324
:1041C000D2019DF821109DF81F00029002F47E524A
:1041D0001343490601930DF1280841D44FF0020B17
:1041E00004AB0A2241463E480DF090FC03900028A3
:1041F0007FF454AF049A0A2A7FF450AF98F8002055
:10420000002ABED003223D49404612F021FB00287F
:10421000B7D0D8F800200592029A039B8DF8183089
:10422000032A00F08F80042A75D03549039305A82E
:1042300011F03AF9039B002866D005A83149039391
:1042400011F032F9039B98BB18463CA9FFF76CFEAE
:10425000002896D10BF1FF3BBBF1000FC0D190E7D6
:10426000414604AB04221E480DF050FC98F800E0D3
:1042700098F8011098F8030098F80230DAF808204E
:104280004FEA4E5E89030EF07E6E01F4FE1100F0DF
:104290007F004EEA0101DB01014303F47E530B432F
:1042A000111F19440E480EF0C1F8002896D0F5E60B
:1042B000D9F808100A4819440EF0B8F800288FD031
:1042C000ECE600BF504A002058DD010808D9002064
:1042D00038DD010840DD01080CD9002074B8002049
:1042E000B8AA0020DCAE0020513E000800000240C9
:1042F00044DD010848DD01084CDD010850DD0108FE
:1043000054DD01085CDD010818461EA9FFF70CFE0C
:1043100000289FD035E798F8040098F8051098F821
:10432000062098F8073000F07F0001F07F0101EBD4
:10433000C01102F07F0202EBC11203F07F0303EB16
:10434000C21372E798F8053098F8041098F8062020
:1043500003EB012198F8073002EB012203EB022363
:1043600063E700BF10B52E21044612F0C1FA18B160
:10437000844201D0013010BD004810BD58DD010855
:10438000054B1A6812B11A68013A1A60034A136899
:1043900001331360704700BFB4AA0020E0AE0020D4
:1043A00082B0044A0190019B13601368002BFCD17A
:1043B00002B07047B4AA0020704700BFF8B5FFF7FD
:1043C00053F808B90320F8BD144BDA78012A0AD053
:1043D000022AF7D1D87B18B101281CD00228F1D1CC
:1043E0000122DA70F8BD0E491A7106250022032059
:1043F0008D73022407250B4F4A613F268A61CA61EB
:104400008A600A730A61CA739870D8731D70DC7071
:104410009F609E81F8BDD870F8BD00BF38E60020CF
:1044200048E6002028E60020F8B5FFF71DF808B997
:104430000320F8BD1F4BDA78012A0AD0022AF7D1EF
:10444000D87B10B3012833D00228F1D10122DA70D1
:10445000F8BD19491A71082201F110048A608026FA
:1044600000220A252520C8730A610E738D73042665
:10447000072503200221114F6260A260E2609E7056
:104480001D70D873D9709F60F8BD0C490C4A0C7828
:1044900091F801E08F78CE788D79D470CC7982F85C
:1044A00002E001215770167055721472D970F8BD70
:1044B000D870F8BD38E6002048E600202CD900204E
:1044C0002CDB0020F8B5FEF7CFFF08B90320F8BDBC
:1044D0001A4BDA78012A0BD0022AF7D1D87B18BB05
:1044E000174A184C92780121D2092273D970F8BD6D
:1044F00015491A71802400220A261A250A610C73B4
:104500008E733F240526CD734A6107258A61CA61EF
:10451000032002220A4F8C604C74CC749E701D7074
:10452000D873DA709F60F8BD012804D00228CDD17D
:104530000122DA70F8BDD870F8BD00BF38E600205F
:104540002CD900202CDB002048E60020F8B5FEF72F
:104550008BFF08B90320F8BD1E4BDA78012A0AD078
:10456000022AF7D1D87B28B3012830D00228F1D114
:104570000122DA70F8BD18491A71802500220A203C
:104580000A619F780D7388733F2503204A618A6111
:10459000CA6106260A7407240222DFF840E08D6013
:1045A000CD74C873D8735F709E701C70DA70C3F8D6
:1045B00008E0F8BD09490A4A0F784E788D78CC7822
:1045C000D7710121967155711471D970F8BDD870E9
:1045D000F8BD00BF38E6002048E600202CD90020B6
:1045E0002CDB0020F0B585B00D4601921C46FEF78D
:1045F0003BFF10B9032005B0F0BD1D4AD178012959
:104600000AD00229F6D1D07B18B101282CD002287B
:10461000F0D10123D370EEE7164B11710A21997383
:104620002A219DF80660D973002119619DF8077051
:104630009DF805E095609E74650A9DF804605961D7
:1046400003209C6019735F740724C5F307279961E1
:10465000D961022183F813E0DD759F751E75147012
:10466000D073D17005B0F0BDD0700320C3E700BF98
:1046700038E6002048E600202DE9F0432E4E85B0B4
:10468000032401928946984634700546FEF7ECFEF5
:1046900090B12A4FFB78012B12D0022B0CD1FC7B5E
:1046A000002C3BD0012C40D0022C05D101233470CA
:1046B0002046FB7001E0FC70307805B0BDE8F08367
:1046C0001F4A347020463B71FC730A23282480263D
:1046D0009373D47300239DF8054013614FEA582566
:1046E0009DF807E01673D4749DF806609DF80440A9
:1046F000536196749361C5F30726D36107210223A2
:10470000C7F80890C2F8088082F811E0D575967550
:1047100014753970FB7005B0BDE8F0832846FEF7CC
:10472000A3FE0028C2D1FC7BBCE72846FEF79CFE16
:104730000028C0D1FC7BB7E71000002038E600203D
:1047400048E60020F8B5164680254FF48072002315
:1047500006270D75CA820B834E834F75334600F5CD
:10476000BE620C460546FFF783FA00B1F8BD95F826
:10477000F03584F8223095F8F13584F8233095F837
:10478000F32595F8F23503EB0223A38495F8F4356D
:1047900084F8263095F8F53584F8273095F8F63505
:1047A00084F8283095F8F73584F82930082EDDD9BB
:1047B00095F8F92595F8F83503EB0223638595F80C
:1047C000FB2595F8FA3503EB0223A38595F8FD2523
:1047D00095F8FC3503EB0223E38595F8FE3584F864
:1047E000303095F8FF3584F8313095F8003684F88C
:1047F000323095F8013684F83330F8BD2DE9F041B8
:1048000006238027904600F5BE640F754B754FF464
:10481000007700230B832246A1F81A80CF824346FB
:1048200006460D46FFF724FA08B1BDE8F08196F878
:10483000F03585F8343096F8F13585F8353096F84E
:10484000F32596F8F23503EB0223EB8696F8F42570
:1048500085F8382096F8F53585F8393096F8F6352C
:1048600085F83A3096F8F73585F83B3096F8F83504
:1048700085F83C30B8F1090FD7D9022AD5D80746B8
:1048800005F13E0C05F1500E7BB29A42CDDD227847
:1048900014446278042AFAD103EBC30322780CF89B
:1048A0000320634462785A70A2789A70E278DA70D2
:1048B00026791E7162795A71A2799A71E279DA7158
:1048C000227A1A72022E20D80022B2421DDA2178F2
:1048D0000C4461780529F8D111B226780EF83160C0
:1048E0000EEBC10166784E70A6788E70E678CE70B9
:1048F00094F80580267906EB08268E80A6798E71BD
:1049000001321E7952B2B242E1DB95F8382001370C
:10491000BAE700BF2DE9F0418027BDF818400F75B8
:1049200042F440724FF0060E1E4600F5BE6740F29C
:104930000943CA820B834C8381F815E03A4623462B
:104940008046FFF795F918B998F8F135032B01D097
:10495000BDE8F08198F8F035023B9C42A8BF1C46A8
:10496000A4B244B10246BB18023292B29B7806F858
:10497000013B9442F7D800233370BDE8F08100BFBB
:10498000F0B41F4603F47F43B3F5407F049EBDF8A7
:104990001430CF8240F2094562F07F0218BF002533
:1049A00006270A754F750D8332464B83F0BCFFF71F
:1049B0005FB900BF30B400230525CA824D750B7561
:1049C0000B834B831A4630BCFFF752B930B4002337
:1049D0000925CA824D750B750B834B831A4630BC73
:1049E000FFF746B970B43D3300EB431300240A834C
:1049F000022612064FF001050E754D75CC824C83D0
:104A00004CBF1C715C7100231A4670BCFFF730B9B3
:104A100008B52B4B984219D02A4B984220D02A4BEC
:104A2000984229D0294B984232D0294B98423BD00A
:104A3000284B984200D008BD0121202007F018FC27
:104A400000212020BDE8084007F012BC0121102001
:104A500007F00EFC00211020BDE8084007F008BC5C
:104A600001214FF4003007F0F5FB00214FF4003036
:104A7000BDE8084007F0EEBB01214FF4802007F0AD
:104A8000E9FB00214FF48020BDE8084007F0E2BBBD
:104A900001214FF4002007F0DDFB00214FF400203E
:104AA000BDE8084007F0D6BB01214FF4801007F0A5
:104AB000D1FB00214FF48010BDE8084007F0CABBCD
:104AC000001001400044004000480040004C0040FD
:104AD0000050004000140140028A0B89F0B592B2E8
:104AE000CF888E88044622F440523A4348890D46C6
:104AF00089892282A289334392B2034322F4B052BD
:104B000022F00C029BB21343A381A38A9BB223F42D
:104B100040730B4385B0A382684607F0B5FA1D4B7E
:104B20009C4228D003F580639C4224D0029AA3893A
:104B3000A18913F4004F2B6802EB820214BF5B00C3
:104B40009B0002EB8202B2FBF3F0134AA2FB00359A
:104B50006D096423090405FB13034FEA05150CD402
:104B60001B013233A2FB0323C3F343132B439BB23A
:104B7000238105B0F0BD039AD9E7D9003231A2FBF9
:104B80000131C1F3421242EA05039BB2238105B011
:104B9000F0BD00BF001001401F85EB5100234FF412
:104BA00016510C22016042818380C380038183817E
:104BB000704700BF30B44A880D888C88038AC98842
:104BC0002A4322430A439BB292B223F470631343F5
:104BD000038230BC704700BF002303804380838082
:104BE000C3807047838929B923F400531B041B0C2D
:104BF000838170479BB243F400538381704700BFA9
:104C0000038B03F47F430383038B9BB2194301831C
:104C1000704700BF838919B9C3F30E0383817047BE
:104C20006FEA43436FEA53439BB28381704700BFEF
:104C3000838A29B923F400631B041B0C8382704709
:104C40009BB243F400638382704700BFC1F3080145
:104C5000818070478088C0F308007047038A23F082
:104C60000F031B041B0C0382038A9BB219430182AE
:104C7000704700BF838929B923F002031B041B0C72
:104C8000838170479BB243F002038381704700BF6A
:104C9000838923F400631B041B0C838183899BB2EB
:104CA00019438181704700BF038A23F020031B044E
:104CB0001B0C0382038A9BB219430182704700BF19
:104CC000038A29B923F480431B041B0C0382704719
:104CD0009BB243F480430382704700BF83899BB239
:104CE00043F0010383817047838A29B923F00803C5
:104CF0001B041B0C838270479BB243F00803838222
:104D0000704700BF038BDBB20383038B9BB243EA84
:104D100001210183704700BF838A29B923F0200352
:104D20001B041B0C838270479BB243F020038382D9
:104D3000704700BF838A29B923F010031B041B0CA2
:104D4000838270479BB243F010038382704700BF99
:104D5000838A23F004031B041B0C8382838A9BB287
:104D600019438182704700BF838A29B923F0020367
:104D70001B041B0C838270479BB243F002038382A7
:104D8000704700BF838A9BB21AB923EA010181826E
:104D9000704719438182704710B401F01F04C1F3BA
:104DA00042110123012903FA04F311D002290CBF97
:104DB0001030143032B902685DF8044B22EA030364
:104DC0000360704702685DF8044B1343036070474B
:104DD0000C30EFE70388194214BF01200020704710
:104DE000C94389B201807047C1F3421210B4012354
:104DF00001F01F04012A03FA04F317D0022A0CBFA2
:104E0000028A828A92B21340028892B253B101237D
:104E1000090A03FA01F10A4214BF184600205DF89E
:104E2000044B704718465DF8044B7047828992B274
:104E30001340E9E7090A012303FA01F1C94389B2E2
:104E40000180704780B584B000AF78600023FB60BC
:104E50000023BB607868FBF7E3FE0346002B71D0AC
:104E60007868FBF7E3FE0346BB60BB68002B01D10B
:104E7000002368E03B7A03F00803DBB2002B06D086
:104E8000786800F0ABF80246FB681343FB603B7A9E
:104E900003F01003DBB2002B06D0786801F068F84D
:104EA0000246FB681343FB603B7A03F02003DBB24E
:104EB000002B06D0786800F0C5F80246FB68134363
:104EC000FB60FB7A03F00403DBB2002B06D07868AA
:104ED00000F07CF90246FB681343FB60FB7A03F0A9
:104EE0000203DBB2002B06D0786800F031F80246EE
:104EF000FB681343FB60FB7A03F00103DBB2002B7A
:104F000006D0786800F026FA0246FB681343FB607F
:104F1000FB7A03F02003DBB2002B06D0786800F0A8
:104F200073F80246FB681343FB60BB7A03F020036F
:104F3000DBB2002B06D0786801F0E6F80246FB6889
:104F40001343FB60FB6818461037BD4680BD00BFA9
:104F500080B586B000AF786000237B6100233B61A1
:104F60007868FBF7C9FF0346FB6000237B612AE0FA
:104F7000BB891A467B6942FA03F303F00103002B55
:104F80001ED07A687B6922339B0013449B681B68A0
:104F9000BB607B7A23F07F03DBB2002B08D07969FA
:104FA000786800F009FD02463B6913433B6107E066
:104FB0007969786800F080FA02463B6913433B61E7
:104FC0007B6901337B617B681B781A467B699A4257
:104FD000CED83B6918461837BD4680BD80B485B031
:104FE00000AF78600023FB603B7B43F008033B731A
:104FF0007B68DB68FA685A61012318461437BD469E
:105000005DF8047B704700BF80B584B000AF786066
:105010007B680022C3F8F0260023FB607B68D3F88E
:105020008C391B6878689847FB7B43F02003FB733F
:105030007B68DB68FA685A61012318461037BD4661
:1050400080BD00BF80B586B000AF78607B68DB684C
:10505000DB6AFB60FB7BC3F34113DBB27A685B0165
:10506000134403F29C731B6803339B08FB8296E096
:10507000BB899B00BB82BA8AFB7BC3F34113DBB2C3
:1050800079685B010B4403F29C731B689A4219D93F
:10509000FB7BC3F34113DBB27A685B01134403F279
:1050A0009C731B68BB8200233B613B7C43F0200365
:1050B0003B747B68DB687A68D26891693A69D2434D
:1050C0000A409A61FB7BC3F34113DBB27A685B0150
:1050D000134403F29C731B6803339B08FB82FB7B26
:1050E000C3F34113DBB27A680D335B01134403F55C
:1050F000BF631968FB7BC3F34113DBB21A46BB8A5B
:105100007868FBF781FAFB7BC3F34113DBB21846E7
:10511000FB7BC3F34113DBB27A680D335B011344AD
:1051200003F5BF631A68BB8A1A44796800F10D035E
:105130005B010B4403F5BF631A60FB7BC3F34113B0
:10514000DBB21846FB7BC3F34113DBB27A685B0129
:10515000134403F29C731A68BB8AD21A796843011C
:105160000B4403F29C731A60FB7BC3F34113DBB265
:105170001846FB7BC3F34113DBB27A685B0113442F
:1051800003F5F4631A68BB8A1A44796843010B4437
:1051900003F5F4631A607B68DB68DB6AFB60BB893C
:1051A000FA8A9A420CD2FB7BC3F34113DBB27A68D2
:1051B0005B01134403F29C731B68002B7FF458AF10
:1051C000012318461837BD4680BD00BF80B586B0A4
:1051D00000AF78607B685B691B69FB60FB7BC3F396
:1051E0004113DBB27A685B01134403F29C731B68C2
:1051F00003339B08FB8296E0BB899B00BB82BA8A83
:10520000FB7BC3F34113DBB279685B010B4403F210
:105210009C731B689A4219D9FB7BC3F34113DBB221
:105220007A685B01134403F29C731B68BB82002302
:105230003B61FB7C43F00403FB747B68DB687A68AA
:10524000D26891693A69D2430A409A61FB7BC3F301
:105250004113DBB27A685B01134403F29C731B6851
:1052600003339B08FB82FB7BC3F34113DBB27A68F9
:105270000D335B01134403F5BF631968FB7BC3F374
:105280004113DBB21A46BB8A7868FBF7BDF9FB7B9A
:10529000C3F34113DBB21846FB7BC3F34113DBB20C
:1052A0007A680D335B01134403F5BF631A68BB8A48
:1052B0001A44796800F10D035B010B4403F5BF63E9
:1052C0001A60FB7BC3F34113DBB21846FB7BC3F3CD
:1052D0004113DBB27A685B01134403F29C731A68D2
:1052E000BB8AD21A796843010B4403F29C731A609B
:1052F000FB7BC3F34113DBB21846FB7BC3F34113C3
:10530000DBB27A685B01134403F5F4631A68BB8A65
:105310001A44796843010B4403F5F4631A607B680F
:105320005B691B69FB60BB89FA8A9A420CD2FB7BE2
:10533000C3F34113DBB27A685B01134403F29C733D
:105340001B68002B7FF458AF012318461837BD4661
:1053500080BD00BF80B588B000AF78600023FB61DE
:105360000023BB610023FB6000237B6100233B61C2
:105370007B68D3F8CC301B687B617B68D3F8CC307A
:105380001B683B613B7C6FF382033B743B7C6FF398
:1053900041033B743B7C6FF3C3033B743B7C6FF373
:1053A00045133B743B7D03F00203DBB2002B0FD0AF
:1053B0007B68D3F88C395B68786898473B7C43F00E
:1053C00002033B740123FB61BB6943F00103BB6132
:1053D0003B7D03F00803DBB2002B4FD03B7C43F056
:1053E00008033B743B7D03F00403DBB2002B45D084
:1053F0007B680122C3F8F026BB7D03F00603DBB215
:10540000042B05D0BB7D03F00603DBB2022B31D1A8
:105410007B685B691B68FB60BB7D03F00603DBB246
:10542000042B15D17B685B6941F270725A603B7B3B
:1054300003F00303DBB2022B1FD07B68DB7A012B66
:1054400003D102217868FBF74BFD0123FB6114E0D7
:105450007B685B694BF680325A603B7B03F0030349
:10546000DBB2012B09D001217868FBF739FD01235C
:10547000FB6102E00123FB6100E000BF3B7D03F024
:105480002003DBB2002B07D03B7C43F020033B74AE
:10549000BB6943F00103BB61FB69002B02D0786854
:1054A000FBF72EFD7B68D3F8CC303A691A60BB69F4
:1054B00018462037BD4680BD80B598B000AF7860F3
:1054C00039607A683B6822339B0013449B68FB6514
:1054D000FB6D9B68BB65FB6DDB687B65BA6D7B6DA7
:1054E0001340BB657A683B6822339B0013449B687A
:1054F0001B683B6597F8583003F00403DBB2002BC0
:1055000021D00023FB6497F84C3043F0040387F864
:105510004C30FA6CFB6D9A607A683B6822339B00D2
:1055200013449B68DB68BB6497F8483043F0020380
:1055300087F848307A683B6822339B0013449B68A5
:10554000BA6CDA6032E297F8583003F02003DBB22D
:10555000002B0BD000237B6497F8443043F02003EA
:1055600087F844307A6CFB6D9A601FE297F85830E8
:1055700003F00103DBB2002B36D07A683B6803F5F9
:10558000DE739B00134400225A607A683B68223322
:105590009B0013449B68DB683B6497F8403043F002
:1055A000020387F840307A683B6822339B0013443B
:1055B0009B683A6CDA603B68DBB219467868FBF7A7
:1055C000C5FD0023FB6397F83C3043F0010387F8E7
:1055D0003C30FA6BFB6D9A607A683B68134403F2C7
:1055E0006C7301221A70E1E197F8583003F0080358
:1055F000DBB2002B2ED00023BB6397F8383043F08A
:10560000080387F83830BA6BFB6D9A607A683B689C
:1056100022339B0013449B68DB687B6397F834302C
:1056200043F0020387F834307A683B6822339B00EA
:1056300013449B687A6BDA603B68DBB21946786882
:10564000FBF784FD7A683B68134403F26C73052210
:105650001A70ABE197F8583003F01003DBB2002B5F
:1056600036D07A683B6803F5DE739B001344002252
:105670005A607A683B6822339B0013449B68DB685E
:105680003B6397F8303043F0020387F830307A6894
:105690003B6822339B0013449B683A6BDA603B689B
:1056A000DBB219467868FBF751FD0023FB6297F8DF
:1056B0002C3043F0100387F82C30FA6AFB6D9A60A7
:1056C0007A683B68134403F26C7303221A706DE12D
:1056D00097F8583023F07F03DBB2002B3DD07A6877
:1056E0003B6822339B0013449B68DB68BB6297F8DE
:1056F000283043F0020387F828307A683B68223369
:105700009B0013449B68BA6ADA603B68DBB21946B7
:105710007868FBF71BFD7A683B6803F5DE739B0036
:1057200013445B685A1C79683B6803F5DE739B0081
:105730000B445A607A683B68134403F26C73062288
:105740001A7000237B6297F8243043F0800387F8B7
:1057500024307A6AFB6D9A6028E197F8583003F09C
:105760004003DBB2002B34D07A683B6803F5DE736C
:105770009B00134400225A607A683B6822339B00E6
:1057800013449B68DB683B6297F8203043F00203C8
:1057900087F820307A683B6822339B0013449B686B
:1057A0003A6ADA603B68DBB219467868FBF7CEFCF0
:1057B0000023FB613B7F43F040033B77FA69FB6DBD
:1057C0009A607A683B68134403F26C7304221A707F
:1057D000ECE097F8593003F00403DBB2002B33D030
:1057E0007A683B6822339B0013449B68DB68BB618B
:1057F0003B7E43F002033B767A683B6822339B0092
:1058000013449B68BA69DA603B68DBB21946786872
:10581000FBF79CFC00237B613B7D43F010033B7551
:105820007A69FB6D9A607A683B68134403F26C7383
:1058300008221A7000233B617B7C43F004037B74D5
:105840003A69FB6D9A60B1E097F8583003F00203B3
:10585000DBB2002B00F0AA807A683B6822339B0001
:1058600013449B68DB68FB603B7B6FF341033B7336
:105870007A683B6822339B0013449B68FA68DA60BD
:105880007A683B68134403F26C731B78DBB2012B1C
:1058900020D17A683B68134403F27B7301221A70AB
:1058A00097F8523003F00C03DBB2082B75D17A68FD
:1058B0003B683D335B01134405331B7883F00103E0
:1058C000D9B27A683B683D335B01134405330A461D
:1058D0001A7062E07A683B68134403F26C731B78B9
:1058E000DBB2032B07D17A683B68134403F27B7366
:1058F00002221A7051E07A683B68134403F26C7319
:105900001B78DBB2042B16D17A683B685B01134429
:1059100003F5F2631B78012B05D13B68DBB2194616
:105920007868FBF72FFC7A683B68134403F27B73BB
:1059300002221A7031E07A683B68134403F26C73F8
:105940001B78DBB2052B07D17A683B68134403F25E
:105950007B7304221A7020E07A683B68134403F2D8
:105960006C731B78DBB2062B17D17A683B6803F5A2
:10597000DE739B0013445B68032B0ED17A683B688F
:10598000134403F27B7303221A707A683B6803F5B1
:10599000DE739B00134400225A600023BB603B7AF5
:1059A00043F002033B72BA68FB6D9A60012318460C
:1059B0006037BD4680BD00BF80B59CB000AF786049
:1059C00039607A683B6822339B0013449B68FB660E
:1059D000FB6E9B68BB66FB6EDB687B66BA6E7B6E9C
:1059E0001340BB667A683B6822339B0013449B6874
:1059F0001B683B6600237B6697F8683003F004035E
:105A0000DBB2002B21D00023BB6597F8583043F060
:105A1000040387F85830BA6DFB6E9A607A683B6869
:105A200022339B0013449B68DB687B6597F85430F6
:105A300043F0020387F854307A683B6822339B00B6
:105A400013449B687A6DDA6099E097F8683003F048
:105A50002003DBB2002B0BD000233B6597F85030BE
:105A600043F0200387F850303A6DFB6E9A6086E071
:105A700097F8683003F00803DBB2002B3FD07A6858
:105A80003B6822339B0013449B68DB68FB6497F8F8
:105A90004C3043F0020387F84C307A683B6822337D
:105AA0009B0013449B68FA6CDA607A683B68134485
:105AB00003F26C7305221A700023BB6497F8483018
:105AC00043F0100387F84830BA6CFB6E9A600023ED
:105AD0007B6497F8443043F0080387F844307A6CCD
:105AE000FB6E9A6097F868306FF3041387F868309C
:105AF0003B68DBB219467868FBF728FB3FE097F874
:105B0000693003F00403DBB2002B38D07A683B68BD
