:020000040800F2
:100000000000022045E700087D0600088106000880
:1000100085060008890600088D060008000000001B
:100020000000000000000000000000009106000831
:100030009506000800000000990600089D060008CB
:1000400095E7000895E7000895E7000895E70008A0
:1000500095E7000895E70008A9060008A106000832
:1000600095E7000895E7000895E7000895E7000880
:1000700095E7000895E7000895E7000895E7000870
:1000800095E7000895E7000895E7000895E7000860
:1000900095E7000895E7000895E7000895E7000850
:1000A00095E7000895E7000895E7000895E7000840
:1000B000B106000895E7000895E7000895E70008F5
:1000C00095E7000895E7000895E7000895E7000820
:1000D00095E7000895E7000895E7000895E7000810
:1000E00095E7000895E7000895E7000895E7000800
:1000F00095E7000895E7000895E70008D90C000887
:1001000095E7000895E7000895E7000895E70008DF
:1001100095E7000895E7000895E7000895E70008CF
:1001200095E7000895E7000895E7000895E70008BF
:1001300095E7000895E7000895E7000895E70008AF
:1001400095E7000895E7000895E70008B506000860
:1001500095E7000895E7000895E7000895E700088F
:1001600095E7000895E7000895E7000895E700087F
:1001700095E7000895E7000895E7000895E700086F
:0801800095E7000895E700086F
:10018800F0B5304883B041B34FF4005108F0CAFECF
:100198002C482D4E4FF4804108F0C6FE2B4D2C4CB8
:1001A800296820682B4F00F031FF2A68D4F800E056
:1001B8000146C1EB020C00238E44386800932A469E
:1001C80021463346C5F800C0C4F800E000F07CFFC3
:1001D800B0B102300CD003B0F0BD4FF4804108F04C
:1001E800A1FE18481C4E4FF4005108F09DFED5E7BB
:1001F8001A4B1969304603B0BDE8F04000F05CBD09
:10020800164D3868294600F017FF6B68012B06D099
:100218002969304603B0BDE8F04000F04DBD2B69B8
:10022800002B4FEA43010BDB7418621820881080FA
:1002380034F802095080013B581CA2F10402F5D1A0
:100248002961D7E7000C0240480900208CD400201F
:1002580090D4002000AE00204829002094D400202B
:1002680070B582B002AB002203F8052D254C01922F
:1002780006460D4620461946012201AB06F0AEFEA1
:1002880010B9019B012B02D0012002B070BD013EC4
:10029800772E10D8204601AB2946324606F09EFE3E
:1002A80010B1019B9E42EFD19DF8030068B101286F
:1002B8000DD00020E9E7A1682046314407F0BCF8DA
:1002C800003018BF012002B070BDA855DDE7022E2E
:1002D8000ED92B78FF2B0FD000230022E95CA954FC
:1002E80002339E4202F10102F8D80020A854CCE75C
:1002F800002EF1D13246F8E76B78FE2BECD10223C1
:10030800EBE700BFDCA9002010B52E2104460EF053
:1003180069FB18B1A04201D0013010BD004810BDE2
:10032800986C01082DE9F04FADF50D7DB44B139392
:10033800B4494FF4807315A8149307F04DF90028B9
:1003480040F09780B04CDFF8D4922546CA4615A8ED
:100358000DA907F079F9002840F08B809DF83D3011
:10036800002B00F086802E2BF1D0139B1A780AB947
:100378000DF13D039DF83C20D006E8D4A349A14ADD
:100388005AA80EF0AFFA5AA8FFF7BEFF0146A048D8
:100398000DF01EF90028DAD19E4E9F4F9F48376016
:1003A8004FF400535AA90122236006F05FFD8646E8
:1003B8000028CCD104AB07A998488DF878E00A2228
:1003C8008DF8F0E0CDF810E006F008FE10B9049BB7
:1003D8000A2B52D00DF128088F4990484FF400524B
:1003E800434606F0FBFD00F00BFE8D4B0221186022
:1003F800062240F20F10002300F0BEFAAF2000F0F2
:10040800ADFA8848002100F0EDFB2268B2F5805F64
:10041800FBDA2A68316880480DF040F82B682968B3
:100428007E483760C3F5005B5A463944434606F0B8
:10043800D5FDD8F800307C494FF400529B452A601E
:1004480003D810B90B69DA07DFD500F0F5FB0622EF
:100458000221002340F20F1000F08EFA002000F075
:100468007DFA6E4806F0E0FF6F4A1369DB07FCD49B
:100478006DE70DF50D7DBDE8F08F9DF81C30492B1B
:1004880007D002900DF128080299644806F0D4FFBD
:10049800A2E79DF81D30442BF3D19DF81E30332B75
:1004A800EFD19DF823309DF822009DF825209DF876
:1004B80024109DF81FE0CDF80CE003F07F039B03A8
:1004C80000F07F0043EA405002F07F029DF821309F
:1004D800024301F07F0142EAC111029159060DF170
:1004E800280852D44FF0020B04AB4C4841460A226C
:1004F80006F074FD034600287FF46EAF049A0A2ABA
:100508007FF46AAF98F80020002ABDD040464749DA
:10051800019303220EF00CFA019B0028B4D0D8F8FE
:100528000020039805928DF8183042460BA903283D
:1005380026D0042805D192F804E00EF07F0E0EEBC9
:10054800C31301328A42F2D105A8394901930DF04B
:100558003FF8019B00284CD005A8364901930DF0BF
:1005680037F8019B002836D118463CA9FFF778FEDA
:10057800002889D10BF1FF3BBBF1000FB4D183E711
:1005880092F804E00EEB0323DBE74146042204ABB8
:10059800224806F023FD98F8010098F800E098F842
:1005A800032098F80210DAF8083000F07F00800382
:1005B8000EF07F0E40EA4E5002F07F02024301F037
:1005C8007F0142EAC111043B1944144806F034FF84
:1005D800002887D000E7D9F808101048194406F019
:1005E8002BFF00287FF4F8AEBBF1000F7FF47CAF3F
:1005F8004AE718461EA9FFF733FE0028BAD043E79A
:1006080048490020986C01088CD40020846C0108AB
:100618008C6C010890D40020F8B30020DCA90020DD
:1006280000AE00208901000800000240906C01081B
:10063800946C01089C6C0108054B1A6812B11A6881
:10064800013A1A60034B1A6801321A60704700BFFA
:10065800D8A9002004AE002082B0044A0190019B72
:1006680013601368002BFCD102B07047D8A9002092
:10067800704700BF704700BFFEE700BFFEE700BF3E
:10068800FEE700BFFEE700BF704700BF704700BF2E
:10069800704700BFFFF7D0BF022008F021BB00BFA2
:1006A800012008F01DBB00BF00F084BC01480CF01D
:1006B8006FBE00BF08AE0020394A3A4BD2F8881006
:1006C800394841F47001C2F888101968002241F0D5
:1006D800010119609A60196821F0847121F4803150
:1006E80019605860196882B021F480211960DA60B5
:1006F800009201921A6842F480321A601A4603E0A6
:10070800009BB3F5A06F09D0136803F4003301937D
:10071800009B01330093019B002BF1D0214B1B68F8
:1007280013F4003318BF01230193019B012B05D05B
:100738001B4B4FF000629A6002B07047194B1B4A7E
:10074800186C1B4940F080501864106840F48040D1
:1007580010609A689A609A6842F400429A609A68AF
:1007680042F4A0529A6059601A6842F080721A6086
:1007780019460B680B4A9B01FBD50E4B40F20561ED
:100788001960936823F003039360936843F00203AE
:100798009360936803F00C03082BFAD1C8E700BFF5
:1007A80000ED00E0003802401030002400700040E6
:1007B80008544007003C0240154B9A6802F00C02AE
:1007C800042A23D0082A09D0124A1149124B8968F1
:1007D800C1F30311595CCA401A61704758685968D7
:1007E8005B6842024CBF0D4A0A4A01F03F01C3F35D
:1007F8008813B2FBF1F202FB03F2054B5B68C3F30B
:10080800014301335B00B2FBF3F2DEE7034ADCE7A6
:10081800003802400024F4000000002040787D01E8
:100828000020704700207047012070470020704763
:100838004FF0FF30704700BF00207047064B186824
:1008480038B101446A46914294BF19604FF0FF30B5
:10085800704702481860F4E7504A0020F4E100208D
:1008680070B5161E0EDD0C468D19074814F8011BCD
:1008780009F078FB0448402109F038FC0028F9D039
:10088800AC42F2D1304670BD0044004010B4134C65
:10089800238B124A9B07FBD413889BB243F48073C3
:1008A8001380938A0D4CDB07FBD594232382A38AFC
:1008B8000A4A9B07FBD5138B1082938A07481C06AC
:1008C800FBD50182838A054A5B07FBD513885DF84F
:1008D800044B9BB243F400731380704700540040EC
:1008E8000E4A0F4B0F4910B5116018680E49506039
:1008F80091605968D1600421516110681C69002118
:1009080040F00100106059609968012251409960D7
:100918001A7314B199685869A04710BDB8600240AD
:10092800544A0020502C01000C3C004008B502201D
:100938009E21FFF7ABFF024B4FF460629A8308BD1C
:10094800003C004008B502200121FFF79FFF024B41
:1009580000229A8308BD00BF003C004010B5193042
:10096800C4B221462020FFF791FF21462120BDE88F
:100978001040FFF78BBF00BF2DE9F04FDFF840E2D2
:10098800DFF82CA20746012087B0002488460146DC
:10099800CEF80440CEF81040CEF80040CEF814400F
:1009A800CEF8084016468EF80C401D4608F02AF886
:1009B8000220012108F026F80420012108F022F87D
:1009C8000820012108F01EF84FF40010012108F05A
:1009D80019F84FF4001001214FF0100B08F036F809
:1009E8004FF40040012108F031F84FF002090123CB
:1009F80050460DEB0B018DF8143001938DF816401D
:100A08008DF81740CDF810B08DF8159008F0FAF968
:100A1800019B64488DF816304FF410720DEB0B01F2
:100A280004928DF815908DF814908DF8174008F001
:100A3800E9F95C480621042208F084FA042259489E
:100A4800092108F07FFA4FF4A4530DEB0B01564827
:100A580004938DF815908DF814908DF816408DF844
:100A6800174008F0CFF950480721062208F06AFA23
:100A78004D480A21062208F065FA06224A480C2148
:100A880008F060FA0DEB0B014848CDF810B08DF86E
:100A980015908DF814908DF816408DF8174008F0D1
:100AA800B1F906224148042108F04CFAAAF81AB014
:100AB8000394039A44F6FE739A4206DC00BF039C33
:100AC80001340394039C9C42F8DD394B10221A83AD
:100AD8004FF40010012107F0F5FF4FF4001000213A
:100AE80007F0F0FF334B40F201424FF0D20E2A20BC
:100AF80048F233012B24988019810220A3F81CE0C6
:100B080001211C841A80FFF7C1FE0420AF21FFF7E2
:100B1800BDFE05208121FFF7B9FE04210620FFF75D
:100B2800B5FEFF20FFF71AFF02209E21FFF7AEFE59
:100B38000A200021FFF7AAFE0E200421FFF7A6FED7
:100B480027200021FFF7A2FE1F200F21FFF79EFE9E
:100B58001A200A21FFF79AFE1B200A21FFF796FEAA
:100B6800154B164800229A838368BF0123F40003BB
:100B780047EA08778360C0F88470036843F08063AD
:100B8800036001680B01FCD546F400760A4B46EA7F
:100B98000525ADB24FF460621D849A8307B0BDE8A5
:100BA800F08F00BF0004024000080240000002402D
:100BB800000C024000540040003C00400038024055
:100BC800544A0020034A138902499B07FBD580B287
:100BD80088817047003C0040014B80B29881704783
:100BE800003C0040104AF8B5136823F0010304469E
:100BF80013600846136813F00103FBD10B4A0C4E2F
:100C08000C4D137340214FF40047776086F82F137B
:100C1800A988146189B241F002015061A9809360EA
:100C28000CB19168A047F8BDB8600240544A002052
:100C380000E100E0003C00400D4A136823F0010386
:100C480010B41360136813F00103FBD109490A4A71
:100C58000B7394880B6124F0020308485DF8044B79
:100C68001B041B0C4FF400419380C0F8841070479C
:100C7800B8600240544A0020003C004000E100E017
:100C88000B4B5A6810B50AB1002010BD094A4FF441
:100C98000044C2F88440586019601B7B2BB1054B97
:100CA8004FF400425A60012010BDFFF719FEF6E725
:100CB800544A002000E100E038B505460C4600E043
:100CC80030BF28462146FFF7DBFF0028F8D038BDA3
:100CD800054B064AD96841F00061D96053680BB1E9
:100CE800FFF7FEBD1373704700600240544A0020AE
:100CF800704700BF704700BF704700BF704700BF14
:100D0800704700BF704700BF704700BF704700BF03
:100D1800704700BF704700BF704700BF0120704791
:100D2800704700BF704700BF02484FF4804108F089
:100D3800F9B800BF000C024010B5074C4FF48041D1
:100D4800204608F0F1F820464FF4805108F0ECF8FE
:100D5800024B00221A6010BD000C0240484A0020D5
:100D680010B50020094906F071F8044650B9084B3F
:100D780008481A684FF4805101321A6008F0D2F816
:100D8800204610BD4FF0FF3010BD00BF1CD9002019
:100D9800484A0020000C024008B54FF4FA7000F0F1
:100DA80005F9BDE80840FFF7DBBF00BF30B5224CAE
:100DB800034685B00D464FF080400021236008F0BF
:100DC80061FA4FF080400121002208F081FE022DD7
:100DD8002FD0012D04BF42F6DF63029300230522C2
:100DE8004FF0804001A9ADF80420ADF80C30ADF803
:100DF800063008F097F94FF08040012108F08AFE8C
:100E08004FF08040012108F017FA01210A464FF0FF
:100E1800804008F05DFE4FF08040012108F032FA72
:100E280021680029FCD14FF0804008F02BFA05B06A
:100E380030BD0B230293D1E7704A0020704700BFF2
:100E4800F0B501202E4D85B0014607F0DBFD0026E8
:100E580002230327284602A94FF4D0528DF80C30FC
:100E680002928DF80D708DF80E608DF80F6007F006
:100E7800C9FF284609210A2208F064F828460B21F0
:100E88000A2208F05FF828460A220C2108F05AF8CE
:100E980001244FF4806302A9284602938DF80D704F
:100EA8008DF80E408DF80F4007F0ACFF0A210A4676
:100EB800284608F047F821464FF4804007F0D2FD55
:100EC8002146802007F0AAFD31464FF0006007F068
:100ED8002FFC4FF4A06007F0E5FB1C2301A88DF858
:100EE80004308DF805608DF806408DF8074007F04E
:100EF800E3FB2046214607F0A9FD05B0F0BD00BF81
:100F08000000024010B54FF4C06082B007F0CAFB81
:100F1800012401A843238DF804308DF805408DF88D
:100F280006408DF8074007F0C7FB1722022301A8E7
:100F38008DF805408DF807408DF804208DF80630AF
:100F480007F0BAFB02B010BD034811B1012107F048
:100F5800EBBF012107F0E6BF0008024030B5104D95
:100F680083B00420012107F04DFD01240023022253
:100F7800284669468DF805208DF806308DF807302B
:100F880000948DF8044007F03DFF2846214607F0FD
:100F9800C9FF2146C820FFF709FF03B030BD00BFD5
:100FA800000802400221FFF701BF00BF0121FFF73F
:100FB800FDBE00BF08B54FF08040012108F09EFD3E
:100FC80000B908BD01214FF0804008F0A3FD064B91
:100FD800196819B11A68013A1A6008BD4FF08040C3
:100FE800BDE8084008F04EB9704A0020B86E010804
:100FF800000000204809002048090020F4E10020F2
:1010080000F058BD08B100F0BBBD70470139002998
:101018000FDD431E002002E00130884209D013F89A
:10102800012FFF2AF8D15A7802F0E002E02AF3D122
:1010380070474FF0FF30704770B418B1D0F8D03710
:10104800032B09D000230B604B608B60CB600B61D6
:101058004B618B6170BC704790F8D427D0F8B857B3
:101068000B4ED0F8BC47D0F8C0070D6002EB420524
:1010780006EB45068A61B6F904604C60102506FB4C
:1010880004F2CD600A6188604B6170BC704700BF94
:101098005436010838B50D46044688B1114600F0AB
:1010A800FFFA013009D0D4F8D037032B05D12046F8
:1010B8002946FFF7C1FF002038BD6FF0050038BD95
:1010C8006FF0040038BD00BF2DE9F04F89B08946A4
:1010D800904605930446002800F03A82096800F01B
:1010E800DFFAB0F1000AC0F20D81D9F800105144BE
:1010F800C9F80010204600F0C3FB00280390C0F296
:101108005081D9F800200399DDF80CB0D8F80030E8
:1011180011440491D344CBEB0301049AC9F800208D
:10112800C8F80010D4F8B837002B49D1D4F8B03734
:10113800002B48D10123C4F8B037D8F80000049B2D
:10114800451E002DCBEB030B1E461EDD314600234A
:1011580004E00133AB4201F1010116D0F25CFF2A31
:101168008C46F6D14A7802F0E007E02FF1D19BF8DF
:101178000050FF2D00F0CB806FF00202D21A10440D
:10118800451E002D01F10306E0DC4FF0FF33C4F8E3
:10119800B437D4F8C437D4F8C827D4F8BC1702FB3E
:1011A80003F301FB03F1002907DD059B002203EB94
:1011B800410123F8022B8B42FBD16FF00200A3E020
:1011C800D4F8B0374BB1D4F8B457204600F05CFAE5
:1011D8002844C4F8CC07D8F80010129A002A00F066
:1011E800C380D4F8D837C4F8CC17002B76D100299F
:1011F80074DDC4F8DC17D8F80030D9F800705B1A31
:101208003944C9F80010C8F80030D4F8C437D4F805
:10121800DC27002083424FEAC20B079074DD04F2FA
:10122800DC7604968246D4F8BC37002B40F32E8136
:10123800DDF81090079ECDF80CA00025CA46A04600
:10124800B14617E0DC4530DC039E0195009600F0BE
:10125800BDFF002805F10105A4EBC0040744C0F256
:101268004681079BD8F8BC27E41AAA42A34440F356
:101278000A819946039E009639465B4607AA01955E
:10128800404602F0D1FB079C5AF8043F0646C9EBDA
:10129800C60CA4443744CCEB0B0B002ECCEB030C50
:1012A80007AA404639466346CCDAD8F8C437D8F896
:1012B800C827D8F8BC1702FB03F301FB03F1002988
:1012C80007DD059B002203EB410123F8022B8B422B
:1012D800FBD16FF0070009B0BDE8F08FD4F8C43730
:1012E800D4F8C827D4F8BC1702FB03F301FB03F1B9
:1012F800002907DD059B002203EB410123F8022B9F
:101308008B42FBD16FF0050009B0BDE8F08F9BF868
:101318000150AA427FF430AF9BF802208D785540E7
:1013280015F0FC0F7FF428AF9307049E48BF01F126
:10133800FF3CC6EB0C05002DC4F8B457FFF629AFE7
:10134800039ED4F8C017D4F8C437D4F8C8270AEBDA
:101358000500304401FB00F1C90002FB03F391FBD7
:10136800F3F3C4F8B83730E7D4F8CC378B4231DD23
:10137800D4F8C437D4F8C827D4F8BC1702FB03F351
:1013880001FB03F1002907DD059B129A03EB4101DC
:1013980023F8022B8B42FBD14FF0FF3009B0BDE898
:1013A800F08FD4F8C437D4F8C827D4F8BC1702FB98
:1013B80003F301FB03F1002907DD059B002203EB82
:1013C800410123F8022B8B42FBD16FF0060009B0D4
:1013D800BDE8F08FD4F8DC17D4F8D827914223DB86
:1013E800891A214404F11C071C3138460DF0F8F91C
:1013F800D4F8D837D9F80010D4F8CC27E0181C3026
:101408000CF04CF8D4F8CC37D4F8D827D9F8001019
:101418001A44C4F8DC27D8F800201944D31AC9F8AC
:101428000010C8F80030F0E660181A46D9F8001025
:101438001C300CF033F8D4F8CC37D4F8DC27D9F8C2
:1014480000101A44C4F8DC27D8F800201944D31A2D
:10145800C9F80010C8F80030D4F8C437D4F8C82741
:10146800D4F8BC1702FB03F301FB03F1002907DDE5
:10147800059B129A03EB410123F8022B8B42FBD107
:101488006FF0010040E7DDF80CA0444620465146C5
:1014980000F078FB00285EDBD4F8BC37002BC8BF0F
:1014A800002504DC3AE0D4F8BC37AB4236DD2A46E6
:1014B8002046514601F090FB002805F10105F2DABB
:1014C800D4F8C437D4F8C827D4F8BC1702FB03F300
:1014D80001FB03F1002907DD059B002203EB410115
:1014E80023F8022B8B42FBD16FF00A000CE7D8F8E7
:1014F800C437D8F8C827D8F8BC1702FB03F301FB98
:1015080003F1002907DD059B002203EB410123F8C5
:10151800022B8B42FBD16FF00800F5E6D4F8C82700
:10152800059E02FB0AF202FB03F106EB410120468D
:1015380003F0AEF80028D4F8C43723DB049E0AF180
:10154800010A0836534504963FF76DAE0020DBE6E6
:101558006FF00400D8E6D4F8C437D4F8C817D4F824
:10156800BC2701FB03F302FB03F2002A07DD059BFE
:10157800002103EB420223F8021B9342FBD16FF0D8
:101588000900C1E6D4F8C817D4F8BC2701FB03F357
:1015980002FB03F2002A07DD059B002103EB420250
:1015A80023F8021B9342FBD16FF00B00ACE600BF9F
:1015B80000230260C1604360836070474268F0B4F2
:1015C800846801F01F01034602FA01F5C1F11F000A
:1015D800611AC24000295D604FEA5200996001DB40
:1015E800F0BC7047DF68032FC1F1000120DC002444
:1015F8005C60002F3BD01A68D61901321A6012F8C5
:10160800015C2C432402B2425C60F6D1C7F10302AC
:10161800D2009440C1F1200224FA02F28C40002545
:10162800C1EBC707DD6010439F605C60F0BC70478A
:101638001A681446551C1D6014F8025B1C602C06C1
:101648005C605678D51C44EA06445C601D60967858
:10165800151D44EA06245C601D60D2783D1F2243B4
:10166800C1F1200702FA01F4DD60FA40DBE73C46ED
:101678003A46D4E710B404688368611AC3EBC10022
:10168800801A5DF8044B704730B1036823B158697C
:10169800003018BF012070474FF0FF30704700BF7F
:1016A8002DE9F00F84B0002800F0D8800368002BE3
:1016B80000F0D4800A78FF2A40F0D0804A7802F0FF
:1016C800E004E02C40F0CA80D20894071ABF02F068
:1016D800010282F0010202221A7091F80180C8F317
:1016E8004108C8F104045C6091F801C000940CF052
:1016F800010C8CF0010CC3F808C08D782D09DD6051
:101708008C78C4F381041C618E78C6F340065E6150
:1017180001968E7806F001069E61CE78B6091E778E
:1017280091F80390C9F30119C3F8209091F8039038
:10173800C9F3C009C3F8249091F80390C9F380094C
:10174800C3F8289091F80390032C09F00309C3F813
:101758002C9000F08380009F042F7FD00F2D7DD028
:101768004FF0DE0A0AFB02FA4FF04A0BDFF800914D
:101778000BFB04AAD144012EC3F8349005D04FF0D6
:101788000009032EC3F8209065D00227039757005D
:10179800C8F1030BB8469044DFF8D890029708EBDD
:1017A8000B0A039FC0F8BC77009F39F91AA0C0F84C
:1017B800D077002ADFF8C09080F8D42708EB040718
:1017C80014BF012202229AFBF2FA59F82770C0F8D6
:1017D800C8A7C0F8C427C0F8C07745B3C8EB081835
:1017E800C4EB0414CBEB0B1204EB08079044029AE9
:1017F800DFF888901C4C032E18BF01322F44164680
:1018080045441A4A39F9177032F9152034F9164047
:10181800C2EB42153C1B02EB8502043C019DA4EB84
:101828004C042C44D200C0F8CC47C0F8B827BCF10F
:10183800000F06D10420C3F830C004B0BDE8F00F93
:10184800704708794A7942EA002206201A6304B0F0
:10185800BDE8F00F70470127039798E74FF0FF3076
:1018680004B0BDE8F00F704740360108683601083B
:1018780094320108543601087837010830350108D8
:101888002DE9F04F804687B0002800F010810768E6
:10189800002F00F00C8142680092002A00F00781B6
:1018A8003E783B7F0291002E40F0E580032B02AD8D
:1018B80014BF202311230921284601930593039679
:1018C8000496FFF77BFE3B7F009A032B106014BF42
:1018D800032105212846FFF771FED8F8BC37009A86
:1018E800002B506010DD009B1C1D04F110092846D8
:1018F8000121FFF763FE44F8040F4C45F7D1D8F8EF
:10190800BC370136B342F0DCD8F8C427002A40F3CC
:10191800A3804FF0000ADDF800B0D8F8BC37D146F4
:10192800002B40F392805C46002644E002212846C2
:10193800FFF744FE0121E0632846FFF73FFE05213B
:1019480020642846FFF73AFE052160642846FFF721
:1019580035FE0321A064C4F84C902846FFF72EFEFC
:10196800032120652846FFF729FE032160652846E4
:10197800FFF724FEE36BA065002B5ED1E26DE36206
:10198800A3626363C2F1140323663B78002B4FD034
:101998000020606601212846FFF710FE0121A0669D
:1019A8002846FFF70BFEE066D8F8BC370136B3428D
:1019B80004F1480447DD0C212846FFF7FFFD092103
:1019C800A0622846FFF7FAFD0821E0622846FFF7E3
:1019D800F5FD3B782063002B14BF0921042128461C
:1019E800FFF7ECFD012160632846FFF7E7FDA063E0
:1019F80000289BD1E063206405212846FFF7DEFD1F
:101A0800052160642846FFF7D9FD0521A064284612
:101A1800FFF7D4FD0421E0642846FFF7CFFD03213A
:101A2800E0652846FFF7CAFD3B782066002BAFD15A
:101A380028460121FFF7C2FDABE7022B14D007238C
:101A4800E3650D23A0E7D8F8C4270AF1010A524537
:101A58000BF1900B3FF764AF009A01981368C8F830
:101A6800D83707B0BDE8F08F236C002BE7D10822E8
:101A7800E2650C2388E7032B14BF11230923019384
:101A880002AD0023019A0592082128460393049386
:101A9800FFF794FD3B7F009A032B106014BF0221CF
:101AA80001212846FFF78AFD009B58602CE74FF07C
:101AB800FF30D6E72749284B284A70B401F68C2016
:101AC8000B6101F5FE6601F6280501F5176403F5BB
:101AD80052734B618A610E604D608C60C86001F280
:101AE800EF73002201F6270103F8012F8B42FBD187
:101AF8001B4B002103F5A47203F8011F9342FBD18D
:101B0800184B002103F58E7203F8011F9342FBD195
:101B1800154B1649002203F8012F8B42FBD1144BB9
:101B2800002103F5527203F8011F9342FBD1114BB8
:101B3800002103F5D95203F8011F9342FBD10E4B44
:101B48000E49002203F8012F8B42FBD1014870BCDB
:101B5800704700BF744A0020106700207885002075
:101B68009B520020E3530020FF5400200F67002001
:101B78000F670020576A0020778500207BA7002088
:101B8800704700BF2DE9F04F8FB00691002800F094
:101B980029810768002F00F0258146680996002EE4
:101BA80000F0208186680896002E00F01B81C4682A
:101BB800002C00F0178106690796002E00F01281AC
:101BC800D0F8BC27002306F546769A420D930C936D
:101BD8000A9636DD069EDDF828800B9406EBC602D1
:101BE800099E06EB0212069EC6EB461A089E9B4605
:101BF80006EB8A0A434602F1280CA14604F59056E2
:101C0800B8465446654682461F4600950194029799
:101C1800484632464346079900F0B8F9B060DAF80A
:101C2800BC370BF1010B5B4505F1480504F13E0497
:101C380007F1180709F5106906F10406E5DC0B9CA5
:101C48004746386A002869D041F20823E358002B38
:101C580040F3858041F20C23E358002B7FDD4108D7
:101C680000F0C380C2070CD5079ED6F83033002B8E
:101C780040F0AD80D6F844237B6B013233F9121063
:101C880008E004F5905241F204231168E3589942A0
:101C9800B8BF19460CAD20462A4602F0B5F9386A95
:101CA800C3071FD504F590523B781168069E002B98
:101CB80037D106EBC603099E06EB03130A9E00966E
:101CC800069E40100190C6EB461B089ED3F888304C
:101CD800029306EB8B0320463E3303953A4602F007
:101CE800C5F9386AD0B104F5905141F20423086867
:101CF800E2580C9E0D9DB6FA86F641F2082C41F288
:101D08000C279042A8BF0246013EB5FA85F5013D71
:101D180044F80C60E5510A60E25000200FB0BDE8BD
:101D2800F08F06EBC602099E06EB0212089E06F12A
:101D3800F8030A9E0096069E01934010C6EB461BC8
:101D4800089E0290D2F88820039206EB8B03204667
:101D58003E3304953A4602F023FB386AC2E704F59D
:101D680090531D68002D15DD214904EB8505234698
:101D78006FF0404603E0AB4243F8041C0AD053F826
:101D8800042B8A42F7DBB2F1804FA8BF43F8046CFA
:101D9800AB42F4D141F20423E558002D7FF75FAF41
:101DA80004F51063124903EB85056FF0404604E023
:101DB80043F8041CAB423FF452AF53F8042B8A4259
:101DC800F6DBB2F1804FA8BF43F8046CF2E7079E38
:101DD8007B6BD6F8402303EB4203B3F9301001EBD9
:101DE800410157E74FF0FF3098E701200CAD59E764
:101DF800010000C02DE9F00FDFF884B103F00304FF
:101E08000BF128099B1009EB84191F2BA8BF1F236E
:101E18000BEB840688B01B2BD8BFDF1CD6F82861D3
:101E2800D9F808400196D4BF27EAE7771F27054667
:101E3800D9F80460D9F80C00CDF808903C413E412F
:101E4800069440FA07F75C4200200596079704902D
:101E580003940FE008AE06EB870757F8106C002CC8
:101E680001F1040140EA0600B8BF7642013A41F8A0
:101E7800046C7BD055F8044B24F00047032FE9DDB0
:101E88000F2F0BDCDDF80880002B58F82760B6BF51
:101E9800DDF80C901E4106FA09F6E0E73F2F0DDC4D
:101EA8000BEB8707DDF804C0D7F8F86086FB0C7CDD
:101EB800DE1E002E50DB4CFA06F6D0E77E04B6F1A3
:101EC800006FBABF7E054FF004084FF00008B6F166
:101ED800005FBCBFB60008F10208DFF8A8C0DFF851
:101EE800A890264FB6F1804FBCBF760008F10108D4
:101EF8006645DFF88CC0C8BF4F460CF11409C8BF4F
:101F0800CC46B14687FB09A9DCF804704F44B146BA
:101F180087FB09A9DCF808704F44B14687FB09A97B
:101F2800DCF80C704F4487FB06960BEB880BDCF84B
:101F380010C0DBF8F871664486FB07C7FF00DDF8C0
:101F480004C087FB0C6C0E4E06EB8808B346D8F825
:101F580018629E1B002EAEDA76426FF0004848FAEF
:101F680006F7BC4506DD6FF0004678E708B0BDE827
:101F7800F00F70470CFA06F671E700BFA9BDA0295B
:101F88009C3701089979825A632185102DE9F04F11
:101F98008FB0189D06906C690591022C09920893E0
:101FA80000F0FE800D2404944FF01608189D089C3C
:101FB8002A6C236AAD6807955B0802F101024FF0AD
:101FC80000014FEA420218BF023D03920B9118BF6D
:101FD8000795B8F1000F00F0F380079CCDF8088052
:101FE8004FF00009C4F1D00A4D464F46CDF804A081
:101FF800DFF8D4B1DDF82480CA46DDF8209003E08C
:10200800029DAC4228D02546189CD9F83430E26BA2
:10201800199833F915106C1C204433F9146010F822
:10202800013C761A0BEB04000AB110F8012C069952
:10203800134401EB8700039A019902FB031332460C
:102048000146FFF7D7FE37444AEA000A00B10B956C
:10205800D8F800309F42D3DB0B9AD146049D1A9CD6
:1020680000230B2D62612360E360A360636023613A
:1020780071DC079D049C0B94C5F1D00504EB440367
:102088000C940D940295199C059DDDF810A00197FC
:102098001C44043D00940795089C189F636B03EB50
:1020A8004A020AF10101B2F92E30B2F93080019AE0
:1020B8000491C3EB0808069B002603EB820B4B46F2
:1020C8004FEA8804D14635469A46009BBA6A029977
:1020D8002B4401EBC202DB7D039901FB0323059925
:1020E8000BEB060031444246FFF784FE04372644D2
:1020F8004AEA000A10B10BAA42F825900135032DCF
:10210800E3D1019D08EB48031D44B8F1000FD14607
:10211800019513DD079B1A464FEAC808224453F875
:10212800041FCBF800101959CBF8041053F8081005
:10213800CBF8081093420BF10C0BF0D1099C019DD0
:1021480023689D422ADA009D049C03350D2C0095D6
:1021580007D0A246A0E7B9FA89F001380FB0BDE868
:10216800F08F019F099C189D27600BA90EC9A869CB
:102178001A9C002814BF0220012061608A42A8BF6F
:10218800114620609942ACBF21612361B9FA89F0F8
:102198000138A260E3600FB0BDE8F08F2F46E1E799
:1021A800AB6953B1089C23780325002B14BF4FF06B
:1021B80006084FF008080495F8E604939846F5E6F3
:1021C8004246C146474649E7D43901082DE9F00F90
:1021D80096B01191089204931E9C002800F0B680D6
:1021E8000168002900F0B2804368002B00F0AE803F
:1021F8008268002A00F0AA80C0680B90002800F0CE
:10220800A58004EBC4041F98049D22011F9CC000F4
:102218000F90204402EBC00228329A18002D079232
:10222800C0F294801369002B40F03D82079B496BF4
:102238005A6B9B6B01321344013331F9120031F9A7
:102248001340079D0B9E1F996B68089D06EB810242
:1022580002F590525B00B3F5107FA8BF4FF41073DE
:10226800099313609842A8BF18461F9E0F9B1092AF
:1022780033440B9E2A68099DAC42D4BF149414952C
:102288000021059112910C4606EB03231199139036
:1022980015950D930391079B059D0D9E001B2B44DF
:1022A800002806EB8404DB6929DD049900294DDB4D
:1022B800BA4DBB4E05EBC30152420979019112F0A8
:1022C800070256F8231055F83330069344D0039B81
:1022D800019E1D78C2F1200305FA03F3039D05F161
:1022E8000109002E3ED1421E520804F1080303EBF7
:1022F800C20300202060606008349C42F9D10023AA
:1023080004998B4222DC089A059C1168049D039E5F
:1023180008981944043401F00702ED1A06EBE106A7
:102328000C2C059404950396026000F03D8112ABD5
:10233800234412AD58686459ADE7DDF808B0049835
:10234800C8EB02035B44C31A002BD9DA4FF0FF3005
:1023580016B0BDE8F00F7047019EDDF80C901346EB
:10236800002EC0D08F4D049E05EB410A019D012D22
:10237800C2EB060B00F02382019DA91EC9B20129F8
:10238800E4D80699069D01310A91C5F12005594600
:102398005646D3464FF000080E958A46BAF10F0FFD
:1023A8004EDD99F800C099F80150C2F11807C2F142
:1023B80010010CFA07F705FA01F110320F43AAF1E0
:1023C800100A0A2A09F1020943EA0703C8BFCDF82F
:1023D80008A007DCE2E7521B0A2A03FA05F306EB1A
:1023E800410628DD358805F00F05C5F1200123FADF
:1023F80001F1013136F811100F0BECD0C1F30315C0
:102408000F2DC7EB020203FA07F3C1F3032142D0F1
:10241800002D43D10F294BD000294CD1424595DBE3
:1024280026460238002846F8085B616085DD0A2ADE
:1024380034465E46D6DCDDF808A0BAF10F0FB0DCF2
:102448000AEB0201002981DDBAF1000F14DD99F8C9
:102458000070C2F1180507FA05F5BAF1080F43EA4A
:10246800050340F3A98199F80150C2F1100205FA59
:1024780002F2134309F102094A1E4FF0004545FADA
:1024880002F24FF0000A13404FF00B0801F10B0263
:10249800CDF808A0A6E7019E032E12D003F000464F
:1024A8000F2902F1FF3246EA05054FEA4303B3D18B
:1024B800019E032E41D003F00046013A31435B00F0
:1024C800ACE7DDF828A0029D002918BF0AF1010A2F
:1024D8001544AA453FF73AAF524526DAD543AC46EC
:1024E800D44409EBDC0C0C950CF1010CC2F1180674
:1024F8004D4615F8017BB740654543EA0703A6F149
:102508000806F6D10C9EB244029E4FEADA0AA6F1FA
:10251800080508320AF1010602EBCA02B5EBCA0A3D
:10252800B144CDF808A000F13D810E9E23FA06F5CE
:10253800069E0F35921BB3406AE702990A9E114422
:102548008E423FF703AF964240F3BC810699C2EB37
:10255800010C4FEADC0C0CF101074F44C2F11801E1
:1025680019F8016B8E40B94543EA0603A1F1080149
:10257800F6D1029EA6F108010832B1EBCC0102EBBC
:10258800CC02029100F104810E9E23FA06F1069E08
:10259800B946921B0F31B3403EE700BF4C3A0108E1
:1025A8004C3B0108CC3B01080D99099E109D079CE6
:1025B8002D68636C029501EB86000499039E0196D1
:1025C800002940F3BA80C649C64C51F82350C64981
:1025D800524212F0070205EB040A51F823107BD18E
:1025E8001346099EC1F120090499C6F50F7C4FF0E6
:1025F80000080CF1010C4446C2EB010B644580F263
:102608009D80BBF10F0F6FDD039D2F786D78C2F1B0
:102618001806C2F1100107FA06F605FA01F131436E
:10262800039E0236ABF1100B03960B43103224E0E5
:1026380003F00047013A47F001075B00C1F340058A
:102648002DB103F00045013A45F001055B0011F09A
:10265800010105D003F00041013A41F001015B009E
:1026680090456BDC80E8C000856004341030644518
:1026780040F8041CC2DA092AC0DD23FA09F11AF865
:1026880001100D09C1F3C006521BAB402EB103F077
:102698000046013A46F001065B00C1F38005002DB3
:1026A800C6D12F46CAE75369022B7FF4BFAD9369A1
:1026B800002B40F00981536B8C484A6B013380FB37
:1026C8000361A1EBE37302EB43034FF41074B3F916
:1026D8002E0000EB4000B4E53478C2F12003751CED
:1026E800039504FA03F37CE70BEB0201002925DDCF
:1026F800BBF1000F14DD039D2E78C2F1180506FA10
:1027080005F5BBF1080F43EA0503039E40F3D480A7
:102718007578C2F1100205FA02F2023613430396E5
:102728004A1E4FF0004545FA02F213404FF00A08DE
:1027380001F10A024FF0000B9FE70024029B109E54
:102748002344B3F5107F336011DA0F9A1F9E0B985C
:10275800324403EB821300EB830300F6FC0101EB28
:102768000221043B002243F8042F8B42FBD1089836
:1027780004990368019A119C089D0B4402EBE3003D
:10278800001B03F007032B6016B0BDE8F00F70477D
:102798000A44511E4FF0004646FA01F10B40002151
:1027A8000291F1E65244551E4FF0004646FA05F5EF
:1027B8002B4000250295B8E609F101095CE64C4D6D
:1027C80035F8116006F00F06C6F120060AF1020579
:1027D8000021A4468046BBF10F0F43DD99F800A005
:1027E80099F80170C2F11804C2F110000AFA04F451
:1027F80007FA00F02043ABF1100B09F1020903437B
:1028080010320CF10807AA4601E00A2A52DD23FA21
:1028180006F03AF81000040BA340C0F30315121B8E
:1028280003F0004415B125435B00013AC0F30320CF
:1028380003F0004410B120435B00013A8A42A8F13A
:102848000208BC46FFF682ADB8F1000F47F8085CF5
:1028580047F8040C07F10807D7DC531A04995B44BE
:10286800CB1A71E50BEB020100297FF76FADBBF1C5
:10287800000F13DD99F80040C2F1180004FA00F0C7
:10288800BBF1080F43EA000319DD99F80100C2F112
:10289800100200FA02F2134309F102094A1E4FF02E
:1028A800004040FA02F213404FF0000B01F10B0216
:1028B8000B21A6E755468EE70136039630E709F166
:1028C8000109EBE74F465FE60B789BB907984A6B1F
:1028D800436B01334FF4107432F91300B1E400BFB5
:1028E800F4390108FC390108EC39010856555555E9
:1028F800CC3B01084B6BB3F93600B3F93420B3F97C
:102908000C30801A03EB40004FF4107499E400BFB8
:10291800022A2DE9F0074C4B20D002EBC20203EB50
:10292800021808F1480408F18C0C043808F16C0806
:1029380001F1440750F8043F5CF8045954F8046B5B
:102948001A4686FB029241F8042B85FB0323444573
:1029580047F80439EED1BDE8F00770478268D3F82C
:10296800388188FB0232384C8369D4F8204184FBD3
:10297800035313440B60344B4268D3F83CC18CFBBF
:102988000232314CC369D4F8244184FB0353134405
:102998004B602D4B0268D3F8406186FB02322A4C0B
:1029A800036AD4F8284184FB035313448B60264BF5
:1029B8000468D3F8445185FB0434234A036AD2F8E7
:1029C8002C2182FB03732344CB601F4B4768D3F849
:1029D800484184FB07371C4BC269D3F8303183FB6D
:1029E80002923A440A618768174BB946D3F84C31CA
:1029F80083FB0929144A8769D2F8342182FB07A787
:102A08004F444F61426988FB02728A6102698CFBFC
:102A18000272CA61C26886FB02720A62C26885FBDA
:102A280002624A62026984FB02528A62426983FB3B
:102A380002020023CA624B640B64CB638B634B6353
:102A48000B63BDE8F0077047F06301082DE9F00F4C
:102A58008446B3BB12F0010030D0DCF88001DCF80A
:102A68008028DCF88073DCF88064DCF88055DCF8BA
:102A78008046DCF88017C0F10008DCF88002CCF84A
:102A88008081C0F10009DCF88000CCF88092C2F1A6
:102A9800000A7F42424276426D42644249421846E9
:102AA800CCF88073CCF88064CCF88055CCF880469C
:102AB800CCF88017CCF880A8CCF88020BDE8F00FBF
:102AC800704712F0010045D0C3F11F02012696405D
:102AD8000439013E0CF510670020DCF80050EC17B3
:102AE80045FA02F8444518BF84EA0605DCF8804038
:102AF80064424FEAE47944FA02FAD14505FA03F54B
:102B080018BF86EA09049C404FEAE578CCF80050E3
:102B1800CCF8804088EA050BE51785EA04094C687B
:102B2800C5EB090544FA02FA4FEAE479D14518BF22
:102B380086EA0904C8EB0B080CF5807C45EA080511
:102B48009C40BC4540EA050041F8044FC5D1BDE8AA
:102B5800F00F7047C3F11F050127AF400439013F4B
:102B68000CF51068DCF80040E21744FA05F6B242AA
:102B780018BF82EA070404FA03F2DCF88040CCF8B4
:102B880000204FEAE47944FA05FAD1454FEAE276A3
:102B980018BF87EA09049C407240CCF88040921B19
:102BA800E61786EA04094C68C6EB090644FA05FAF2
:102BB8004FEAE479D14518BF87EA09040CF5807C0F
:102BC80016439C40E04540EA060041F8044FC9D14D
:102BD800BDE8F00F704700BF2DE9F04FC9B01D9157
:102BE8001A92002800F018870368002B00F0148759
:102BF80044681C94002C00F00F87C5680C95002DC4
:102C080000F00A8740691E90002800F005871D9E85
:102C1800DDF868A01978DDF87490DDF868C05A6BA3
:102C2800A84FF6004FEACA0A3046002948445346DE
:102C380014BF062108210001634400EBC30032F9E8
:102C480011202096204487FB0214D217C16BCDF8BF
:102C58007CA0C2EBA40212B202291B9200F0C48627
:102C68000CF5906340F2262255F82330934240F346
:102C78001C8540F2362520260F951F2709961F9B95
:102C8800DDF868900C984B4400EB0320002F15905A
:102C980040F3B7868C4B58680290D869089003F1C6
:102CA80034001E689968DA681C695D69019690E8C5
:102CB800010C9E6903910492196A5A6A0794059552
:102CC8000696DD6A9E6A1C6B159B0A910B920D96FF
:102CD800483353F804CCD3F80080019A614682FB4C
:102CE80001614246029E86FB02928A1A520043F80C
:102CF800042C019981FB082886FB0C2C08EB0C029C
:102D080053F808CCD3F80480039E52001A60614639
:102D180086FB01214246049E86FB02928A1A5200D3
:102D280043F8082C039981FB082886FB0C2C08EB38
:102D38000C0253F80CCCD3F80880079E52005A6056
:102D4800614686FB01214246059E86FB02928A1A4D
:102D5800520043F80C2C079981FB082886FB0C2CA1
:102D680008EB0C0253F810CCD3F80C80069E5200E6
:102D78009A60614686FB01214246089E86FB0292C4
:102D88008A1A520043F8102C069981FB082886FB02
:102D98000C2C08EB0C0253F814CCD3F810800A9EC4
:102DA8005200DA60614686FB012142460B9E86FB93
:102DB80002928A1A520043F8142C0A9981FB0828B7
:102DC80086FB0C2C08EB0C0253F818CCD3F81480B3
:102DD8000D9E52001A61614686FB0121424685FB21
:102DE80002928A1A520043F8182C86FB082885FBA1
:102DF8000C2C08EB0C0253F81CCCD3F818805200AA
:102E08005A61614684FB0121424680FB02928A1A7C
:102E1800520043F81C2C84FB082880FB0C2C08EB80
:102E28000C0253F820CCD3F81C8052009A616146FA
:102E38008AFB012142468BFB02928A1A520043F810
:102E4800202C8AFB08288BFB0C2CC4444FEA4C022C
:102E5800013FDA617FF43CAF209B1D9F1F9ADDF88C
:102E680068901C9C3B441B014A4403EBC203234467
:102E7800196C1A9D0C9A1E9B0F9F124EAD002A4486
:102E880002F590522B44106822958742A8BF384615
:102E980000F11105106003F5D85441F6083041F6E9
:102EA800103286FB0596ED17C5EBA6052468185861
:102EB8009A581895199413901492002900F0868551
:102EC80004E000BF398EE3386062010820981D9D38
:102ED8001A9E1F9B1E9FDDF87090DDF830A0099C9C
:102EE80028443344000100EBC30006F2824207EB9A
:102EF800C3112830814401F5905107EB03235AF898
:102F08002220CDF83490002C0F912193169240F393
:102F18006185159F01910026C2F10705062A1295C1
:102F280007F13C07C8BF35461096119503969B4696
:102F38000797DDF83490D9F81830D9F8144004947C
:102F48002BB11B9D039EB542C8BF00240494139F58
:102F5800039D149C169EA542B8BF0027062E0C9709
:102F680000F3F784DDF81C90019C129B002637467D
:102F780024ADA9F1480E48468268416842FA03FC2C
:102F8800C7EB0C071941BE1BCF1B216A6E640838BA
:102F980041FA03F270452F622262A5F10405A4F1FB
:102FA8000404E9D1269ADDF8A0902C9E2498259B4C
:102FB800DDF8A4C02B992A9CDDF89C80DFF858E244
:102FC800C9EB020AC6EB0A0A914432442D9E40100E
:102FD800041B03EB0C055F18761006940590EC1B98
:102FE80002968EFB0868CCEB0303C1EB030E714617
:102FF800894880FB0131DFF828C24E468CFB063633
:103008008648964680FB0E3EC9EB02028CFB0232D4
:1030180080FB0939ACF17C6CACF5DC2C2346ACF5B3
:10302800A17C8CFB0303DFF800C28CFB0707ACF123
:103038002F5CACF5EA2CACF1E90C8CFB0505DFF84C
:10304800E8C18CFB04042A98DDF814C04FEA49094A
:10305800C9EB42024FEA4E0E0CEB60094FEA480CEE
:103068000EEB46067F0009EB0C0ECCEB090C06981C
:1030780007EB43030EEB0609B7186644F61A4FEA46
:10308800410899440B9600EB6A066400CDF89090CD
:1030980006EB0809C8EB0606C4EB4505CAEB0001B8
:1030A8002B960CEB020A0B9E2F9C2C967244EB1A63
:1030B80005EB0A06521B319D289135992696C7EBD8
:1030C8000E0E661BC7EB0C07C3EB070C9E442E982D
:1030D800329F349BCDF89490761A0696DDF80890C6
:1030E800339ECDF89CC0074403442A922544CDF86A
:1030F800A4E0FA1A0C44C6EB090CDDF8C080DFF82E
:1031080018A18AFB08182E99329E881B3499C1EBA6
:1031180000098AFB0919424E284686FB0010DFF891
:10312800FCA021468AFB0161DFF8F4E0641B8EFBFA
:1031380004648AFB05650AF1705A0AF54C2A96461A
:103148000AF2CB2A8AFB0E6EDFF8DCA08AFB036347
:10315800AAF12F5AAAF5EA2AAAF1E90A8AFB07670F
:10316800DFF8C4A08AFB026249006D0001EB400150
:10317800C5EB44053398029C04EB60064FEA48000F
:1031880034185B00301A03EB4E0301EB050804EB1F
:10319800010A069E5200C2EB470201444FEA490762
:1031A80000EB05092544C8EB0404C8EB00080AEB4A
:1031B8000300DDF818A02D900CEB660E0C98D61ABB
:1031C800CAEB0C0CC6EB08080EEB070A3444C7EB35
:1031D8000E079144AD1ACE1ACDF8C4C0CDF8B8A0E8
:1031E8003497CDF8BC90CDF8C0803294339535969D
:1031F800002840F04D83049B002B40F04983094C84
:103208000B99019F1D4604F1640C33462BAA0DF15E
:103218008809AE460CE000BFA1EBD96E7E1A3A16BB
:103228008BBE0D62F85C0108322E0E7E936A5168DF
:103238005CF8040D80FB03634FEAA10803EB080167
:103248003E6847F8041B54F8081CC8EB0303704297
:103258008846C01A80FB081854F8041C03EB88033E
:1032680080FB0181C6EB8106F017D91780EA060AB0
:10327800C0EB0A0081EA030AC5EB0B08C1EB0A019F
:10328800043A01434A454BF8053004F10804C8F8EC
:10329800806805F180054EEA010EC7D1764658468A
:1032A8000199039A119BFFF7D1FBDDF80CA0DDF81B
:1032B8001CC0019C109D3043099E0AF1010A0CF1C3
:1032C800480C24340543B245CDF80CA0CDF81CC0F9
:1032D8000BF1040B019410957FF42BAEDDF854909C
:1032E800DDF83CA006EBC60309EBC3090AEB830A29
:1032F800CDF85490CDF83CA0099D189EB54280F2B7
:103308003082219F239507EB85070F9CDDF854C079
:103318000D9736AD07940295139FDDF82490149EFF
:10332800169CB145B8BF0027062C059700F3068305
:10333800079E079BC4F10705243615952A46604663
:103348000E960CF10401354651F8044C144141F82D
:10335800044C44681441446053F8044B1441AB4294
:1033680001F1080100F1080043F8044CECD1DCF845
:103378003C50DCF83040DCF82400DCF81810DCF8AD
:103388000C20DCF80030DFF864E3641B001B091A2A
:10339800C1EB0208401BC8EB0309C0EB08084FEA61
:1033A80069094FEA68088EFB01314A0009EB64019C
:1033B8000346C4EB090902EB010EC2EB010ACB4834
:1033C80080FB03235B0008EB65029E18C84C84FB56
:1033D8000616C5EB0808B600C64D85FB0818C64F8B
:1033E800D21A4FEA880887FB0232DCF84030DCF852
:1033F8003410DCF82870DCF81C40DCF81050C91ACE
:10340800C1EB070BC8EB0900CBEB04042890DCF8F0
:1034180004002D1B401B9200019009EB08070AEBE2
:103428000200C2EB0A08C6EB0E090EEB0602019E6B
:103438000490C3EB0B0BCBEB05057010049E25978E
:1034480006926D102696CDF89C802492CDF8A49013
:10345800A64F87FB042400EB610A640004EB0A0E04
:10346800471ACDF80CE0C4EB0A04A04880FB0B2BEC
:103478004FEA4B0205EB630A02EB0A009C4E86FBFF
:103488000010DFF870E2EB1A80008EFB03139A49F4
:10349800C2EB0A0A9E0081FB0A3ADCF84450DCF8C9
:1034A8003830DCF82C20DCF820105B1B4FEA8A0A45
:1034B80007EB060BD21ABE1B04EB0A07CAEB040A79
:1034C800039C2E96891A521BDCF814502C9704443E
:1034D800C1EB050E1194DCF80850039C119ECDF841
:1034E800ACB0201ACEEB0505C2EB0E0E0890CDF855
:1034F800B4A06D104FEA6E0E2A962F907B4F87FB73
:10350800010105EB630449000819EB1A641A87FBEB
:103518000212DCF84410764F52000EEB6105511987
:1035280087FB0161DCF84460724FC6EB0E0E890020
:1035380087FB0E6E704EAD1A4FEA8E0E86FB052580
:10354800AD006619651B441A411803EB0E0712916A
:10355800CEEB0303059A029934930798129B33958F
:103568003594CDF800C031973296309324ADFFF7EB
:10357800CFF9624CDDF800C0DDF834B001950022C7
:10358800CE46DDF810900592CDF85CC04146029E0B
:10359800B5583346AD001344CBF80050D8688000C6
:1035A800C7174FEAE57CCBF880018CEA050578401F
:1035B80088460497CDF80CC0D4F820110B900A95D2
:1035C80081FB0808996908EB8101CE17CBF8001335
:1035D8007140D4F82C510C9185FB0E1E5D6A0EEBE0
:1035E8008501CD17CBF8801485EA010E4846D4F83A
:1035F800381181FB00C0D4F8201181FB0ACA196B6D
:10360800DDF818C082440AEB8101CBF800164FEAB6
:10361800E178D4F8440188EA010980FB0C1C089978
:10362800D4F82C0180FB01A16144DDF82CA0DDF861
:1036380010C0DB6BCCEB0A07DDF80CC0DDF828A066
:10364800CCEB0A0007430C9801EB8301861BCB17D0
:10365800C5EB0E0537432F4383EA010CC8EB090974
:10366800CBF88017059D019947EA0908C3EB0C03BD
:10367800043248EA030304391D430C2A04F1040404
:103688000BF1800B019105951ED024AB1344019ECC
:10369800D1F814E0D3F824A0D968F36AD6F80890D2
:1036A800089324AFBF58069771E7073387FB0327B2
:1036B800DB17C3EBA70707EBC7035B0008337C1CCA
:1036C8000F930994FFF7DBBA2B9A2C9B119C079D4B
:1036D800DDF85CC00E98A11092109B1085E80E00D2
:1036E80005F10C0330A9129A0CE000BFA1EBD96ECA
:1036F8001D75A37B9A79825A83FB2021F063010808
:1037080051F8042F921043F8042B9842F8D10799E6
:10371800159B0D98099ACDF800C0FFF797F9099EF7
:10372800059F0D9DDDF860A0DDF800C00E9C079494
:1037380001360996DDF82490109E38430435064377
:10374800D1450CF1480C0D9510967FF4E5ADDDF8E8
:103758008CC00F9CCCEB090303EBC30304EB83047D
:103768000F94099E199DAE4280F23B81219F0496D9
:103778000DF1D80907EB8607CDF80890DDF84090E1
:1037880003970DF590780027099D149C139A0F98BC
:103798000299A542B8BF0022FFF7BAF80F9C029B16
:1037A800039845F30006019605F0010AA4F1040CFC
:1037B80000261968019D890001605A6885EA82021D
:1037C8005244D517CC1785EA020BC5EB0B0584EAE2
:1037D800010BC4EB0B040833114325434345C0F8E0
:1037E800802046EA01064CF8047F00F5807049EA1B
:1037F8000509DED10F9D099C049B2435002E18BFB6
:1038080023460F95039E199D049301340436AC4258
:1038180009940396B8D1CDF84090099C1F2C10DC70
:10382800099E219D002105EB860230460023D150D8
:103838008033B3F5106FFAD10130202802F1040269
:10384800F4D11D9D209B1A9E1F9C1C9FDDF888901B
:10385800DDF840A02B441B01344403EBC4041E9B39
:103868003C444B4403F5D85041F6083541F618312D
:10387800E66B049FBAFA8AF441F61032013C0760FD
:103888005E515C501B9C9C50002049B0BDE8F08FF5
:1038980036AF0C9A0198624DDFF888813946FFF7F8
:1038A80037F8049C0B9804EBC40C002405EB0C1CA3
:1038B8003146BE46224626462BAD034601E0A96A9C
:1038C8006B6808EB0209D9F8200080FB01919B1076
:1038D800DDF80490C81849F80400591A5CF8040087
:1038E80081FB00303F590CEB020338445B6C8000CD
:1038F80081FB03730EEB0207C1177F6C3B449B00EF
:10390800DF1787EA030AC7EB0A0781EA000AC1EB57
:103918000A010F434FEA44190BEB4211043A12F122
:10392800240F4BF8090046EA0706A5F1040504F13F
:103938000404C1F880387746C1D1B0E4DDF81CA092
:103948004FF000090AF1240ACDF85490CDF838A0B8
:103958000DE5079F0020054636ACA7F14806394615
:103968008A684B68551B281A44F8040D08395D1BF2
:10397800B14244F8245CF3D1FFF714BB1A9D0C99AB
:103988001E9A0994AD00294401F590512A4408680B
:1039980022950C9D0828B8BF082000F1110605EBF8
:1039A800032387FB069702F5D858F6171593086086
:1039B80041F6103341F60831C6EBA7061896515860
:1039C800D8F80060D35819961391149300241B94C7
:1039D800FFF77CBA4FF0000CCDF824C0CDF840C0FA
:1039E8008AE4099E049618E7046C002CC6D01B9C38
:1039F8000994671E07EBC7035B0008330F93FFF7B3
:103A08003EB9209A1D9C1C9D2244120102EBC3035F
:103A18002B44196CFFF72DBA4FF0FF3035E700BF84
:103A2800F0630108385D01082DE9F04F95B0834631
:103A380002911746002800F0CD820468002C00F09F
:103A4800C98245680095002D00F0C482D0F808802E
:103A5800B8F1000F00F0BE8212681344D91D48BFA8
:103A680003F10E01C91008A8029AFDF7A1FD3968F3
:103A7800002940F01C812378002B6BD11E9C1E9DD1
:103A8800BF48E400224603941F9C2A44E4001F9D7B
:103A98000494214629441201009C02EBC1022832F9
:103AA8002244C5EB451ED4681E9D10F8146000EB37
:103AB8004400C5EB4514457850694FEA4E0E0EEBAD
:103AC80084040228444400F094811E99002900F0DF
:103AD8001D811F9A00984FEA021909F10809F0445C
:103AE80050F809208144002A40F00281924608A833
:103AF8003146FDF763FD04F80A000AF1010ABAF13C
:103B0800060FF4D1D9F80430002B00F01D820623EB
:103B180018F80320E25401330B2BF9D1D9F80830F7
:103B2800002B00F029820B2318F80320E2540133FC
:103B3800102BF9D1D9F80C30002B00F01382102388
:103B480018F80320E2540133152BF9D100236375CB
:103B5800A3758BE01E9B1E9D266A009CDB000393C9
:103B68002B441F9DED002A4604951F9D2A441E9D47
:103B78001B0103EBC203C5EB45121F9D2833C5EBA0
:103B88004511920002EB41022344424416F001061B
:103B9800D968019202D0012D00F0F880B1F5C87FF4
:103BA80080F28980774C081184FB0024CA17C2EB85
:103BB800640202EB8204041B4FF0000CC1F3810085
:103BC80001F003010E900C920D940F91E6466046A9
:103BD8005A69022A00F0CD80002400EB40006849B1
:103BE800204401EB800191F8200091F821401090C9
:103BF80091F8220091F823101194129013911EB19C
:103C08001F9D012D00F0D98010AC0594022AC3F83D
:103C18003CE000F04081019CDDF81490CDF818B02C
:103C28000026B04604F1FF3A079759F80670002FAE
:103C380012DD0CAADDF804B0B55808F1FF330AEB21
:103C480008049B443C4408A82946FDF7B7FC0BF838
:103C5800010FA345F7D1B8440436102EE5D1019DD4
:103C6800DDF818B0079F0023AB756B751E9C039B8E
:103C78001F9D049A029923442A44009C1B0103EBCC
:103C8800C20323441E9C9B6A05EB440202F5FC72A6
:103C980008A84BF822303A68FDF7ECFC3B6818445A
:103CA80000F007033B60C01015B0BDE8F08F08A80E
:103CB800FDF784FCDFE6B1F5FA7F3FDB324A98690D
:103CC800A1F5FA7182FB0142A2EBE17202EB420418
:103CD800091B00240C920D910F940E94002800F0FB
:103CE80059810E910D92A4464FF0010E02206FE704
:103CF80018F80320E2540133062B3FF403AF18F8F9
:103D08000320E2540133062BF2D1FBE6884608A8CB
:103D18003146FDF753FC04F8080008F10108B8F132
:103D28000B0FF4D108A82946FDF748FC04F8080051
:103D380008F10108B8F1150FF4D197E7A1F5C8719A
:103D480010488C1080FB0450CA17C2EB600202EBCB
:103D580082050C925A690020641B01F00301022AB3
:103D680084460F9086460D940E914FF001007FF423
:103D780033AF996900290CBF012402242DE700BF45
:103D88005C5D010867666666565555554A10B32A44
:103D980001F0010C40F30381F32A00F31E81B43AC9
:103DA8001011C2F381010C9002F0030200200F9061
:103DB80086460D910E9204200AE710AC08F1F80629
:103DC800304600210CAD05949A46A146C8EB000484
:103DD800344459F8013044F8E43C6B5844F8F43C56
:103DE8000431102900F10400F0D15346C8F8F8C096
:103DF8000CE79269002A00F0C980984608A8314665
:103E0800FDF7DCFB04F8080008F10108B8F1080F19
:103E1800F4D14FF0030909EB4908A04408F1170849
:103E2800314608A8FDF7CAFB314688F8000008A803
:103E3800FDF7C4FB314688F8010008A8FDF7BEFB72
:103E480009F10109B9F1060F88F8020008F1030821
:103E5800E6D12646294608A8FDF7B0FB294686F88C
:103E6800290008A8FDF7AAFB294686F82A0008A811
:103E7800FDF7A4FB09F10109B9F10C0F86F82B0035
:103E880006F10306E6D1002384F83D3084F83C307F
:103E980084F83B30EAE69B69002B79D00C9C019EA4
:103EA800002508A82146FDF789FB70550135062D28
:103EB800F7D14FF001080323DDF814A0019CCDF8D9
:103EC80018B04FEA88020CAD1544924404F1170269
:103ED80005950026079793465AF80620002A20DD04
:103EE80002EB0309019D059A03EB43032B44945904
:103EF80009EB490503F117075D44214608A8FDF7BA
:103F08005DFB2146387008A8FDF758FB21467870FC
:103F180008A8FDF753FB033707F8010CAF42ECD1B3
:103F28004B4608F10108B8F1040F06F10406D3D195
:103F3800019CDDF818B0079F002384F83D3084F811
:103F48003C3084F83B3091E64FF0060A08A8314629
:103F5800FDF734FB04F80A000AF1010ABAF10B0F65
:103F6800F4D1DBE5102608A82946FDF727FBA05564
:103F78000136152EF7D1E9E50B2608A82946FDF7E5
:103F88001DFBA0550136102EF7D1D3E5914642E727
:103F9800984691E784464FF0010E022018E617482C
:103FA800174C80FB0250C917C1EBE00101EBC100BF
:103FB800A2EB800084FB0052A2EBE07202EB420409
:103FC800A0EB440000240E900C910D920F94A6468D
:103FD8000320FDE54FF0FF3066E60A49F43A81FB1D
:103FE8000201A1EBE27101EB4100101A00220D90D1
:103FF8000C910F920E9296460520E9E5398EE3382A
:10400800ABAAAA2A565555552DE9F007B1F1000A71
:1040180028DD00239C4698461D4600F51069C158C6
:1040280059F803400E190C1BC65049F80340C158F3
:10403800E617CF17794074400135CF1BA61B5545AD
:1040480003F1040348EA07084CEA060CE7D192E8B2
:104058000A0041EA080143EA0C0382E80A00BDE8C5
:10406800F00770474FF0000CE046F0E72DE9F00F3D
:1040780098B0209D0D90AC690593002C40F0868087
:10408800566B6A69EB6A219DB84F01320692219AF4
:10409800E80003F1010BC2EB000C07EB8C0736F8C4
:1040A8001B300497069F1DB2BB45C5EB0102A24613
:1040B80080F27481002A40F3718106EB4B06AC490B
:1040C800CDF804B00396059F019E01440791B95DA0
:1040D800A1460D9C072904F51068A4464FD0049EFC
:1040E80056F82140B669361B0398019930F8027FCB
:1040F80003901BB20FFA87FBC3EB0B0B0131BBF12B
:10410800000F029701912CDD002A00F01D81CBEBF6
:10411800020B0CEB850302E0002A00F0158153F82E
:10412800041B86FB0101CCEB03004044890040F8E6
:10413800041CC81780EA0107381A53F8041C4AEA15
:10414800000A84FB01018900C81780EA0107013AC7
:10415800381A5A4543F8041C05F1010549EA0009D3
:10416800DAD1069B019CA34200F0EE80002A40F3BE
:10417800EB80059F019E029BB95D0729AFD1219E67
:104188007B4F079857F836404668ADE7013C012C4D
:1041980040F2F48000231C461F46219DDFF8CC81A5
:1041A800E800461B08EB8608A342C7EB010CCDF8D4
:1041B8003C8040F3EF80BCF1020F40F3EB806C4E83
:1041C800526B059D04EB440106440D98119602EBD1
:1041D8004404163105F1130203EB43034FF0000AC0
:1041E8002E340D44D31800F510600C940B950E93E3
:1041F8001090CDF81CA0E1460B990F9C002211F8F5
:10420800013F072B00F0A78054F82330A06912ADB6
:1042180015AEAB50C31AB35004320C2AEFD10C9828
:10422800B0F9022030F9023B0C90D31A002B7EDD46
:10423800B9F1020F40F3858003EB4303129C1599F3
:104248000694FB180A930D9C109B02917A1C169DEC
:10425800139E17981499049503EB8202D046019691
:104268000590039104EB8703BA4603E0B9F1020F06
:1042780040F380801968029D85FB01018900CD17F4
:1042880042F8041C69401F680891069E86FB0717C0
:10429800BF00F8171F60474000975968049F87FBC5
:1042A8000141890011605C68CE177140A4460991EC
:1042B800019C84FB0C1C4FEA8C019F685960CC1749
:1042C80084EA010C3946059F87FB01B1099F8900E3
:1042D800BE1B089F51604FEAE17B7D1B8BEA010101
:1042E800CBEB01012E430E4307999D68314307919B
:1042F800039E294686FB0151009F8900CD17381A75
:10430800C4EB0C04044385EA01060A989960751BFE
:104318000AF1030A2C438245A9F1030948EA040873
:1043280003F10C0302F10C02A0D15746C2460B99C7
:104338000E9A914205D00331B9F1020F0B913FF764
:104348005BAFD146DDF81CA0239C84E8000618B0BA
:10435800BDE8F00F7047219D054E56F83500119DB8
:1043680012AE6B68B05015A8835055E7B8630108C2
:10437800A8620108DDF81CA0C146E5E7AC6A506BED
:104388002B6900EB44000133B0F93000013400EB35
:10439800400702E74FF0000AD146D5E7D146D3E7F8
:1043A8002DE9F00FA8B0B84C319D329F55F804693B
:1043B8000C9307EB460604EB86148B46069481465D
:1043C80004240021012604356B686F6906FA03F39B
:1043D800002F03F1FF300EDD4B1E0DF1440C0F448E
:1043E8000CEB83030DF1400C0CEB870143F8040F31
:1043F8008B42FBD13946013CE5D1309DAB69002B9E
:1044080040F09380E86A526B6E69059600F10108E6
:10441800012532F81830279519B2C1EB0B0BB045BE
:10442800CDF804B02695A24600F32B8102EB480292
:10443800DFF858C2329F039211AA0CEBC70702EBB0
:104448008002A3460797049209F5106C049D0C9C02
:1044580055F8040F14F80820049590424DD0501CCC
:10446800D4074FEA600044D5069A52F8204000224B
:10447800069EB558039830F8027F03903AB21BB2F3
:10448800D31A019A02979342B8BF1A46002A00929B
:1044980008F1010823DD174609EB81030F4453F89F
:1044A800042B85FB0202C9EB03006044920040F82C
:1044B800042CD01780EA0206301A53F8042C4AEA72
:1044C800000A84FB02029200D01780EA020601313A
:1044D800301AB94243F8042C4BEA000BDFD1019B98
:1044E800009C1B1B019317D0059D454514DB029BBF
:1044F800ACE7069F82003C68BAE7329E634F079894
:1045080057F836404568B5E70A9D0135032D0A95E9
:1045180021D15346DA469B46349EC6F800B0C6F809
:1045280004A028B0BDE8F00F7047584F329E0A9497
:10453800A246A346309C526B0E9207EBC606012397
:104548000D9604F1180509F510661D930B940F9547
:104558000896CDF82490DDF82CC0309F0F980A9E5D
:10456800C7EB0C0303445CF8042F59680E9BCDF885
:104578002CC001F1150403EB4404481CE3884FF0F8
:104588000305904213FB0569BEDC01EB41000C9F5B
:1045980030443844173000900DF1440C11A806340B
:1045A8000CEB810C00EB82000494CDF804C007905A
:1045B8000099019CCA7854F8041F0194914257D07D
:1045C800511CD2074FEA61014CD5069850F821508A
:1045D800002206998C58049E36F8022F04961BB2C6
:1045E8000FFA82F8C3EB0808B8F1000F02922FDD2A
:1045F8004FEA4807BC46099908980397C4444FEA0C
:1046080089073944CC440744CDF814900023CA588C
:1046180084FB02029200D01780EA0206FA50301A90
:10462800CA584BEA000B85FB02029200D01780EAB9
:10463800020609F10309301AE145CA504AEA000A9C
:1046480003F10C03E3D10399DDF814908844C144C5
:10465800009A019B079C0332A34200923FF454AF97
:10466800029BA5E7DDF818C08A00DCF80050B0E727
:10467800329E064FDDF834C057F83650DCF8044057
:10468800A9E7A34648E700BFB8620108A862010885
:104698002DE9F04F0E4685B0002873D0C368002B73
:1046A80070D04369002B6DD0D0F81890B9F1000F85
:1046B80068D0D0F8BC27022A09F50855984603F5B2
:1046C800D85A28D02A680AF1180A002707F00104E6
:1046D800DAF80030009340462346494600F058F87F
:1046E8002B682A4A2101214403EB8111304609EB4A
:1046F800810100F0B5FB2A680137121B02F007029E
:10470800122F08F1800806F140062A60DED1002049
:1047180005B0BDE8F08F574609F180032A68039376
:104728000AF1180A1C374FF0000B0BF00104DAF8F5
:104738000030009340462346494600F029F83B687C
:104748002A680399009308F51060234600F020F8C2
:104758002B680E4A2101214403EB8111304609EBF5
:10476800810100F07FFD2A680BF1010B121B02F09A
:104778000702BBF1120F08F1800806F180062A60D3
:10478800D3D1C4E74FF0FF30C2E700BFC45D0108D2
:104798002DE9F00F88B0109C0391052C0692049324
:1047A80000F35A83C4F1060B034600F180011A682E
:1047B80042FA0BF243F8042B8B42F8D10668C56F16
:1047C800C46B026CCE49731B354481FB0363A11A89
:1047D8005B002244CB4C84FB0161AC184901AA1A46
:1047E8000460C94D85FB0262CD185200C2635B1A92
:1047F8000564C54A82FB0313D0F804C0856F876B34
:10480800466CC24A5B00C5EB0C01C367654482FB7A
:104818000131BA1BBB194900BD4E86FB0272EE1866
:104828000296EB1AD2004660BA4D85FB03635B0023
:1048380055188363C2EB010C4564B64B83FB0C2C03
:104848008668456F426B836CB3494FEA4C0C771B03
:10485800C0F878C0354481FB0767D11A7F0013443C
:10486800AE4A82FB0161EA1805928260EB1AC90020
:10487800AB4A82FB03535B00CA194363C1EB070CC5
:104888008264A74B83FB0C2CC668056F026BC36C54
:10489800A4494FEA4C0C771BC0F874C0354481FB1F
:1048A8000767D11A7F0013449F4A82FB016105EB19
:1048B800030A8900EB1AC0F80CA09C4A82FB035338
:1048C8005B00CA190363C1EB070CC264974B83FBF7
:1048D8000C2C0669C56EC26A036D95494FEA4C0CEB
:1048E800771BC0F870C0354481FB0767D11A7F0079
:1048F8001344904A82FB016102F1D052EE1802F58E
:104908002222EB1A8900066102F2975282FB0353B6
:104918005B00CA19C362C1EB070C0265864B83FBB7
:104928000C2C4569816ED0F82880436D834A4FEA84
:104938004C0C6F1AC0F86CC0294482FB0757804D95
:10494800C3EB08027F00434485FB02C201EB030C62
:104958005200CB1AC0F814C07A4981FB03539B005C
:10496800D1198362C2EB07094165764B83FB09299C
:104978008769456ED0F82480836D734A4FEA8909A8
:10498800791BC0F868903D4482FB01716F4FC3EBFF
:1049980008024900434487FB0292EF185200EB1AC1
:1049A80087616B4D85FB03939D0053188A1A4562F6
:1049B80083651546664B83FB0525D0F81C90016E70
:1049C800D0F82080C36D634AAD004566C1EB090588
:1049D800894482FB0515604AC3EB08016D00434416
:1049E80082FB018109EB03024900C3EB0903C261A1
:1049F800DFF8689189FB03834FEA03194B19C365F4
:104A0800691AC0F82090554B83FB015109010166D2
:104A180003463146DFF85081CDF81CB03E46059F6D
:104A2800059002985546C2EB040B224458F8184CDE
:104A380084FB0B9B6C1A05EB01094FEA4B0B58F8EA
:104A4800141C81FB0454C9EB020AE400914458F891
:104A5800102C82FB0A1AC4EB0B055C444FEA4A0A85
:104A6800019482FB0515811B6D00064458F80C2C37
:104A780082FB0101CCEB07004900674458F8082C79
:104A880082FB00C0C7EB060C4000374458F8042CE2
:104A980082FB0C6C0E1A4FEA8C0C084482FB06163B
:104AA800DFF8BCB0C7EB0902B6008BFB0212CCEBF7
:104AB8000A018BFB0141DDF804B0294C4900E244AE
:104AC8008A444F445200C0EB0B0CD960C3F808A0CD
:104AD8001F605A60614684FB0121AA1B49003544C6
:104AE80084FB026252001544584428440D449D61D9
:104AF8001C4D186108F118081144A84536E000BF9C
:104B080051C21340FB22855172464F40BD45B34008
:104B1800CF200B6D103CE1426D2DFA419057D941E1
:104B2800449F91482134F943968DFC5E630ECB5225
:104B3800C41BCC46971AD84A2E40E264F09C9D4A82
:104B4800B31D7D7CA924E2431137AE4F26CF6F6B8E
:104B5800C1923C6EA71E6056EBF64C5F044E9E5108
:104B68009A79825A08670108A86601085961DA61CA
:104B78000AD01C6ADA6BDD6A196B586A9E6B9F6AE9
:104B8800D3F834C020334EE705A890E88108049E86
:104B9800BA1B02F00702002E00F05281039F04683E
:104BA80002F5806107EB81031C6247F821404FF44E
:104BB80088630699039C0B4404EB830541682962CA
:104BC80044F82310446E416F436C21440B44C5F8EC
:104BD8002031C5F80031466A436B3344C5F82032AA
:104BE800C5F80032436D1944C5F82013C5F8001301
:104BF8004169C36E446FC5F82014C5F80014416DAF
:104C08001C442144C5F82015C5F80015416BC36A3A
:104C18000B44C5F82036C5F80036C36C2344C5F8E4
:104C28002037C5F80037C168C36FC46EC5F82018AF
:104C3800C5F80018C16C049E039F1C442144C5F8A4
:104C48002019C5F80019C16AC36B0B44C5F8203A8E
:104C5800C5F8003AC36D2344C5F8203BC5F8003BAE
:104C6800C369C46FC5F8203CC5F8003CC36D002E6D
:104C78002344C5F8203DC5F8003D0CBF4FF48866B5
:104C8800002602F11001C36BC5F8203E0E44C5F89A
:104C9800003EC5F8204F07EB8603C5F8004F44686F
:104CA8001C6247F82640866F456E446C35442C4498
:104CB800C3F82041C3F80041876B446A3C44C3F8F9
:104CC8002042C3F80042846D2C44C3F82043C3F843
:104CD80000438469C3F82044C3F80044866E856F96
:104CE800846D35442C44C3F82045C3F80045876AD1
:104CF800846B3C44C3F82046C3F80046846C2C44BB
:104D0800C3F82047C3F800478468C3F82048C3F8AD
:104D18000048066F856E846C35442C44C3F82049DE
:104D2800C3F80049076B846A3C44C3F8204AC3F8B7
:104D3800004A046D2C44C3F8204BC3F8004B0469A7
:104D4800C3F8204CC3F8004C066E056F046D35445B
:104D58002C44C3F8204DC3F8004D076A046B3C444B
:104D6800C3F8204EC3F8004E006C0544C3F8205F1A
:104D7800C3F8005FBBF1000F5ED00498039D039F4A
:104D880000280CBF4FF48863002302F580621A44A0
:104D9800CBF11F0455F82230D81743FA04F58542A1
:104DA80007EB820603D00123A340013B434004984C
:104DB800039F03FA0BF333620028069E47F822305C
:104DC8000CBF00204FF4886001253044A54007EB54
:104DD8008000013D0023C258D61742FA04FCB445AE
:104DE80000EB030718BF86EA050202FA0BF23A62E3
:104DF800C25003F58073B3F5805FECD10498039E2D
:104E080000280CBF4FF488630023194406EB810186
:104E18000023CA58D01742FA04F7874201EB030669
:104E280018BF85EA000202FA0BF23262CA5003F593
:104E38008073B3F5805FECD108B0BDE8F00F704720
:104E4800039C039D02F5046104EB810304681C6262
:104E5800049B45F82140ACE64FF0000BAEE400BFE0
:104E68002DE9F00F4FF00078834686B08C46002776
:104E780092E860000C68CB6D4046C4FB05073946D4
:104E880076428046C3FB06810F469568D668DCF8F3
:104E98000440DCF858304046C4FB050739467642E2
:104EA8008046C3FB06810F4615695669DCF8084041
:104EB800DCF854304046C4FB050739467642804644
:104EC800C3FB06810F469569D669DCF80C40DCF80F
:104ED80050304046C4FB0507394676428046C3FB3E
:104EE80006810F46156A566ADCF81040DCF84C302B
:104EF8004046C4FB0507394676428046C3FB068117
:104F08000F46956AD66ADCF81440DCF8483040460B
:104F1800C4FB0507394676428046C3FB06810F4627
:104F2800156B566BDCF81840DCF844304046C4FB7F
:104F38000507394676420446C3FB06418846966B08
:104F4800D76BDCF81C50DCF840302046C5FB06085F
:104F58007F4246460446C3FB0746200D40EA06301A
:104F6800C117B1EB605F4FEAA01318BF81F4FF438C
:104F78000CF5805118BF83F07F034FF00076ABF833
:104F8800003000240D68D2F800343046C5FB030415
:104F980041F204062146D2F804345CF8066004465F
:104FA800C6FB034141F208060D46D2F808345CF806
:104FB80006602046C6FB030541F20C062946D2F8D6
:104FC8000C345CF806600446C6FB034141F2100647
:104FD8000D46D2F810345CF806602046C6FB03057F
:104FE80041F214062946D2F814345CF806600446E7
:104FF800C6FB034141F218060D46D2F818345CF896
:1050080006602046C6FB030541F21C072E46D2F86F
:105018001C345CF807100446C1FB0346200D40EA27
:105028000630C117B1EB605F4FEAA0131CBF81F4D3
:10503800FF4383F07F0302F1400A0BF1400102F5C0
:105048008062ABF820300CF5807C059204919AE8D8
:105058008001DCF80050DCF85C6000244FF0007040
:10506800C5FB07044FF0007221460024C5FB082445
:105078002346C8F100080446C6FB08410D46104601
:10508800C6FB07031946DAF80890DAF80C80DCF852
:105098000470DCF858602246C7FB09252B460446F5
:1050A800C7FB08410D46C8F100081046C6FB0803B7
:1050B80019462246C6FB09252B46DAF81090DAF87D
:1050C8001480DCF80870DCF854600446C7FB09411A
:1050D8000D461046C7FB08031946C8F100082246CA
:1050E800C6FB08252B460446C6FB09410D46DAF8DF
:1050F8001890DAF81C80DCF80C70DCF85060104668
:10510800C7FB090319462246C7FB08252B46C8F1E9
:1051180000080446C6FB08410D461046C6FB0903B5
:105128001946DAF82090DAF82480DCF81070DCF8F8
:105138004C602246C7FB09252B460446C7FB08419D
:105148000D46C8F100081046C6FB0803194622465A
:10515800C6FB09252B46DAF82890DAF82C80DCF80B
:105168001470DCF848600446C7FB09410D46104638
:10517800C7FB08031946C8F100082246C6FB0825E4
:105188002B460446C6FB09410D46DAF83090DAF89A
:105198003480DCF81870DCF844601046C7FB09035B
:1051A80019462246C7FB08252B46C8F100080446C5
:1051B800C6FB08410D461046C6FB0903DAF83860FD
:1051C800DAF83C80DCF81C70DCF8409019460AF1EB
:1051D800400A2246C7FB06252B460446C7FB084162
:1051E8000D46C8F100081046C9FB080319462B46AE
:1051F800C9FB0643020D42EA013200920A150099E2
:105208000192CA17B2EB615F1D464FEAA11318BF9E
:1052180082F4FF434FEA145242EA05314FEA25521D
:1052280003924FEAE17218BF83F07F03B2EB615F2C
:105238002BF8023F4FEAA11318BF82F4FF43049AE8
:10524800029118BF83F07F0322F8023D059B049268
:1052580053450CF5807C7FF4FAAE06B0BDE8F00F3C
:10526800704700BF2DE9F00F94B04FF0007C11900B
:105278000B46002792E850000D686046C5FB0407FE
:10528800394676428046DD6DC5FB06810027894692
:10529800D3F880506046C5FB040739468246D3F8E8
:1052A800DC70C7FB06A18B469468D6685D684F46DC
:1052B8004046C5FB04073946764280469D6DC5FBCE
:1052C80006818946D3F884505F465046C5FB0407DB
:1052D80039468246D3F8D870C7FB06A18B461469B5
:1052E80056699D684F464046C5FB040739467642D5
:1052F80080465D6DC5FB06818946D3F888505F46B8
:105308005046C5FB040739468246D3F8D470C7FB1C
:1053180006A18B469469D669DD684F464046C5FBB1
:1053280004073946764280461D6DC5FB06818946CD
:10533800D3F88C505F465046C5FB04073946824671
:10534800D3F8D070C7FB06A18B46146A566A1D694C
:105358004F464046C5FB0407394676428046DD6C19
:10536800C5FB06818946D3F890505F465046C5FB79
:10537800040739468246D3F8CC70C7FB06A18B4692
:10538800946AD66A5D694F464046C5FB04073946AC
:10539800764280469D6CC5FB06818946D3F89450B9
:1053A8005F465046C5FB040739468246D3F8C870A5
:1053B800C7FB06A18B46146B566B9D694F4640464A
:1053C800C5FB04073946764280465D6CC5FB0681FD
:1053D8008946D3F898505F465046C5FB04073946BE
:1053E8008246D3F8C470C7FB06A18B46946BD66B74
:1053F800DD694F464046C5FB04073946764280467C
:105408001D6CC5FB06818946D3F89C505F46504603
:10541800C5FB0407D3F8C040C4FB06074FEA18547D
:1054280044EA0934E517A611B5EB645F4FEA105456
:1054380044EA073418BF85F4FF464FEAE47018BF02
:1054480086F07F06119FDDF844803E80B0EB645FF4
:105458004FEAA41118BF80F4FF4103F5805018BF2C
:1054680081F07F014FF000770468A8F80210002649
:10547800D2F800543846C4FB050603F58457314674
:105488003E684FF000770024B846C6FB058441F219
:105498000405A146D2F804C45C590646C4FB0C6155
:1054A80041F284000F46444619584846C1FB0C4057
:1054B80041F208010546D2F808C459583846B046A2
:1054C800C1FB0C8041F2880181465958284626467E
:1054D800C1FB0C6041F20C010746D2F80CC45958C4
:1054E80048464446C1FB0C4041F28C0105465958D8
:1054F8003846B046C1FB0C8041F210018146D2F813
:1055080010C4595828462646C1FB0C6041F2900148
:105518000746595848464446C1FB0C4041F214011D
:105528000546D2F814C459583846B046C1FB0C8019
:1055380041F294018146595828462646C1FB0C6021
:1055480041F218010746D2F8184459584846C2464D
:10555800C1FB04A041F29801834659583846B04629
:10556800C1FB048041F21C018146D2F81C745858D2
:1055780054465946C0FB074141F29C000D464E4631
:105588001958C1FB0786200D40EA0530C117841160
:10559800B1EB605F4FEA185040EA063018BF81F45B
:1055A800FF44DDF844A04FEAE07118BF84F07F049F
:1055B800B1EB605FAAF840404FEAA01418BF81F42D
:1055C800FF44119818BF84F07F04A0F8424000F10E
:1055D800080102F1400402F5806203F5807C139211
:1055E8001291D4F800906568DCF80080DCF85C6003
:1055F80000274FF00072C8FB09274FF000703B46A8
:105608000027C8FB05073946C5F10008CDE9022384
:105618001746C6FB0873029703930246C6FB092187
:105628004FF0000A0B46DCF880B04FF00076CBFB59
:10563800096A4FF0007057464FF0000ACBFB050A85
:105648005146CDE90667B246DCF8DC50C5FB08A731
:10565800CDF818A00797CDE904010646C5FB0961F6
:1056680004960591D4F80890E568DCF80480039E58
:105678000298C8FB090631461646C8FB05631F4653
:10568800C5F100080B468246DCF85820C2FB08A387
:105698009B46CDE902673B463046C2FB09030290B0
:1056A80003930698079BDCF88420C2FB090319467C
:1056B800059F049ADCF88460C6FB05273B46CDE9C4
:1056C80006010546DCF8D870C7FB08510695079116
:1056D800CDE904231646C7FB09630496059325699B
:1056E800DCF8086059465246C6FB05210B46DDF832
:1056F8000C8002986769C6FB070841467E429046BF
:10570800DCF85470C7FB06839946CDE902010B46C5
:105718008246C7FB05A30393CDF808A0DCF888B040
:10572800079B0698CBFB05031946DDF814A0049ADD
:105738006769CBFB072A5346CDE904018246DCF8AA
:10574800D470C7FB06A1CDF810A005919246C7FBFF
:1057580005A39B46DCF80C60DCF85050A06949466C
:105768004246C6FB00210B46DDF80C800298E7692B
:10577800C6FB070841467E429046C5FB068399460C
:10578800CDE902010B460746A269C5FB02730393E4
:105798000297059B0498DCF88C50C5FB0203194658
:1057A8005246E769C5FB072B5B46CDE9040107466E
:1057B800DCF8D050C5FB0671049705919246A069A4
:1057C800C5FB00A39B46DCF81060DCF84C50276A48
:1057D80049464246C6FB07210B46DDF80C80029875
:1057E800676AC6FB070841467E429046C5FB0683AA
:1057F8009946CDE902010B460746226AC5FB0273AA
:1058080003930297059B0498DCF89050C5FB0203AC
:1058180019465246676AC5FB072B5B46CDE904016A
:105828000746DCF8CC50C5FB0671049705919246F3
:10583800206AC5FB00A39B46DCF81460DCF84850DE
:10584800A76A49464246C6FB07210B46DDF80C808D
:105858000298E76AC6FB070841467E429046C5FBA8
:1058680006839946CDE902010B460746A26AC5FBA5
:10587800027303930297059B0498DCF89450C5FBC8
:10588800020319465246E76AC5FB072B5B46824668
:10589800DCF8C850C5FB06A18B46CDE904231746A2
:1058A800A66AC5FB067304970593DCF81870DCF844
:1058B8004450206B49464246C7FB00210B46DDF8A1
:1058C8000C800298666BC7FB0608414677429046F3
:1058D800C5FB07839946CDE906010B460646226BB0
:1058E800C5FB02630696079359465246DCF89800B2
:1058F800256BC0FB05210B46DDF814A00498DCF8E5
:105908009860656BC6FB050A5146CDE902239246AD
:10591800DCF8C460C6FB07A30393CDF808A0CDE963
:1059280004010B460546226BC6FB0253E66B049541
:10593800A76B05931096DCF81C5040344946424644
:10594800C5FB07210B46DDF81C800698C5FB060839
:105958004146C6F10008CDF818809246DCF8405060
:10596800C5FB08A39B4680460B46C5FB07839946A3
:105978000298039BDCF89C60C6FB07031946DDE927
:105988000423109DCDE90023059B049AC6FB05233B
:105998008DE80C0002910D46DCF8C030069EC3FB72
:1059A8000605DDE9002302952946DCF8C0601D469E
:1059B800C6FB07254FEA1A5747EA0B36B246089640
:1059C800F617B6EB6A5F2B464FEA2B574FEAAA1534
:1059D80018BF86F4FF454FEA1056099746EA013783
:1059E8004FEAE7704FEA215A18BF85F07F05129EEB
:1059F800CDF82CA0B0EB675F4FEA185A4FEAA71111
:105A080018BF80F4FF414AEA093026F8045C0A9777
:105A18000646129F0C904FEAE07018BF81F07F0194
:105A28004FEA125AB0EB665F27F8021C4FEAA6113C
:105A380018BF80F4FF414AEA03304FEAE072119F31
:105A4800DDF844A00E9018BF81F07F014FEA295578
:105A5800B2EB605FA7F87C100D9513994FEA2355B8
:105A68004FEAA01318BF82F4FF4312980F9518BF8E
:105A780083F07F03AAF87E300430AAF1040AA14219
:105A88000CF5807C1290CDF844A07FF4AAAD14B038
:105A9800BDE8F00F704700BF2DE9F041C56A8D429F
:105AA80004460E4602D0037973B916B90020BDE842
:105AB800F081607804F130013246012305F0DCFA08
:105AC80020BBE662BDE8F08100F13008414640782D
