:020000040800F2
:10000000A8D700209D0100088B4100088335000817
:1000100089410008CF200008757D0008000000001D
:10002000000000000000000000000000854A0008F9
:10003000792900080000000025420008714B0008E3
:10004000B7010008B7010008B7010008B7010008B0
:10005000B7010008B7010008BD300008ED30000806
:10006000B7010008B7010008B701000859270008C8
:10007000B7010008B7010008B7010008B701000880
:10008000B7010008B7010008B7010008B701000870
:10009000B7010008B7010008B7010008B701000860
:1000A000B7010008B7010008B7010008B701000850
:1000B000E14B0008B7010008E54B0008B701000854
:1000C000B7010008B7010008B7010008B701000830
:1000D0000D480008B7010008B7010008B701000883
:1000E000B7010008B7010008B7010008B701000810
:1000F000B7010008B7010008B70100085D27000834
:10010000B7010008B7010008B70100085D48000802
:10011000B7010008B7010008B7010008B7010008DF
:10012000B7010008B7010008B7010008B7010008CF
:10013000B7010008B7010008B7010008B7010008BF
:10014000B7010008B7010008B7010008194200080C
:10015000B7010008B7010008B7010008B70100089F
:10016000B7010008B7010008B7010008B70100088F
:10017000B7010008B7010008B7010008B70100087F
:10018000B7010008B7010008DFF80CD001F0F2FC5D
:100190000048004795980008A8D7002006488047E7
:1001A00006480047FEE7FEE7FEE7FEE7FEE7FEE75C
:1001B000FEE7FEE7FEE7FEE7914B00088901000835
:1001C00081FB0020704701464FF0000081EAE1709A
:1001D000A0EBE170704700002DE9F04F82B0019074
:1001E0004FF000744FF000784FF000054FF0000919
:1001F00052F804CB52F804EB0868CB6DC0FB0C45F9
:10020000D1F88000CEF1000EC3FB0E45D1F8DC30F2
:10021000C0FB0C89C3FB0E8952F804CB52F804EBE7
:1002200048688B6DC0FB0C45D1F88400CEF1000E00
:10023000C3FB0E45D1F8D830C0FB0C89C3FB0E8937
:1002400052F804CB52F804EB88684B6DC0FB0C45A8
:10025000D1F88800CEF1000EC3FB0E45D1F8D430A2
:10026000C0FB0C89C3FB0E8952F804CB52F804EB97
:10027000C8680B6DC0FB0C45D1F88C00CEF1000EA8
:10028000C3FB0E45D1F8D030C0FB0C89C3FB0E89EF
:1002900052F804CB52F804EB0869CB6CC0FB0C4558
:1002A000D1F89000CEF1000EC3FB0E45D1F8CC3052
:1002B000C0FB0C89C3FB0E8952F804CB52F804EB47
:1002C00048698B6CC0FB0C45D1F89400CEF1000E50
:1002D000C3FB0E45D1F8C830C0FB0C89C3FB0E89A7
:1002E00052F804CB52F804EB88694B6CC0FB0C4508
:1002F000D1F89800CEF1000EC3FB0E45D1F8C43002
:10030000C0FB0C89C3FB0E8952F804CB52F804EBF6
:10031000C8690B6CC0FB0C45D1F89C00CEF1000EF7
:10032000C3FB0E45D1F8C030C0FB0C89C3FB0E895E
:1003300001984FF4FE4E4EF0FF0E4FEA946444EAEB
:1003400085144FEAE47CBCEBE43F18BF8CEA0E0452
:100350004FEA986848EA89184FEAE87CBCEBE83F26
:1003600018BF8CEA0E080480A0F8028002F57072B3
:1003700001F580514FF000744FF000784FF0000508
:100380004FF0000952F804CB0868D1F88030C0FB68
:100390000C45C3FB0C8952F804CB4868D1F8843073
:1003A000C0FB0C45C3FB0C8952F804CB8868D1F81C
:1003B0008830C0FB0C45C3FB0C8952F804CBC868DD
:1003C000D1F88C30C0FB0C45C3FB0C8952F804CB30
:1003D0000869D1F89030C0FB0C45C3FB0C8952F87A
:1003E00004CB4869D1F89430C0FB0C45C3FB0C89A1
:1003F00052F804CB8869D1F89830C0FB0C45C3FB98
:100400000C8952F804CBC869D1F89C30C0FB0C456C
:10041000C3FB0C8901984FF4FE4E4EF0FF0E4FEADD
:10042000946444EA85144FEAE47CBCEBE43F18BFD3
:100430008CEA0E044FEA986848EA89184FEAE87C8B
:10044000BCEBE83F18BF8CEA0E08A0F84040A0F8CB
:100450004280A2F57872A1F570614FF00F0C00F1A7
:100460000400CDF800C001904FF000744FF0007808
:100470004FF000764FF0007A4FF000054FF0000982
:100480004FF000074FF0000B52F804CB52F804EB8A
:100490000868CB6DC0FB0C45C0FB0E67CEF1000EAB
:1004A000C3FB0C67C3FB0E45D1F8DC30D1F88000EC
:1004B000C3FB0E89C3FB0CABCEF1000EC0FB0C8955
:1004C000C0FB0EAB52F804CB52F804EB48688B6DBE
:1004D000C0FB0C45C0FB0E67CEF1000EC3FB0C67E2
:1004E000C3FB0E45D1F8D830D1F88400C3FB0E8988
:1004F000C3FB0CABCEF1000EC0FB0C89C0FB0EABF6
:1005000052F804CB52F804EB88684B6DC0FB0C45E5
:10051000C0FB0E67CEF1000EC3FB0C67C3FB0E459C
:10052000D1F8D430D1F88800C3FB0E89C3FB0CABE3
:10053000CEF1000EC0FB0C89C0FB0EAB52F804CB11
:1005400052F804EBC8680B6DC0FB0C45C0FB0E678E
:10055000CEF1000EC3FB0C67C3FB0E45D1F8D030C3
:10056000D1F88C00C3FB0E89C3FB0CABCEF1000E9F
:10057000C0FB0C89C0FB0EAB52F804CB52F804EB65
:100580000869CB6CC0FB0C45C0FB0E67CEF1000EBA
:10059000C3FB0C67C3FB0E45D1F8CC30D1F89000FB
:1005A000C3FB0E89C3FB0CABCEF1000EC0FB0C8964
:1005B000C0FB0EAB52F804CB52F804EB48698B6CCD
:1005C000C0FB0C45C0FB0E67CEF1000EC3FB0C67F1
:1005D000C3FB0E45D1F8C830D1F89400C3FB0E8997
:1005E000C3FB0CABCEF1000EC0FB0C89C0FB0EAB05
:1005F00052F804CB52F804EB88694B6CC0FB0C45F5
:10060000C0FB0E67CEF1000EC3FB0C67C3FB0E45AB
:10061000D1F8C430D1F89800C3FB0E89C3FB0CABF2
:10062000CEF1000EC0FB0C89C0FB0EAB52F804CB20
:1006300052F804EBC8690B6CC0FB0C45C0FB0E679D
:10064000CEF1000EC3FB0C67C3FB0E45D1F8C030E2
:10065000D1F89C00C3FB0E89C3FB0CABCEF1000E9E
:10066000C0FB0C89C0FB0EAB01F5807101984FF403
:10067000FE4E4EF0FF0E4FEA946444EA85144FEAB2
:10068000E47CBCEBE43F18BF8CEA0E044FEA9868A8
:1006900048EA89184FEAE87CBCEBE83F18BF8CEACF
:1006A0000E084FEA966646EA87164FEAE67CBCEBF0
:1006B000E63F18BF8CEA0E064FEA9A6A4AEA8B1A9E
:1006C0004FEAEA7CBCEBEA3F18BF8CEA0E0ADDF881
:1006D00000C000EBCC0E2EF8026B2EF802AB20F817
:1006E000024B20F8028BBCF1010C7FF4BAAE02B0D1
:1006F000BDE8F08F2DE9F04F82B001904FF000740B
:100700004FF0000552F804CB52F804EB0868CB6DAB
:10071000CEF1000EC0FB0C45C3FB0E4552F804CBD6
:1007200052F804EB48688B6DCEF1000EC0FB0C450F
:10073000C3FB0E4552F804CB52F804EB88684B6DAE
:10074000CEF1000EC0FB0C45C3FB0E4552F804CBA6
:1007500052F804EBC8680B6DCEF1000EC0FB0C45DF
:10076000C3FB0E4552F804CB52F804EB0869CB6C7E
:10077000CEF1000EC0FB0C45C3FB0E4552F804CB76
:1007800052F804EB48698B6CCEF1000EC0FB0C45AF
:10079000C3FB0E4552F804CB52F804EB88694B6C4E
:1007A000CEF1000EC0FB0C45C3FB0E4552F804CB46
:1007B00052F804EBC8690B6CCEF1000EC0FB0C457F
:1007C000C3FB0E4501984FF4FE4E4EF0FF0E4FEA6C
:1007D000946444EA85144FEAE47CBCEBE43F18BF20
:1007E0008CEA0E04048002F5707201F580514FF01E
:1007F00000744FF0000552F804CB0868C0FB0C45AC
:1008000052F804CB4868C0FB0C4552F804CB88680A
:10081000C0FB0C4552F804CBC868C0FB0C4552F82D
:1008200004CB0869C0FB0C4552F804CB4869C0FBF7
:100830000C4552F804CB8869C0FB0C4552F804CB38
:10084000C869C0FB0C4501984FF4FE4E4EF0FF0EF8
:100850004FEA946444EA85144FEAE47CBCEBE43F3D
:1008600018BF8CEA0E040484A2F57872A1F57061B9
:100870004FF00F0C00F10200CDF800C001904FF0D6
:1008800000744FF000764FF000054FF0000752F86B
:1008900004CB52F804EB0868CB6DC0FB0C45C0FBE1
:1008A0000E67CEF1000EC3FB0E45C3FB0C6752F87A
:1008B00004CB52F804EB48688B6DC0FB0C45C0FBC1
:1008C0000E67CEF1000EC3FB0E45C3FB0C6752F85A
:1008D00004CB52F804EB88684B6DC0FB0C45C0FBA1
:1008E0000E67CEF1000EC3FB0E45C3FB0C6752F83A
:1008F00004CB52F804EBC8680B6DC0FB0C45C0FB81
:100900000E67CEF1000EC3FB0E45C3FB0C6752F819
:1009100004CB52F804EB0869CB6CC0FB0C45C0FB60
:100920000E67CEF1000EC3FB0E45C3FB0C6752F8F9
:1009300004CB52F804EB48698B6CC0FB0C45C0FB40
:100940000E67CEF1000EC3FB0E45C3FB0C6752F8D9
:1009500004CB52F804EB88694B6CC0FB0C45C0FB20
:100960000E67CEF1000EC3FB0E45C3FB0C6752F8B9
:1009700004CB52F804EBC8690B6CC0FB0C45C0FB00
:100980000E67CEF1000EC3FB0E45C3FB0C6701F5ED
:10099000807101984FF4FE4E4EF0FF0E4FEA9464C2
:1009A00044EA85144FEAE47CBCEBE43F18BF8CEAD0
:1009B0000E044FEA966646EA87164FEAE67CBCEBE1
:1009C000E63F18BF8CEA0E06DDF800C000EB8C0E87
:1009D0002EF8026B20F8024BBCF1010C7FF44CAFF7
:1009E00002B0BDE8F08F00002DE9F05F0446FF483B
:1009F000FD4901600268FE48FE490026824232D16C
:100A00000860E661A66166612661A662666226628A
:100A10006068DFF8E4A3DFF8E4B304F11005814671
:100A200010F0FF4F21D0208800F0D9FF52465B46DE
:100A300000F066FF07468846484600F0F4FF3A4655
:100A4000434600F047FE074688460821484600F026
:100A500035FE00F0E8FF3A46434600F051FF00F053
:100A6000CBFFA88302E00E60FEE7AE83A76817F015
:100A7000FF4F1FD0B4F80080404600F0B0FF06469C
:100A80008946384600F0CFFF52465B4600F0C8FE6C
:100A90004B46324600F01EFE06460F464FEA08203F
:100AA00000F09DFF32463B4600F02AFF00F0A4FF15
:100AB000E88300E0EE8320884FF47A71B0FBF1F018
:100AC0002884BDE8F09F2DE9FF4FCA49C84A97B076
:100AD0000968914200D0FEE71A99103100250A6991
:100AE00003924A6908928A690792D1E901620C6807
:100AF0000592CA6806921A9A8B8B92890993CB8BBE
:100B00000E9316E10778BE4BA3F5807813F807C063
:100B1000B444CDF844C018F8076010F802A004EB04
:100B20004606A3F5007413F80AC0E75D0CEB06094E
:100B3000CDF82C9010F8129018F80A6007EB4606D2
:100B400013F809C014F80A700CEB060E18F80960C7
:100B500002EB420C07EB460614F80970CDF84CC0C6
:100B600010F80C9013F809C00CEB060B18F809608C
:100B700007EB460614F8097010F8229013F809C024
:100B8000B444CDF848C018F8096002EB820C07EBBA
:100B9000460614F8097010F80C9013F809C00CEB15
:100BA000060A18F80960DDF84CC007EB460614F891
:100BB000097010F81C9013F809C0B444CDF850C067
:100BC00018F8096014F809C007EB4606C2EBC20723
:100BD000DDF82C90C75DDB5D3344139318F80730C4
:100BE000E45D0CEB4306C9EBC903DDF844C003EB3D
:100BF0004307CCEBCC0307EB8303CEEB0E1C634423
:100C00000BEB8B0C03EB4C03DDF848C00CEB4C08F2
:100C100003EB48030AEB4A0C6344DDF850C09C44E4
:100C2000069B6344DDF844C001930CEBCC039B00AE
:100C300003EB4703CEEBCE0707EB0E1703EB47039F
:100C40000BEB4B0703EB0713CAEBCA0703EB0813C5
:100C500007EB0A17DDF850C003EB4703CCEBCC07DA
:100C600007EB470803EB4807139BDDF848C003EB8D
:100C7000C30307EB8307059B0CEB8C0C3B440693EB
:100C80000BEB4B070EEB4E037F004B4407EB4C077F
:100C90003B44CAEB0A173B4403EB0807139BC3EB27
:100CA000C30307EB83030593019B0E9FA3F500335A
:100CB0008FB1039F07EB030C089FACEB0707DDF830
:100CC00038C007FB0CF74FEAE77C07EB1C673F12C5
:100CD000039708933B46099F77B1DDF81CC0C7F521
:100CE000807707FB0CF7DDF824C00CFB0373DF17DC
:100CF00003EB17631B120793199F7B43002B01DD46
:100D0000083300E0083BDF1703EB17733D4F1B115F
:100D1000BB4203DB7F42BB4200DC1F463B461A9FBF
:100D2000DDF860C000EBC200FF896F436D1C2CF83A
:100D300017300B8CAB423FF7E5AEC1E90046059892
:100D400088600698C8600398086108984861079809
:100D5000886198B21BB0BDE8F08F2DE9FF4F25499F
:100D6000234A97B00968914200D0FEE71A991031E2
:100D700000250A6903924A6908928A690792D1E9B3
:100D800001620C680592CA6806921A9A8B8B928946
:100D90000993CB8B0E9328E10778194BA3F5807844
:100DA00013F807C0B444CDF844C018F8076010F831
:100DB00002A004EB4606A3F5007413F80AC0E75D31
:100DC0000CEB0609CDF82C9010F8129018F80A6078
:100DD00007EB460613F809C014F80A700CEB060E70
:100DE00018F8096010E00000C2A507F400300240C6
:100DF000CDB5E8B5900100201F85EB51B81E194014
:100E0000940300204480FFFF07EB460614F80970A6
:100E100002EB420CCDF84CC010F80C9013F809C04E
:100E20000CEB060B18F8096007EB460614F809707E
:100E300010F8229013F809C0B444CDF848C018F84F
:100E4000096002EB820C07EB460614F8097010F8F3
:100E50000C9013F809C00CEB060A18F80960DDF8CD
:100E60004CC007EB460614F8097010F81C9013F8F4
:100E700009C0B444CDF850C018F8096014F809C08E
:100E800007EB4606C2EBC207DDF82C90C75DDB5DC1
:100E90003344139318F80730E45D0CEB4306C9EBB9
:100EA000C903DDF844C003EB4307CCEBCC0307EBED
:100EB0008303CEEB0E1C63440BEB8B0C03EB4C0358
:100EC000DDF848C00CEB4C0803EB48030AEB4A0C76
:100ED0006344DDF850C09C44069B6344DDF844C085
:100EE00001930CEBCC039B0003EB4703CEEBCE0747
:100EF00007EB0E1703EB47030BEB4B0703EB071353
:100F0000CAEBCA0703EB081307EB0A17DDF850C05A
:100F100003EB4703CCEBCC0707EB470803EB480791
:100F2000139BDDF848C003EBC30307EB8307059B66
:100F30000CEB8C0C3B4406930BEB4B070EEB4E0378
:100F40007F004B4407EB4C073B44CAEB0A173B447A
:100F500003EB0807139BC3EBC30307EB8303059362
:100F6000019B0E9FA3F500338FB1039F07EB030C8A
:100F7000089FACEB0707DDF838C007FB0CF74FEA1A
:100F8000E77C07EB1C673F12039708933B46099FDA
:100F900077B1DDF81CC0C7F5807707FB0CF7DDF8EB
:100FA00024C00CFB0373DF1703EB17631B120793BB
:100FB000199F7B43002B01DD083300E0083BDF175E
:100FC00003EB1773FE4F1B11BB4203DB7F42BB4297
:100FD00000DC1F463B461A9FDDF860C000EBC200F4
:100FE000FF896F436D1C2CF817300B8CAB423FF719
:100FF000D3AEC1E90046059888600698C86003989A
:101000000861089848610798886198B2A2E62DE9BE
:10101000FF4FEC49EC4A97B00968914200D0FEE7D7
:101020001A99103100250A6903924A6908928A695F
:101030000792D1E901620C680592CA6806921A9A71
:101040008B8B92890993CB8B0E9317E1DD4B07783D
:101050001B1D03F5807813F807C0B444CDF844C0D5
:1010600018F8076010F802A004EB460603F50074B8
:1010700013F80AC0E75D0CEB0609CDF82C9010F8C8
:10108000129018F80A6007EB460613F809C014F826
:101090000A700CEB060E18F8096002EB420C07EB25
:1010A000460614F80970CDF84CC010F80C9013F8EF
:1010B00009C00CEB060B18F8096007EB460614F89C
:1010C000097010F8229013F809C0B444CDF848C054
:1010D00018F8096002EB820C07EB460614F8097059
:1010E00010F80C9013F809C00CEB060A18F8096008
:1010F000DDF84CC007EB460614F8097010F81C9098
:1011000013F809C0B444CDF850C018F8096014F8B9
:1011100009C007EB4606C2EBC207DDF82C90C75D9D
:10112000DB5D3344139318F80730E45D0CEB4306A2
:10113000C9EBC903DDF844C003EB4307CCEBCC0398
:1011400007EB8303CEEB0E1C63440BEB8B0C03EB22
:101150004C03DDF848C00CEB4C0803EB48030AEBEA
:101160004A0C6344DDF850C09C44069B6344DDF8A0
:1011700044C001930CEBCC039B0003EB4703CEEB85
:10118000CE0707EB0E1703EB47030BEB4B0703EB05
:101190000713CAEBCA0703EB081307EB0A17DDF8BE
:1011A00050C003EB4703CCEBCC0707EB470803EB3E
:1011B0004807139BDDF848C003EBC30307EB830725
:1011C000059B0CEB8C0C3B4406930BEB4B070EEB97
:1011D0004E037F004B4407EB4C073B44CAEB0A1716
:1011E0003B4403EB0807139BC3EBC30307EB8303E9
:1011F0000593019B0E9FA3F500338FB1039F07EB6F
:10120000030C089FACEB0707DDF838C007FB0CF7B1
:101210004FEAE77C07EB1C673F12039708933B46B6
:10122000099F77B1DDF81CC0C7F5807707FB0CF785
:10123000DDF824C00CFB0373DF1703EB17631B12ED
:101240000793199F7B43002B01DD083300E0083B27
:10125000DF1703EB17735A4F1B11BB4203DB7F42AF
:10126000BB4200DC1F463B461A9FDDF860C000EB26
:10127000C200FF896F436D1C2CF817300B8CAB42FA
:101280003FF7E4AEC1E90046059888600698C8605B
:1012900003980861089848610798886198B259E5F1
:1012A0002DE9FF4F4749484A98B00968914200D05C
:1012B000FEE71B99103100250A6902924A690692DD
:1012C0008A690492D1E901620B680592CA680892A2
:1012D0001B9A94898A8B0992CA8B10926BE1394AC6
:1012E0000778121D02F5807812F807C0B444CDF8D3
:1012F00058C018F8076010F804A003EB460602F582
:10130000007312F80AC0DF5D0CEB0609CDF82890D7
:1013100010F8149018F80A6007EB460612F809C096
:1013200013F80A70B444CDF82CC018F8096004EB27
:10133000440A07EB460613F8097010F80A9012F8F1
:1013400009C0B444CDF838C018F8096007EB460668
:1013500013F8097010F8249012F809C0B444CDF8BD
:101360003CC018F8096004EB840C07EB460613F840
:101370000970CDF854C010F80C9012F809C0B444AC
:10138000CDF844C018F8096007EB460613F8097059
:1013900010F81A9012F809C00CEB060E18F8096044
:1013A000C4EBC40C07EB460613F8097010F80C9058
:1013B00012F809C00CEB060A18F8096006E00000F4
:1013C0004480FFFF90010020CDB5E8B507EB46064D
:1013D00013F8097010F8349012F809C00CEB060BE2
:1013E00018F8096013F809C007EB460604EBC407B8
:1013F000DDF82890C75DD25DDB5D324418F80760E8
:101400000CEB4606DDF858C0CCEB0C1707EB470792
:1014100009EBC90C07EB8C07DDF82CC0CCEBCC0C2E
:1014200007EB8C07DDF838C0CCEBCC0C0CEB4C0C8C
:101430006744DDF83CC0CCEB0C1C6744DDF844C0CD
:101440000CEB8C0C07EB4C070EEB4E0C07EB4C0730
:101450000AEB4A0C674407EB0B0C089F6744DDF866
:1014600058C001970CEBCC07C7EB8C17C9EB891C54
:101470006744DDF82CC00CEB8C0808EB8C1C67442F
:10148000DDF838C00CEBCC0808EB8C1C6744DDF8A9
:101490003CC00EEBCE08CCEB0C1C0CEB8C0C674468
:1014A000DDF844C0CCEB0C1C0CEB8C0C674408EB57
:1014B0008E1C67440AEB8A0808EB8A1C6744CBEB56
:1014C0008B1C674402EBC20CCCEB821CBC44059F16
:1014D000C2EB02126744DDF82CC008970CEB4C07F6
:1014E000DDF838C04F440CEB4C0C4FEA4C08DDF8EB
:1014F0003CC002EB42020CEB8C0C08EB4C0C67443A
:10150000DDF844C0CCEB0C1C6744CEEBCE0C0CEBEE
:101510004C0C6744CAEBCA0C07EB8C070BEBCB0CEB
:1015200007EB8C073A440592019F109AA7F57A378A
:101530008AB1029A02EB070C069AACEB0202DDF8C4
:1015400040C0069702FB0CF24FEAE27C02EB1C6201
:10155000121202921746099A7AB1DDF810C0C2F54C
:10156000807202FB0CF2DDF824C00CFB0722D717B7
:1015700002EB17621212174604921A9A5743002F71
:1015800001DD103700E0103FFA1707EBD262144F6D
:101590005211BA4203DB7F42BA4200DC17463A4698
:1015A0001B9FDDF864C0FF896F436D1C2CF817206A
:1015B000159A00EB42000A8CAA423FF790AEC1E9AF
:1015C0000036059888600898C860029808610698F7
:1015D0004861049888611CB090B2BDE8F08F0000AB
:1015E0004480FFFF10B5431A934209D2831888182C
:1015F00003E010F8011D03F8011D521EF9D210BDC1
:1016000040EA01039B0703D009E008C9121F08C084
:10161000042AFAD203E011F8013B00F8013B521E04
:10162000F9D210BDD2B201E000F8012B491EFBD265
:1016300070470022F6E710B50446084611460246F8
:101640002046FFF7EFFF204610BD30B50EE0034601
:101650000A4601E05B1C521C1C781578AC4201D193
:10166000002CF7D115F0FF0F04D0401C0278002A9F
:10167000EDD1002030BD10B5044604E00B7800F831
:10168000013B03B1491C521EF8D2204610BD014651
:10169000002000E0401C0A5C002AFBD1704730B5F6
:1016A00005460020034600E05B1C934205D2EC5C3B
:1016B000C85C201A01D1002CF6D130BD420005D003
:1016C000C0F3C7525242914201DC0020704700EB48
:1016D000C15070472DE9FE4F074681EA0300C00F55
:1016E0000E46019021F0004123F00044B81AA141B8
:1016F00005D23846314617461E460B46024623F0B1
:101700000040104304D13846314603B0BDE8F08FA5
:10171000350DC5F30A00C3F30A510290401A009038
:10172000402868DAC3F3130040F4801B0198924606
:1017300020B10023D2EB030A63EB0B0B0098594650
:10174000C0F14002504600F084F980460C465046F5
:101750005946009A00F09CF9C0197141EF1785EACB
:1017600011533B4340D0019A52B3009A012A11DC35
:101770000022801A4FF0004361EB055103EA055344
:101780008018CDE9002341F580114246234600F040
:101790009EF9BAE72E050025401B61EB06014019B2
:1017A00041F58012001852412818A6F5001343EBAA
:1017B000020140EAD470294318EB0808644113E0A1
:1017C00064084FEA38084FF0000244EAC0744FEA58
:1017D0000553801A61EB0301801841F58011490817
:1017E0004FEA3000801859414246234603B0BDE815
:1017F000F04F00F05FB90198012240000023D0EBC8
:10180000020263EBE07301984FEAE074381A66EB6A
:101810000401EBE783F000435CE781F0004159E706
:101820002DE9FE4F81EA030421F0004504F0004455
:1018300023F000414FF0000A009450EA050302D063
:1018400052EA010304D10020014603B0BDE8F08F45
:10185000C1F30A53C5F30A541C44A0FB02B3C5F3F9
:10186000130545F4801CC1F3130141F480180CFBEF
:10187000023300FB083EA4F2F334810A930A41EAE2
:101880008C5143EA88530194A1FB03474FEA9C25FE
:1018900005FB03734FEA982601FB06373D05260535
:1018A00045EA1435BBEB06016EEB0503850E920E7F
:1018B00045EA8C1542EA8812A5FB0206261E67EB54
:1018C00000070C0D44EA0334A41947EB1350C1F38D
:1018D00013064FF0000319464FEA033343EA165349
:1018E00043EA0403019CE5FB0201A4F10C04029409
:1018F000009C4FEA0632CDE900A400F0E8F8A4E726
:101900002DE9F04D81EA030404F0004B21F000477B
:1019100014464FF0000A23F0004150EA070220D09D
:1019200054EA01021DD0C1F30A550246C1F3130067
:10193000C7F30A56C7F3130340F4801143F480132E
:10194000A6EB0508101BD64608F2FD3873EB010024
:1019500002D308F1010801E092185B41B8F1000FD1
:1019600003DA00200146BDE8F08D00204FF4801519
:10197000064607460EE0B2EB040C73EB010C04D3F1
:10198000121B064363EB01032F436D084FEA30003F
:1019900092185B4150EA050CEDD152EA030012D0D7
:1019A00082EA040083EA0105284303D100224FF0B4
:1019B000004308E0101B8B4102D20122002302E009
:1019C0006FF0010253101AEB060047EB085110EBC1
:1019D0000A0041EB0B01BDE8F04D00F06BB80EB50D
:1019E00040F2334102910021CDE900110A460B4635
:1019F00000F06DF803B000BDC1F30A52C1F313014A
:101A000040F2FF3341F480119A4201DA002070471E
:101A100040F233439A42A2F2334202DC524200F0D7
:101A200027B89040704700F0004230F000400DD0E1
:101A3000C10D01F5607142EA01510022C0F31600A8
:101A4000520742EAD0024007114370470020014686
:101A50007047202A04DB203A00FA02F10020704788
:101A60009140C2F1200320FA03F3194390407047DC
:101A7000202A04DB203A21FA02F00021704721FAE3
:101A800002F3D040C2F1200291400843194670474A
:101A9000202A06DBCB17203A41FA02F043EAE07134
:101AA000704741FA02F3D040C2F12002914008434E
:101AB0001946704710B5002B08DA401C41F10001AF
:101AC00092185B411A4301D120F0010010BD2DE9AD
:101AD000F04D92469B4611B1B1FA81F202E0B0FAA4
:101AE00080F220329046FFF7B4FF06460F4640EAE8
:101AF0000A0041EA0B0152465B46084303D13046D7
:101B00003946BDE8F08D194652EA010015D0C8F1FA
:101B100040025046FFF7ACFF04460D46504659467A
:101B20004246FFF796FF084301D0012000E0002065
:101B3000044345EAE07526432F430A984FEAD62529
:101B4000A0EB08000A304FEA46534FF0000245EA86
:101B500047554FEAD72402D500200146D1E70105B9
:101B600050196141DDE9084500196941BDE8F04DB2
:101B7000A0E70000064C074D06E0E06840F00103D6
:101B800094E8070098471034AC42F6D3FEF700FB08
:101B9000F0E9000810EA000870B501EB020410F843
:101BA000015B15F0070301D110F8013B2A1106D1A2
:101BB00010F8012B03E010F8016B01F8016B5B1EBC
:101BC000F9D12B0705D40023521E0FD401F8013B95
:101BD000FAE710F8013B02F10202A1EB030303E074
:101BE00013F8015B01F8015B521EF9D5A142D6D36F
:101BF000002070BD70B503461348144E0D4680F8A2
:101C0000583001663168C165114800240321847091
:101C1000C2704170284607F0E3FF284606F006F937
:101C20000C4804600C4804600C49062008700C49FC
:101C3000012008700B48047030698100A6F510502F
:101C4000BDE8704000F0D4B940C70020D451002056
:101C50006C010020E0000020780000200600002039
:101C60000400002005000020034910B14A78824397
:101C70004A704878704700006C01002010B50021C0
:101C8000034803F028F8034800218170C16110BDAA
:101C9000001000406C0100202DE9F05F04460E4664
:101CA00001E1834DD4F844B0D4F848A0D5F80080C1
:101CB00059464046D5F80490FEF782FA0746514649
:101CC0004846FEF77DFA381A4000606451464046A7
:101CD000FEF776FA074659464846FEF771FA384449
:101CE0004000A064D4F840B0D5F80890D4F84C80F7
:101CF00059464846D5F80CA0FEF762FA0746414619
:101D00005046FEF75DFA381A4000206441464846C6
:101D1000FEF756FA074659465046FEF751FA384440
:101D20004000E064D4F83CB0D5F81090D4F850806E
:101D300059464846D5F814A0FEF742FA07464146F0
:101D40005046FEF73DFA381A4000E06341464846E7
:101D5000FEF736FA074659465046FEF731FA384440
:101D600040002065D4F838B0D5F81880D4F85490E5
:101D700059464046D5F81CA0FEF722FA07464946C8
:101D80005046FEF71DFA381A4000A0634946404607
:101D9000FEF716FA074659465046FEF711FA384440
:101DA00040006065D4F834B0D5F820A0D4F858804D
:101DB00059465046D5F82490FEF702FA07464146A8
:101DC0004846FEF7FDF9381A400060634146504628
:101DD000FEF7F6F9074659464846FEF7F1F938444A
:101DE0004000A065D4F830B0D5F828A0D4F85C80C5
:101DF00059465046D5F82C90FEF7E2F90746414681
:101E00004846FEF7DDF9381A400020634146504647
:101E1000FEF7D6F9074659464846FEF7D1F9384449
:101E20004000E065D4F82CB0D5F830A0D4F860803C
:101E300059465046D5F83490FEF7C2F90746414658
:101E40004846FEF7BDF9381A4000E0624146504668
:101E5000FEF7B6F9074659464846FEF7B1F9384449
:101E600040002066D4F82880D5F838A0D4F86490D3
:101E7000ED6B41465046FEF7A3F907464946284612
:101E8000FEF79EF9381A4000A06249465046FEF718
:101E900097F9074641462846FEF792F93844400034
:101EA00060664834761E002E3FF7FBAEBDE8F09F1B
:101EB000A8BE000808B505A00549006800900020EC
:101EC00006F080FF684607F045FE08BD303A000086
:101ED000F065002070B5104CA668E56BA16AA0699A
:101EE00000F0F0FC38B13146284601F0CBF8A16A89
:101EF000A06900F035FCE16AA06900F0E3FC00286D
:101F000009D03146284601F017F8E16AA069BDE81A
:101F1000704000F025BC70BDD8000020F8B5314CF1
:101F200020690126002501283ED10121606902F0C7
:101F300077FA0021A06900F029FCA06900F030FCCC
:101F40002948216A0160E169C0E901154021C160A9
:101F50004FF6FE71C0E90415B10281614900C1610B
:101F600089000162491141624902C0E90A1505630D
:101F7000456301468563A06900F0D4FC012210216D
:101F8000A06900F0B9FC01220821A06900F0B4FCAE
:101F9000606A8DF800008DF801508DF802508DF8C0
:101FA0000360684602F0F2F82069104C012813D053
:101FB00000F090FB01227121204602F0BCFC33208E
:101FC0008DF800008DF801508DF802508DF80360F7
:101FD000684602F0DBF8F8BD01220221204602F03B
:101FE0005DFCF8BDD8000020FC1A0020003C004039
:101FF00070B5104C2569104A2346012D9B699060ED
:1020000013D011610C49184600F08CFC0121A06925
:1020100000F0BCFB09480088400509D4BDE87040C9
:10202000064801211C3801F024BC48081061E9E78A
:1020300070BD0000D8000020FC1A00201C3C0040AD
:1020400010B5074C2060084600F00CF82068002806
:10205000FCD1BDE8104000214FF0804002F03BBEB3
:10206000240000203EB504464FF08045002128465C
:1020700002F031FE00220121284602F043FE022C2C
:1020800002D0012C02D004E00B2001E042F6DF6018
:1020900001900520ADF800000020ADF80800ADF873
:1020A00002006946284602F0CBFE0121284602F0D4
:1020B0000FFE0121284602F001FE012211462846AA
:1020C00002F020FE0121284602F005FE3EBDFEE79B
:1020D00008B1002103E020207047491C400000287F
:1020E000FBDA0846704708B1002103E02020704762
:1020F000491C40000028FBDA084670470748017871
:10210000074829B1012908D10021017005F08EBFCF
:102110000078002801D105F099BE70472800002002
:10212000000000200022134601E08354521C8A4222
:10213000FBDB704730B50446012189B0C80302F0CB
:1021400087F9154D284602F0B1FB0294002468156A
:10215000ADF80240ADF80440ADF80000ADF806005F
:10216000ADF80C406946284601F08EFB0B4800692B
:1021700002280ED10121000702F06AF904940594A7
:1021800004A90020079400F0CDFA0121002000F0FE
:1021900095FA09B030BD0000003C0040D800002096
:1021A0002DE9FC410121082002F03AF901278DF8C0
:1021B000047002248DF80540002510268DF8065085
:1021C00000968DF807506946374801F033F9012130
:1021D000072002F025F98DF804408DF805408DF8B0
:1021E00006704FF41070314F00908DF8075069461B
:1021F000384601F01FF904220621384601F058F94B
:1022000004220921384601F053F98DF804404FF4B7
:10221000A0508DF80540264F00908DF806508DF89F
:1022200007506946384601F005F9DFF88880062234
:102230000421404601F03CF906220A21384601F00B
:1022400037F91D48006902280AD0694640460096C1
:1022500001F0F0F806220C21384601F029F90DE0D2
:102260000121084602F0DCF803208DF804000096F6
:102270008DF807506946404601F0DCF88DF80440BF
:1022800080208DF8054000908DF806508DF807509D
:102290006946384601F0CEF806220721384601F09B
:1022A00007F9BDE8FC810000000C02400004024078
:1022B0000008024000000240D80000202DE9FF4144
:1022C0000E461746FFF76CFF00F050F90121480554
:1022D00002F0BEF8404C204601F01EFA0020ADF896
:1022E00004004BF6FF70ADF806003320ADF808008F
:1022F0002015ADF80A000001ADF80C003748009039
:102300000121204601F0FDF96946204601F04AFA14
:102310000121022000F052F90446AF21042000F010
:102320004DF92F4D0444AF2028708121052000F085
:1023300045F904440421062000F040F904443046E5
:1023400000F02AF92869022818D10121082000F09C
:1023500035F904440121092000F030F90444C0217A
:102360000E2000F02BF904440021142000F026F97F
:1023700004440021152000F021F904449E2102208C
:1023800000F01CF9044400210A2000F017F904446D
:102390002869022804D004210E2000F00FF904441B
:1023A0000021272000F00AF904440F211F2000F02B
:1023B00005F904440A211A2000F000F904440A2116
:1023C0001B2000F0FBF804443846FFF7B3FE04B0CE
:1023D0002046BDE8F081000000540040A0860100C6
:1023E000D8000020012804D003480178042000F020
:1023F000E5B8FF21FAE70000D80000202DE9F047FA
:10240000544C81464FF49610E0604FF40036524D24
:1024100004E0E268501EE060002A72D0314628468F
:1024200001F0B0F90028F4D10121284601F096F915
:102430004FF48056E660494F04E0E068411EE160D9
:1024400000285ED03946284601F04CF90028F4D027
:1024500000229421284601F002FAE660DFF80081AC
:1024600004E0E068411EE16000286ED04146284645
:1024700001F038F90028F4D04946284601F0F7F970
:10248000E660DFF8E08004E0E068411EE1600028DB
:102490005BD04146284601F075F90028F4D00121AF
:1024A000284601F05BF9E66003E0E068411EE16068
:1024B00038B33946284601F015F90028F5D0012235
:1024C0009421284601F0CBF9E660264FBF1E03E0B9
:1024D000E068411EE160A0B13946284601F052F99A
:1024E0000028F5D00021284601F0F2F81A481830EB
:1024F00000880121284601F03BF9E660194F3C377E
:1025000004E022E0E068411EE160F0B1394628466F
:1025100001F038F90028F5D0284601F09DF907466A
:10252000E66004E0E068A0F10101E16068B128889C
:102530008005F7D40121284601F0CAF80A49284647
:1025400001F0DCF83846BDE8F087BDE8F04700F060
:1025500021B80000D8000020005400400100030012
:1025600082000700040000100004001010B5084CA1
:1025700000221021204600F0AFFF44F6FF71491EF3
:10258000FDD120460122BDE81040102100F0A4BF7B
:10259000000C02400020704770B5E62801D9E738EA
:1025A00000E01930C1B20D46202000F007F80446C3
:1025B0002946212000F002F8204470BD2DE9F047A3
:1025C000394C4FF4961782468846E7604FF4003640
:1025D000364D03E0E068411EE160A0B33146284675
:1025E00001F0D0F80028F5D10121284601F0B6F815
:1025F0004FF48056E660DFF8B89003E0E068411ED3
:10260000E16000B34946284601F06CF80028F5D097
:1026100000229421284601F022F9E660DFF8949028
:1026200003E0E068411EE16068B14946284601F0D8
:1026300059F80028F5D05146284601F018F9E6600F
:102640001C4EB61E04E010E0E068411EE16060B17F
:102650003146284601F046F80028F5D04146284684
:1026600001F005F9E760144E09E0BDE8F047FFF717
:1026700091BFE268501EE0600AB9FFF78BFF314658
:10268000284601F07FF80028F3D00121284601F008
:102690006FF85046FFF7B2FE404502D00120BDE87A
:1026A000F0870020FBE70000D80000200054004025
:1026B000010003008200070004000010044B012207
:1026C0008240186809B1104300E0904318607047D9
:1026D0000074004010B586B00121104801F0A0FE42
:1026E0000121480701F0B4FE1020049003208DF86A
:1026F000140000248DF8174004A9094800F09AFE40
:102700000094019469460020039400F00BF8012125
:102710000020FFF7D3FF06B010BD0000010020002D
:102720000000024030B5084C236840F6FE7282403B
:102730009343D1E900252A43D1E902510D432A43AD
:1027400082401A43226030BD00740040014A1044A8
:102750008160704700740040FFF7BCBBFFF7BABB55
:10276000074A904201D2074801E005481038064A5E
:102770008B0001EA020101D5C1607047816070479A
:1027800010640240006002407D0F7D0F0029016847
:1027900002D041F0010101E021F001010160704728
:1027A0002DE9F043016821F0010101600021016081
:1027B00041608160C1600161212141613C493C4B24
:1027C0003D221039984202D18A60BDE8F083384C2E
:1027D0004FF474631834A04201D18B60F5E7344D97
:1027E0004FF474143035A84201D18C60EDE7304EBF
:1027F0004FF074654836B04201D18D60E5E72C4F4B
:102800002C4E6037B84201D1CE60DEE7284FDFF8AA
:10281000A8C07837B84202D1C1F80CC0D5E7244F20
:10282000DFF898809037B84202D1C1F80C80CCE72D
:102830001F4F4FF03D59A837B84202D1C1F80C9054
:10284000C3E71F491E4F0839B84201D10A60BCE7EF
:102850001B4A1832904201D10B60B6E7184A303259
:10286000904201D10C60B0E7154A4832904201D144
:102870000D60AAE7124A12496032091F904201D145
:102880000E60A2E70E4A7832904202D1C1F800C031
:102890009BE70B4A9032904202D1C1F8008094E746
:1028A000074AA832904290D1C1F800908DE700000D
:1028B000106002403D000020400F002000003D203D
:1028C000106402400246094B00209A4201D2084A95
:1028D00001E0064A103A8B0001D5526800E0126808
:1028E000044B1A400A4200D0012070471064024095
:1028F000006002407D0F7D0F0B0607D5436912B1C2
:1029000043F0800301E023F080034361802908D075
:10291000002A026801F01E0101D00A4300E08A4348
:102920000260704730B50368124ACC6813400A68E9
:102930002243D1E905452C432243CC6922430C6A4A
:1029400022434C6A22438C6A22434C6B22438C6B99
:1029500022431A430260426922F00703D1E90B24A3
:1029600022431A4342610A6942604A688260896868
:10297000C16030BD3F801CF0704700002DE9FE4F64
:102980008146DDE90C45002936DD4FF0FF3A002B8A
:1029900025DBB3480293B34E50F8220006EB400B00
:1029A000B14850F8326000EBC200009690F804C0C5
:1029B00000206A4212F0070204D014F8010BC2F1A1
:1029C0002005A8409B1ABCF1000F09D0BCF1010FF3
:1029D00015D0BCF1030F73D0BCF1020F70D03DE1F4
:1029E0000020024606E000BF49F8202009EB8003E2
:1029F000801C5A608842F7DB0020BDE8FE8FBBF8E0
:102A000000500BF1020805F00F0E0027102B0DDB14
:102A10002578C2F11806B54005436078A41CC2F1C0
:102A20001006B04028431032103B41E002EB030C8B
:102A3000BCF1000FD3DD002B05DD14F8015BC2F102
:102A40001806B5402843082B05DD14F8013BC2F1F8
:102A5000100293401843ACF101064FF00045354198
:102A6000002328400B270CF10B0221E0CEF12005BA
:102A700020FA05F538F81560350B521BA840C6F34F
:102A800003152DB100F0004C40004CEA0505521E24
:102A9000C6F303262EB100F0004C40004CEA0606B7
:102AA000521EBA429BDBC9E9005609F10809891E8A
:102AB000002903DD0B2AA9DBD8E701E0D01BC9E020
:102AC00000265D460196102B0DDB2678C2F1180713
:102AD000BE4006436078A41CC2F11007B8403043E2
:102AE0001032103BAEE002EB0308B8F1000F7ADDC4
:102AF000002B0EDD14F8016BC2F11807BE40304305
:102B0000082B06DD14F8013BC2F1100203FA02F2B1
:102B10001043A8F101024FF0004616410023304057
:102B20000B22019208F10B028CE02E8806F00F07B1
:102B3000C7F1200620FA06F605EB4606B6F8028035
:102B40005FEA183609D0921BC8F3031EB040C8F3E1
:102B50000328BEF10F0F05D030E0D21BB84005EBC3
:102B600048056FE0BCF1030F2BD1B8F1000F01D085
:102B7000012600E00026009D77197F1CD518BD4274
:102B80006CDB07E014F8015BC2F11806B54028437E
:102B90000832083BBA42F5DB002B06DA1A44561E0F
:102BA0004FF00045002335412840009DC5F1200528
:102BB00020FA05F5AE44009D521BA840BEF1000F5F
:102BC00005D000F00045400045EA0E0E521EB8F157
:102BD0000F0F25D1BCF1030F25D1009FD5187F1C05
:102BE000BD423BDB08E039E014F8015BC2F1180696
:102BF000B54028430832083BBA42F5DB002B06DA21
:102C00001A44561E4FF00045002335412840009DD0
:102C1000C5F1200520FA05F5A844009D521BA840E7
:102C2000B8F1000F05D000F00045400045EA080863
:102C3000521E019DAA4211DBC9E900E809F1080909
:102C4000891E5D46002903DD0B2AFFF63CAF6CE7C9
:102C50000198101A02991844081ACEE65046CCE69C
:102C60003CE7000818C60008BCE700082DE9F84F4B
:102C70008046DDE90AA0002B02DC0020BDE8F88FC9
:102C8000464C474D404254F822402C440094454C59
:102C900054F822E0002210F0070404D01AF8012BA7
:102CA000C4F1200082400020A3EB040B0646A1F1F2
:102CB00003096FE0BBF1100F11DB9AF80010C4F1AB
:102CC0001803994011439AF80120C4F11005AA4055
:102CD0000A430AF1020A1034ABF1100B56E004EB80
:102CE0000B010029CADDBBF1000F05DD1AF8013B1D
:102CF000C4F11805AB401A43BBF1080F05DD1AF803
:102D0000013BC4F11004A3401A434C1E4FF0004392
:102D100023411A400A264FF0000B0B3436E000BF67
:102D2000CEF12001009B22FA01F15F5C3909641A9F
:102D30008A40C7F3C00121B102F000431943520099
:102D4000641EC7F3800323B102F000452B435200F9
:102D5000641EC7F340052DB102F0004C52004CEA4E
:102D60000505641E17F0010705D002F0004C520063
:102D70004CEA0707641EB44280DB48F8041B001DC0
:102D800048F8043B48F8045B48F8047B484501DAFE
:102D90000A2CC5DA48458DDB70E700000CE9000815
:102DA000BCE8000814E900082DE9F04F0E4605467E
:102DB0005C4903F0030001EB801910398DB051F824
:102DC000200005901F2092464FF00008B0EBA30FA3
:102DD00004DD9C10E01C1F281CDA01E01F242046A3
:102DE000002800DC002000210891D9F804100141DE
:102DF0000991D9F8081001410A91D9F80C10014144
:102E00000B9180CD27F00040042805DA08A951F87D
:102E1000200077E01F20E6E7102808DA59F82000A4
:102E2000002C02DA614288406CE020416AE04028D0
:102E300009DA3D4901EB8000059950F8400CFDF797
:102E4000BFF9E11E50E04FEA404B00200290BBF179
:102E5000006F03DA04204FEA0B1B0290BBF1005F06
:102E600004DA02984FEA8B0B801C0290BBF1804F72
:102E700004DA02984FEA4B0B401C02902B498B4519
:102E800002DA2948C03001E02748D43006900068B3
:102E90005946FDF795F90146069840680844594699
:102EA000FDF78EF901460698806808445946FDF7FB
:102EB00087F901460698C06808445946FDF780F92D
:102EC000014606981A4A00690844029952F82110EE
:102ED000FDF776F9C0000599FDF772F9144A0299D9
:102EE000203A52F82110611A00290ADA4A426FF09A
:102EF000004323FA02F1814201DA184602E09040D1
:102F000000E0084148EA00018846002F00DA40420C
:102F100001C6BAF1010A7FF474AF0DB00846BDE8EE
:102F2000F08F0000F0C30008F0C400089A79825ABC
:102F3000F8C50008002070470548017841F00101FC
:102F400001700448017841F00101017070470000F0
:102F50006D0100208C01002010B5642901D9642185
:102F600005E0C1EB01216423B1FBF3F1C9B2FFF726
:102F7000A5F908B1012010BDFEF7D0FF002010BD5B
:102F80001C4910B508610C6900224FF40013012C94
:102F900017D0022814D11848C1E905301748C1E9F3
:102FA00007020B2048621648886215481038C8622C
:102FB000144808631248183848631248C01C8863D4
:102FC00010BD0D48A830C1E905300F48C1E907021E
:102FD0002F2048624FF0205088624FF01050C86296
:102FE0004FF0015008634FF0085048634FF0045011
:102FF000E5E70000D8000020106002400C7400409B
:1030000020000010010080100C3C004010B5044668
:103010000120FFF7E7F9022C4FF09F014FF002006B
:103020000ED0FFF7CBFA044640F6FF70401EFDD1EC
:1030300000221021104800F04FFA2CB1012010BDE1
:10304000FFF7BCFA0446F8E70C4C0021A069FFF733
:103050009DFBD4E90A100143206B0143606B0143DF
:10306000A069FFF77DFB0021054800F002FC6068C5
:10307000A060002010BD0000000C0240D80000201D
:10308000003C00400A48012141608168A1F590514F
:103090008160816809B9002181600648017841F0AA
:1030A000020101700448017841F00201017070478B
:1030B000740000206D0100208C01002010B501205B
:1030C00000F034F848B107498868401C886002283D
:1030D00003D10020886004490860BDE81040012049
:1030E00000F01EB8040000207C00002010B5022073
:1030F00000F01CF800280FD0084843780122002176
:10310000012B06D001704270BDE81040022000F093
:1031100007B802704170F7E710BD000004000020FE
:103120000149086070470000143C0140064A01460E
:1031300000201268044B0A4014331B680B4202D073
:10314000002A00D001207047003C014030B51A49E8
:103150008379026853B30B6893430B600A1D1368AD
:103160000468A343136002790A4413680468234384
:103170001360114A083213680468A3431360131DD7
:103180001C680568AC431C604479102C05D02144B0
:103190000A68006802430A6030BD11680468214370
:1031A0001160196800680143196030BD0079084456
:1031B00001689143016030BD003C01402DE9F843B6
:1031C000444C0546D1B303202070E06840F62871D6
:1031D000DFF80481884238D2E068E26800F003003A
:1031E000C0F1040708EB070630466169FEF7FAF9FB
:1031F000E068C0F5A050C21BE068364B31181833A8
:10320000284605F0BBFE2071A569E5B1E0692844B8
:10321000E061E068C0F5A050C01BA84209D9E06891
:10322000E268C0F5A050411B08EB02002844FEF7FD
:1032300000FAE0682844E060666106E0FFE70020ED
:10324000FEF712FDC0E701202061206901280AD0A5
:10325000E168606900F044FF00254FF0FF36002868
:1032600004DAE56030E0FEF709FD30E06169014411
:103270006161E168081AE0602078C1070BD0154A47
:1032800000950C32154B02F10801A06800F09EFD7C
:103290000346012011E0800719D50F4800951C381E
:1032A0000E4900690B4A01EB40030C3202F10801A0
:1032B000A06800F08BFD03460220FEF7D5FC2070CD
:1032C0002BB1E560C4F814803046BDE8F8830020D7
:1032D000FBE700006C010020F0510020D42D0020FD
:1032E0002DE9F04704460D461E003BD0D107C6F13C
:1032F0001F074FF001004FF0000800FA07F0A0F19F
:103300000109C24666D02068C11740FA07F28A4216
:1033100001D089EA0100B0402060FCF754FF40EA88
:10332000080854F8800F4042C11740FA07F28A4259
:1033300001D089EA0100B0402060FCF744FF40EA78
:10334000080828688034C11740FA07F28A4201D081
:1033500089EA0100B04001C50AF1020ABAF1120F70
:10336000D1DB64E0D00732D08020D4F880930159BB
:10337000D4F88085D4F88077D4F88066D4F8805467
:10338000D4F88032D4F8802104F508644842D4F897
:1033900000C0A4F5006420605042C4F80001584207
:1033A000C4F80002C9F10000C4F800036842C4F880
:1033B0000004C8F10000C4F800057042C4F800061B
:1033C0007842C4F80007CCF10000C4F800080020DF
:1033D000BDE8F0872068C11740FA07F28A4201D0A1
:1033E00089EA0100B0402060FCF7EDFE40EA0808E1
:1033F00054F8800FC11740FA07F28A4201D089EAD7
:103400000100B0402060FCF7DEFE40EA08082868B2
:103410008034C11740FA07F28A4201D089EA0100DC
:10342000B04001C50AF1020ABAF1120FD2DB4046E0
:10343000CEE70000F0B5002201234FF0030C00BFDF
:103440000D6803FA02F42540A5422DD10668540008
:103450000CFA04F5AE4306600E790768A6403E43B9
:1034600006600E79012E01D0022E12D18668AE437D
:1034700086604D798668A54035438560456803FAC6
:1034800002F6B543456045688E799640B6B235433D
:103490004560C56856000CFA06F7BD43C560CD7996
:1034A000A540C4682543C560521C102AC8D3F0BD8E
:1034B0004B07DB0E9A40C90810B500EB8100016A8A
:1034C0000F249C40A1430162016A1143016210BDB7
:1034D00041837047018370470AB10183704741837C
:1034E00070474069806880B27047D0F8CC000068AF
:1034F000C0F341407047084490F89B02704700EBCE
:103500008100D0F85002704710B5044600221046E2
:10351000C4F8102204EB8203C3F81402C3F850026B
:10352000A31883F88C02521CD2B20F2AF2D30820BF
:10353000A4F8B202204603F031FB204603F032F932
:10354000204603F049F80121204603F087FB20467E
:1035500003F0B0F8204603F04BF9002010BDD0F87E
:103560001002704710B503F003FB002010BD0022CD
:10357000431883F89B2200EB4113C3F8C02203F0E9
:1035800044BAFEE72DE9F04F9BB000250746894677
:10359000934698462C46249E1BE000BFD8E9053090
:1035A00018B17069A04200DD0023D6E90301A142F1
:1035B00000DD0020B1690090CDE901410BEB8402F0
:1035C0004946384600F09EFA0543483709F1240978
:1035D000641C3068A042E1DC13E000BFD6E9033090
:1035E000A04200DD0023B0690BEB8402CDE900406E
:1035F0004946384600F0A8F90543483709F124093F
:10360000641C7068A042E9DC199441E0D6E903200B
:10361000A04200DD002206A9484604F00DFEE007A6
:1036200004904FF0000A04F0010057461A9006A8D3
:103630000BEB072150F83700019180004AEA000A9D
:1036400041F82400FCF7BFFD40EA050806A800EB9E
:10365000C70004994068800080EAE1711A98084424
:1036600001994AEA000A01EB8401C1F88000FCF7E5
:10367000AAFD40EA0805002049F827007F1C092F11
:10368000D5DB09F12409BAF1000F00D01994641CAC
:10369000B068A042BADC0021202C0ADA5FF00000FA
:1036A0000BEBC012401C42F824101228F8DB641CFB
:1036B000F2E70DB1002003E0202003E0401C6D0084
:1036C000002DFBDA401EF06119981BB0BDE8F08FA9
:1036D0000029018802D041F4806101E021F4806179
:1036E00001807047838A0022008B43EA004323F065
:1036F0007F40814300D1012210467047C943818237
:1037000070470029018802D041F0010101E021F059
:1037100001010180704700000D4910B5884202D1B7
:1037200001214C050AE00B49884202D101218C0598
:1037300004E0094988420AD10121CC05204600F065
:1037400093FE2046BDE81040002100F08DBE10BD64
:103750000054004000580040005C004000290188EF
:1037600002D041F4807101E021F480710180704742
:103770000029018802D041F4007101E021F40071B8
:103780000180704700220B0F21F07F4101D01430DF
:1037900001E0090C18300068084200D001221046F0
:1037A000704700007FB5044680880D4620F03F0634
:1037B000684600F07DFE26490298B0FBF1F189B21F
:1037C0000E43A680228822F001022280214B2A6823
:1037D0009A421BD85200B0FBF2F080B2042800D20B
:1037E0000420491C2184A083208840F0010020800F
:1037F00021884FF6F5300140A8886A8910430843B4
:103800002080A8892989084320817FBDEB88A3F502
:103810003F46FF3E05D102EB4202B0FBF2F080B220
:1038200008E002EBC20303EB0212B0FBF2F080B23D
:1038300040F48040020501D140F001004FF496723F
:1038400051434FF47A72B1FBF2F140F40040C8E703
:1038500040420F00A0860100008AC0B2704712B13A
:1038600041F0010101E001F0FE0101827047018297
:1038700070470029818B02D041F4806101E021F47E
:103880008061818370470000F0B502220023858BA0
:1038900001244FF24006354085830284858B8E6873
:1038A000022E3BD08A8802B10224254A13681B02EB
:1038B00003D5136823F400031360214B7C331A688B
:1038C0001B68C2F388121E4EC3F30273361F36689C
:1038D0001C4F06F03F06B7FBF6F65643B6FBF3F275
:1038E000CB88B3F5007F29D06301B2FBF3F200BFB0
:1038F00002EB82028B685200B2FBF3F2521D92B2CD
:103900000A23B2FBF3F202F00103D21AC2F34F0210
:103910001B02941EFE2C01D302220023CC881A43E2
:10392000144304840A884B881A438B8889890B4383
:103930001A432A4342F400618183F0BD120AD7E79B
:103940000838024000127A002DE9FF4FAFB005465B
:103950003D980C461E464FF0000A072816DAC0F1C3
:10396000070A002055F8201041FA0AF145F8201006
:1039700005EB80014A6842FA0AF24A60216841FA7E
:103980000AF102C4801C1228ECDB243C694628465C
:1039900005F0ECFE06A9281D05F0E8FE0CA905F1CE
:1039A000080005F0E3FE324614A9204604F044FC6A
:1039B000DFF84CB100273D4614A850F825004FEA27
:1039C00080084046FCF7FFFB40EA0709319800EB0E
:1039D000C51614A8C6F8008000EB8508D8F80C00BE
:1039E00080000746FCF7EFFB40EA09002890684694
:1039F00000EB8500C6F880712D90C1685BF825004A
:103A0000FCF7DEFB0146D8F8180001EB8000814688
:103A1000FCF7D9FB07462898C6F80093C5F10501C5
:103A20000BEB850907435DF82110D9F80C00FCF772
:103A3000C7FB0146D8F8240001EB80001390FCF787
:103A4000C2FB40EA070128911398C5F10201C6F8AC
:103A500080045DF82110D9F81800FCF7B1FB074687
:103A60002D98416A5BF82500FCF7AAFB3918D8F8B5
:103A7000300001EB80073846FCF7A5FB2899084386
:103A80002890C6F800765DF82510D9F82400FCF7D8
:103A900097FBC5F10B0107465DF82110D9F80C0022
:103AA000FCF78EFB3918D8F83C0001EB800080460B
:103AB000FCF789FB074628986D1C0743C6F88087EA
:103AC000032DFFF679AF06214FEA0D0050F82120B3
:103AD000491C921004C40929F8DB0C2150F821205C
:103AE000491C921004C41229F8DBA4F124015346A6
:103AF0003C9A3198FFF7F4FB33B03843BDE8F08FC0
:103B000040BC00082DE9F04FAFB00C469B460021A9
:103B10003A9B914644300A4604AD072B20DAC3F1A4
:103B2000070A0823066846FA0AF6A6EB0202A0F185
:103B30000406A2EB01013668A0F1080046FA0AF675
:103B4000A6EB020205EB8306716245F8232054F8C8
:103B5000236046FA0AF644F823605B1EE2D515E0BE
:103B60004FF0000A08230668A6EB0202A0F1040643
:103B7000A2EB01013668A0F10800A6EB020205EBFA
:103B80008306716245F823205B1EECD50D9840102A
:103B90000D90049840100490284605F03BFD0DA8B8
:103BA00005F038FD3898514E0CAD4FF0000850EA42
:103BB0000B0057D016A92046389A04F03DFB4C491B
:103BC0000BEBCB0001EB001000270090696A56F860
:103BD000040955F804B9FCF7F3FA4FEAAB010A1AE5
:103BE000084401C40098934650F827101046FCF78B
:103BF000E7FA16A951F82710084480002D90C7F164
:103C000011002890009951F820105846FCF7D8FA76
:103C10000146289816AA52F8200008444FEA800B63
:103C200009EBC7112D980860289809EBC010C0F85F
:103C300000B02D98FCF7C7FA40EA08085846FCF790
:103C4000C2FA7F1C40EA0808092FBFDBA4F1240157
:103C500053464846399AFFF743FB2FB040EA080025
:103C6000BDE8F08FDFF884B05FF000070BF1040BC4
:103C7000696A56F8040955F804292892FCF7A0FA55
:103C8000289A236891105A422E92421A08440392AD
:103C900001C49818404202905BF8041BFCF790FAAC
:103CA000039A02EB80002D905BF8041B0298FCF74E
:103CB00087FA2E9A09EBC71102EB800002902D982B
:103CC0000860C7F1110209EBC211029808602D9833
:103CD000FCF779FA40EA08080298FCF774FA7F1CAE
:103CE00040EA0808092FC3DBB0E700003CE9000800
:103CF00020BB00082DE9F04105461446012A02D9EF
:103D000041F0C00601E041F080060C4F0821384622
:103D1000FFF7DEFB304600F013F806E0002000F06D
:103D20000FF8641E05F8010BA4B2002CF6D138463A
:103D3000BDE8F0410821FFF7CDBB000000100240B4
:103D40002DE9F041154C4FF4805607462660144D7E
:103D500003E02068411E216058B10221284600F08E
:103D6000CFFD0028F5D03946284600F0F2FD266048
:103D700007E000F017F80DE02168481E20600029D8
:103D8000F7D00121284600F0BBFD0028F4D02846DA
:103D900000F0DDFDC0B2BDE8F0810000D4000020DD
:103DA00000300140FEE730B500280ED00022144656
:103DB00002E021F81240521C00F2C47328CB6B437E
:103DC000D0F8BC576B439342F3DC30BD2DE9FF4F75
:103DD00083B004000D4617460BD0296807F096F90A
:103DE000B0F1000808DA00BF6FF0050007B0BDE8C9
:103DF000F08F6FF00400F9E7286800EB0801204617
:103E0000296007F0F1FA002806DA20460699FFF744
:103E1000CAFF6FF00600E9E7296808EB000B0144D0
:103E200029603A68A2EB0B013960D4F8B81719B1D0
:103E3000D4F8B007F0BB5AE0D4F8B017D1BB0121D9
:103E4000C4F8B0172E68D7F800A0A6EB0801B14659
:103E5000A1EB00085146304600F042F90644002824
:103E600002DA4FF0FF301AE0327898F800108A42F8
:103E700021D1727898F801108A421CD1B17801F0F2
:103E8000FC0298F8021001F0FC018A4213D198F864
:103E900002004008C00700D0761EA6EB0900C4F857
:103EA000B40700280DDA20460699FFF77CFF6FF073
:103EB00002009BE713E0AAEB0000F61CA0F1030A46
:103EC000C8E7D4F8C427D4F8C81758444A43D4F8EC
:103ED000C0174143C80090FBF2F0C4F8B807204671
:103EE00005F061FFD4F8B4170844C4F8CC07109863
:103EF000C0B13868C4F8CC07D4F8D82704F2CC7124
:103F00000AB9002804DC20460699FFF74CFF6BE74E
:103F1000C4F8DC072E683044286038680968401A05
:103F2000386036E0D4F8CC17386804F2CC76814299
:103F300006DD20460699FFF736FF4FF0FF3055E7C4
:103F4000D4F8D827D4F8DC0704F2DC7804F5FB6950
:103F5000904226DB2044811A04F11C001C31824669
:103F6000FDF740FBD9F80030D4F8CC27296803EBE3
:103F70000A00FDF737FBD9F8000031684218C8F88D
:103F80000020286808442860386831685646401A7E
:103F9000386000200290D4F8DC0700254FEAC00901
:103FA00097E004F11C0210442B680A461946FDF7FD
:103FB00019FBD8F8000031684218C8F800202868BA
:103FC0000844286038683168401A386020460699ED
:103FD000FFF7E9FE6FF0010008E700273DE0CDE9BB
:103FE00000574B4602AA31462046DDF8088007F00C
:103FF0007FF904EBC503C8EBC001029A03EB87030A
:104000001144D3F8E03706EB00085B1AA9EB01096D
:10401000002801DB994506DA20460699FFF7C3FE22
:104020006FF00700E2E6CDE90057924602AA41464A
:10403000204605F0C3FE002806DA20460699FFF761
:10404000B2FE6FF00800D1E608EB00060299CAEB59
:10405000C0000144A9EB01097F1CD4F8BC07B84299
:10406000BDDC2946204606F061F8002806DA204625
:104070000699FFF798FE6FF00900B7E600270EE0FB
:104080003A462946204606F0B7FC002806DA2046C4
:104090000699FFF788FE6FF00A00A7E67F1CD4F8A8
:1040A000BC07B842ECDCD4F8BC17D4F8C8074843C6
:1040B0000699684301EB4001204606F0A3FF002863
:1040C00006DA20460699FFF76EFE6FF00B008DE6CC
:1040D0006D1CD4F8C407A8423FF77FAF002085E6E7
:1040E000024610B500200723491E0AE0145CE44391
:1040F00014F0FF0F04D114186478B3EB541F04D0EC
:10410000401C8842F2DB4FF0FF3010BD002801D088
:1041100006F04CBC7047000070B528B1D0F8D0371D
:1041200000F5FA62032B07D0002008604860886021
:10413000C8600861486121E0D0F8B8370B60D0F85A
:10414000BC474C60D0F8C0478C601024CC6090F81D
:10415000D45700F2BC7300F2D474094E05EB450548
:10416000D0F8D00706EB450505EB40001B6830F999
:10417000020C58430861106848612078886170BD5E
:104180005AB7000805F0BCBDFEE7704770B50F21B7
:10419000C478027801234FF0E026E4B1124C246881
:1041A00004F4E064C4F5E064C4F30724C4F1040536
:1041B000E1404478AC4085780D4025430B4C290103
:1041C0001155007800F01F018B40400906EB80007C
:1041D000C0F8003170BD02F01F008340500906EBAB
:1041E0008000C0F8803170BD0CED00E000E400E01C
:1041F0000249084302490860704700000000FA05C0
:104200000CED00E0024A1140014302480160704792
:1042100080FFFF1F08ED00E0014801F0B2BE000082
:1042200094040020704700002DE9F047724D0026ED
:1042300082468946EE602E6170486861FFF7A2FFF2
:10424000A86001224946504604F0CCFD287168213F
:104250006B48FDF7EEF96A49504600F0A3F968494A
:10426000504600F06FF9664CEE6166A148466666FE
:10427000FDF7EBF928B964A14846FDF7E6F90028F7
:1042800071D060A14846FDF7E0F9DFF880816FF05A
:104290002F0650B35BA14846FDF7D7F9401D5CA13E
:1042A000FDF7D3F910F8017C56A14846FDF7CDF98A
:1042B000401D57A1FDF7C9F910F8020C51A1303883
:1042C00000EB800006EB40003844C0EB001080009B
:1042D00020654846FDF7B9F9401D4DA1FDF7B5F938
:1042E0008078216D461847A12FE047A14846FDF789
:1042F000ACF9002837D044A14846FDF7A6F9401D87
:1043000043A1FDF7A2F910F8017C3FA14846FDF753
:104310009CF9401D3EA1FDF798F910F8020C3AA156
:10432000303800EB800006EB40003844C0EB001052
:10433000800020654846FDF788F9401D34A1FDF74F
:1043400084F98078216D46182FA14846FDF77DF944
:10435000401D2FA1FDF779F9407800EB800108EBB3
:104360004100304420654FF0FF3060655046616E7B
:1043700004F07BFC287101215046FEF71FFF002846
:10438000F9D11E49A8681C39FFF7C6FEA868D0F805
:10439000BC17012901D0012200E00022D0F8C0079B
:1043A00081B216481C38C068C0B2FDF723FC01205A
:1043B0001849A870206E0968EA7884394843E16D8D
:1043C000521CC908144C51434843206005E00021A9
:1043D0005046FEF7F3FE206838B12869012804D062
:1043E0000E48FFF7BCF80028F1D1A868FFF78EFE51
:1043F000BDE8F04703F02CBD6C010020F051002017
:1044000040C700204D5033006D703300F0FDFFFFBA
:104410003A000000206A00207C0000209404002064
:10442000044A0029116801D0014300E08143116072
:104430007047000030380240044A0029116801D05A
:10444000014300E0814311607047000034380240AE
:10445000044A0029116801D0014300E08143116042
:104460007047000040380240044A0029116801D01A
:10447000014300E081431160704700002038024092
:10448000044A0029116801D0014300E08143116012
:104490007047000044380240044A0029116801D0E6
:1044A000014300E08143116070470000243802405E
:1044B00070B5214B1968214A11F00C0104D0561037
:1044C000042903D0082903D002601BE0066019E02C
:1044D0001949091F0C68C4F380550C6804F03F04A7
:1044E00015B1B6FBF4F201E0B2FBF4F20C68096816
:1044F000C4F388146243C1F30141491C4900B2FB73
:10450000F1F1016019680E4A01F0F0010909545CEB
:104510000168E14041601C6804F4E054A40A145DA1
:1045200021FA04F484601B6803F460435B0BD25CE3
:10453000D140C16070BD0000083802400024F40082
:104540001801002070B50C46C1680546803904F09A
:104550008CFB104E104B802230701049284604F01E
:104560000DFD307003220D490DA0FDF798F80028CD
:104570000ED10A491E22C91C2046FDF77CF804F121
:104580002800BDE8704005491E222131FDF773B8AF
:1045900070BD00007001002084010020F051002057
:1045A000544147002DE9F34F83B089460021039819
:1045B00004F05BFB6F4C704B4FF4A05220706F49BE
:1045C000039804F0DBFC207003226C496CA0FDF71B
:1045D00066F800287ED1DFF8A4B19BF809209BF88B
:1045E000061042EA41519BF8072093039BF80820EC
:1045F00043EAC21241EA0208C9F864809BF803A0AA
:10460000BAF1030F01D30A2600E006260A2409F1B5
:10461000280027460090A6E0BAF1030F0BEB040038
:1046200005D34168C07909BA21F0FF0505E0C178DA
:1046300002798903407941EAC21505436019304483
:1046400081194FF4A05081422ED3A9190191B1F5DF
:10465000A05F15D903988068C11901980144039897
:1046600004F003FB434C444B4FF4A05220704349E9
:10467000039804F083FC207001980024074472E042
:10468000C4F5A050024601900BEB04013B48FCF737
:10469000A9FF0198384B0BEB00012246039804F068
:1046A0006DFC3449002408700BEB0401032235A093
:1046B0000191FCF7F4FFA0B1042233A00199FCF7AB
:1046C000EEFF70B1032232A00199FCF7E8FF38B386
:1046D000042200E04AE02FA00199FCF7E0FFF8B1C6
:1046E0003EE0681E272801D26A1E00E027220198BA
:1046F0008119491C4846FCF7BEFF99F80000FE28C6
:1047000002D0FF2805D02BE099F80100FF2804D043
:1047100026E099F80100FE2822D1282148461DE014
:10472000681E272801D26A1E00E0272201988119FD
:10473000491C0098FCF79FFF99F82800FE2802D03A
:10474000FF2805D00CE099F82900FF2804D007E0E5
:1047500099F82900FE2803D128210098FCF769FF69
:10476000A819074404444745FFF456AF05B0BDE817
:10477000F08F00007001002084010020F051002023
:10478000494433005454320054495432000000006C
:1047900054503100545045310000000030B5C1681C
:1047A0000A4604291BDB01684B1C036009780C06D0
:1047B000591CC0E900141B7844EA03444B1CC0E9AF
:1047C0000034097844EA01215C1CC0E900411B78EF
:1047D0000B432021121F4360C0E9021230BD0024A8
:1047E000446007E003685D1C05601B7845682B4347
:1047F0001B024360491EF5D2C2F103034168DB008E
:1048000099404160D100C0E9021430BD10B50F4C91
:104810006021204600F07BF8002816D0204600F0EA
:1048200096F80C4C41BA0A4A206A22F81010401C33
:104830002062402809D3002020623222064B04481F
:10484000A16AFCF740F90120606110BD003800400A
:104850007C1A0020940000200818002010B50D4C90
:104860000221204600F04CF8002811D00A480069C7
:10487000022805D1FEF75EFB01460420FDF766FF26
:10488000FEF758FB01462046BDE8104000F061B835
:1048900010BD0000003C0040D8000020002A8288A3
:1048A00001D00A4300E08A4382807047114910B565
:1048B00088420AD1841401212046FFF7EDFD2046ED
:1048C000BDE810400021FFF7E7BD0B49884202D147
:1048D0000121041404E0094988420AD10121C413CA
:1048E0002046FFF7C1FD2046BDE810400021FFF73C
:1048F000BBBD10BD0030014000380040003C00400E
:104900000246002012890A4200D00120704710B5EB
:1049100001F00F04012202FA04F4002309098A407D
:104920008188A4B292B200891140204201D001B125
:104930000123184610BD090901238B40002A8288F3
:1049400099B201D00A4300E08A438280704780898F
:1049500070478181704700001CB504460E48012154
:1049600050F82400FFF75CFD0B480021083830F8B0
:104970001400009001208DF804008DF806108DF8C9
:10498000070002208DF805000448694650F824000D
:10499000FEF750FD1CBD000018B60008C400002042
:1049A0000349044A31F8101052F82000418370473F
:1049B00010B60008C40000200349044A31F8101062
:1049C00052F820000183704710B60008C400002090
:1049D000044951F820104A69034B33F81000424053
:1049E0004A617047C400002010B6000870B5044644
:1049F00022480E4686B050F824000121FFF710FD32
:104A000001218803FFF73CFD1C4800258DF810505C
:104A1000001F8DF8135030F814000390184803A9B4
:104A200050F82400FEF706FD012E25D11348C01FC3
:104A3000015D401E005D00F027F81048801E30F830
:104A4000140000908DF8045008208DF80500012511
:104A50008DF806506846FEF779FB0848801F005D18
:104A60008DF808000F208DF809008DF80A008DF8E8
:104A70000B5002A8FFF78AFB06B070BD0CB6000809
:104A8000C00000207047000010B58A0721F0030421
:104A90000649130F21440F220C689A4094430C607E
:104AA0000A68984002430A6010BD000008380140BF
:104AB00029480021026842F4803202604FF4A0636A
:104AC000026801F1010112F4003F01D19942F7D1CE
:104AD00001688A0321492FD5204A3832136843F0F0
:104AE000805313601E4A136843F4804313600A68BE
:104AF0000A600A6842F400420A600A6842F4A0525E
:104B00000A600B1F174A1A60026842F08072026046
:104B100002689201FCD5144B40F205621A600A68E3
:104B200022F003020A600A6842F002020A600A6880
:104B3000C2F38102022AFAD10A6822F400020A6052
:104B4000064A0A497C321160016841F080610160C7
:104B500001680901FCD5704700380240083802405E
:104B60000070004008544007003C02408040003084
:104B700010B500F0A3F904480078012803D10348D8
:104B8000C188491CC18010BD2800002004000020FD
:104B90000F4810B5016841F0010101600C4A002185
:104BA0000832116002680B4B1A400260031D0A4A6A
:104BB0001A60026822F48022026005480C3001600D
:104BC000FFF776FF05494FF00060086010BD000058
:104BD00000380240FFFFF6FE1030002408ED00E030
:104BE00001F0D8BC38B500208DF800002E480078C0
:104BF00048B1012239216846FFF77CF806222721B7
:104C00002A48FFF777F82A4D0221284600F06FF86E
:104C1000002848D00221284600F05AF8254CA078F8
:104C200003280BD0A078042810D0A078062815D02F
:104C3000A078E8B1A07807281ED029E00120FFF76E
:104C4000C7FE0320FFF7ACFE00201FE00020FFF7A7
:104C5000BFFE0320FFF7A4FE012017E00120FFF7AD
:104C60009FFE0020FFF79CFE0320FFF7B1FE0FE040
:104C70000320FFF7A1FE0BE00120FFF791FE0020CB
:104C8000FFF78EFE0220FFF78BFE0320FFF788FE62
:104C9000284600F02AF8084980B2A080098801441B
:104CA000284600F0CBF838BD760000208C000020AC
:104CB00000080040040000200200002000290188B4
:104CC00002D041F0800101E021F0800101807047B5
:104CD000C943018270470029018802D041F00101D7
:104CE00001E021F0010101807047406B7047038AA9
:104CF000002280890B4200EA010001D000B10122AC
:104D000010467047002A828901D00A4300E08A4396
:104D10008281704770B58AB001210420FFF798FBAB
:104D20004FF4A060FFF764FA1E208DF820000024E5
:104D30008DF821408DF8224001258DF8235008A8D8
:104D4000FFF724FA0120FFF707FE0020FFF704FE1B
:104D50000320FFF701FE1A481A491B4E0068ADF800
:104D60001C40B0FBF1F0401E4FF6FF71ADF814008F
:104D70000691ADF8164005A9304600F061F8012112
:104D80003046FFF79BFF1148ADF80040ADF80250E8
:104D900040880290ADF80C406946304600F018F8A3
:104DA0000021304600F044F8012202213046FFF78E
:104DB000A9FF01213046FFF78EFF0AB070BD000049
:104DC000100000207064080000080040000000206F
:104DD00030B5028C22F001020284028C8388048B9D
:104DE00022F0020224F073050C882C438D891543B0
:104DF0004A882A430C4DA84202D00C4DA8420DD13E
:104E000022F00805CA8923F440732A4322F00405DE
:104E10008A882A430D8A1D434B8A2B43838004834F
:104E200089684163028430BD0000014000040140F4
:104E3000028B22F008020A430283704741637047E5
:104E400030B50288164B174C98420DD0A0420BD0BB
:104E5000B0F1804F08D0144DA84205D0134DA842A0
:104E600002D0134DA84203D122F070054A882A438C
:104E7000104DA84206D0104DA84203D022F4407530
:104E80000A892A4302804A68C2620A8802859842D7
:104E900001D0A04201D1897A01860121818230BDF1
:104EA00000000140000401400004004000080040F0
:104EB000000C00400010004000140040034841690D
:104EC000002902D04169491E4161704774000020E9
:104ED00010B500224FF6FF7300EB4204B4F88C4487
:104EE000240409D49A4205D000EB420041F4004169
:104EF000A0F88C14D0B210BD521CD2B2082AEBD349
:104F00001A46F7E770B50D46194600EB4114012328
:104F100084F8AE32C4E9AE5294F8C42202B102223F
:104F200084F8B422FEF723FB002070BD70B50D4657
:104F3000194600EB4114002384F8AE32C4E9AE52A6
:104F400094F8C52232B1022284F8B422FEF70FFB96
:104F5000002070BD84F8B432F8E730B402240C7538
:104F600001244C750024CC820A8315064C8300EB87
:104F7000431202D582F8C44201E082F8C542002300
:104F800030BC1A4600F01BB8D0F8AC2401211172D5
:104F9000D0F8AC0400218172704770B50D461946F7
:104FA00000EB411404F52B740123A3704FF00203AE
:104FB0002372C4E90352FEF7DAFA002070BD70B51F
:104FC0000C4615461E464979FEF795FA0146012022
:104FD000E3780246012B0AD0022B07D1012910D019
:104FE000032911D0042901D1E270032070BD21787A
:104FF000617009212170A560A68122770221E170EC
:1050000070BDE270002070BDE270022070BD000033
:1050100070B50D46194600EB4114002384F8AE32FA
:10502000C4E9AE521AB194F8C5225AB102E0012285
:1050300084F8C522022284F8B42200BFFEF797FA52
:10504000002070BD84F8B432F8E710B50C46114664
:1050500000EB411303F52B7300229A704FF003020B
:105060001A724FF00802C3E90342FEF780FAC0B299
:1050700010BD0221002200EB4103491CC9B2A3F874
:105080008C240829F7D30020704770B50C46002106
:1050900021706170A17001220546E27022774020E4
:1050A000A07184F8201084F821202179284600F08E
:1050B00025F86179284600F021F8002070BDD0F86D
:1050C000AC2401215172D0F8AC040021C1727047A8
:1050D00070B50C25044605290AD0042908D00629F4
:1050E0000BD12570D0F880000068BDE87040004703
:1050F000D4F88000406C8047257070BD082908D224
:1051000000EB410101F28C40B1F88C14C1F30E01A7
:1051100001800020704730B442F08002DDE9025483
:105120000A7506224A750322CB82B2EB132F02D1F5
:1051300040F2094200E000220A834C8323462A46BB
:1051400030BCFFF73CBF0A8803781A440A80017814
:10515000084470472DE9FC41164600F58877CDE9F3
:1051600000760C464FF400730022FFF7D4FF0500D1
:1051700009D13B4604F1500204F13E0104F1340030
:10518000009600F07BFF2846BDE8FC817CB5044614
:10519000164600F58870CDE900060D464FF4807381
:1051A00000222046FFF7B7FF002830D104F58874AD
:1051B000082E217805F8221F61786970A178E278BD
:1051C00001EB022169802179297161796971A179E5
:1051D000A971E179A4F58874E97118D904F58C7482
:1051E0002178627801EB02212981A178E27801EB34
:1051F000022169812179627901EB0221A981A179DA
:10520000A973E179E973217A2974617A69747CBDA3
:105210007CB51E46069D00F5887442F4407300225A
:10522000CDE90045FFF777FF010014D1607803282E
:1052300011D12078821EAA4200DC1546A41CAAB215
:10524000002004E0235C801C06F8013B80B2904201
:10525000F8D30020307008467CBD00002DE9F05FD7
:10526000002680468E74087F0B250927DFF8B89149
:105270000C464FF0080B4FF0050A0C2817D2DFE858
:1052800000F0CF060E3942586A7A839DAEC162792A
:1052900004F114014046FFF7D8FE0220B9E061791D
:1052A0004046FEF728F9012802D003281ED0B7E0B7
:1052B000207D618B00F0800051B141F28832A9F865
:1052C0000020802802D084F81CA008E0032005E01C
:1052D0003222A9F80020802806D0072020774046F7
:1052E000FEF7FFF820829BE02777F8E7257784F820
:1052F00012A095E0A0892379C2B24046A168FFF7C9
:105300004CFE042085E021794046FEF7F4F80128A0
:105310000DD004286ED0032872D04046FEF7E1F885
:10532000218A411AB9F80000814269D878E02777CC
:10533000F3E7617908EB411090F8C51281F00101A3
:1053400080F8C512A0896379C2B24046A168FFF710
:105350005FFE06205DE061794046FEF7CCF801284B
:1053600004D0042846D0022802D040E0072050E0B4
:1053700084F81CA054E00022237911464046FFF730
:105380000CFE84F81CB04BE021794046FEF7B3F8E0
:10539000074601282ED0032F32D04046FEF7A1F851
:1053A000218A411AB9F80000814229D8042F37D147
:1053B000607820700420A074032631E06179002217
:1053C00008EB411090F8C51281F0010180F8C51278
:1053D000637911464046FFF71BFE0A2019E0617908
:1053E0004046FEF788F8012804D0022806D003289A
:1053F00006D015E06078207012E001E027770FE01A
:1054000025770DE0A07B401CC0B2A073022802D813
:105410000120207704E084F812B060782070022622
:105420003046BDE8F09F0000540100202DE9F04116
:105430000C468046012689780025FF2092B0374629
:105440000A2953D2DFE801F0052332535C6E8199BB
:10545000ACB6082221464046FFF798FE002845D109
:1054600094F82900A0714046FEF77CF8A770A07957
:105470000023CDE9005061791A46404600F068FDEE
:10548000A0790023CDE9005021791A462BE01222A1
:1054900021464046FFF77AFE002827D1D4F8800045
:1054A000C16904F122008847022081E001222146DF
:1054B000404600F022FF00287DD104F10404277744
:1054C000E06F006A8047032004F8020C0095019504
:1054D000227F21780023404600F03AFD0095019597
:1054E000227F61780023404600F032FD63E009220C
:1054F00021464046FFF72EFE00285CD1042057E0ED
:10550000E28E21464046FFF725FE70BBD4F88000AE
:1055100004F1500204F13E01436A04F1340098475B
:10552000052045E094F83020062552B1009002ABEA
:1055300021464046FFF76CFEB8B9D4F88000816A76
:1055400011E0D4F88000816A13E094F83120072537
:1055500062B1009002AB21464046FFF759FE20B9E8
:10556000D4F88000C16A02A804E024E0D4F88000E6
:10557000C16A13A08847A5701DE094F83220082561
:1055800052B1009002AB21464046FFF741FE90B970
:10559000D4F88000016BE6E7D4F88000016BE8E7FF
:1055A00094F839202146404600F0B3FE18B909208E
:1055B000A07000E0002612B03046BDE8F081000087
:1055C0004E2F41002DE9F0410546884614461E46FF
:1055D000069F00F083FF002000F034FF214628469C
:1055E000FFF753FD04F17C040B48C4E9006740F267
:1055F000AC424FF00001C5F8AC0401725059417241
:1056000041462846FDF780FF6068006880472846CD
:10561000BDE8F04100F042BF5801002070B50546DA
:105620000A4C012012B1012A08D102E02378E27865
:1056300001E06378A2782846FFF78FFC044AD1681E
:10564000491CD160042900D9042070BD881D0020A8
:105650002C0100200149002008707047781D0020AF
:1056600070B505460124FDF77AFFD8B110480178DE
:105670002846FDF744FF0D2813D10E480E4A016855
:1056800091420ED1A0F1200241685268914209D1A5
:10569000007B20B1012805D0022802D002E00024BE
:1056A00000E0022403481030C473204670BD00009F
:1056B000881D0020681D0020555342530A490A22C4
:1056C000012802D002280CD07047084B1878401CE3
:1056D000C0B218700A2804D2062008700120C870D1
:1056E00070470A7070470000781D00203C010020C0
:1056F0002DE9F05F0E4681460125FDF730FF0028B9
:1057000016D0524C0027DFF8488120784FF0080B64
:10571000AA460B280CD2DFE800F0060C245D667167
:105720007981864F9500484600F098F984F800A0EA
:1057300089E021223275FF227275F78237830023B8
:105740004846314677831A46FFF739FC05004FF08B
:10575000020002D0032D02D075E0207073E060706B
:1057600028E0A1223275FE227275F78237834846FF
:1057700031465746A6F81AA00123364AFFF71FFC08
:1057800005004FF0030102D0032D12D05BE0314839
:105790000838027A80F8482012B198F801200AB13E
:1057A000217050E088F80170D6F88000006C8047C6
:1057B00049E061700920D0E77379002231464846FC
:1057C000FFF7CBFB05003ED12248083880F848702F
:1057D0006078C2E7484600F027FB08B9042008E0DB
:1057E000FFF76CFF2FE0484600F07EFA0028F7D163
:1057F0000520207088F80070002524E0484600F05D
:10580000B7F90028ECD184F800B0F3E7484600F07F
:10581000BBFA0028E4D160782070EDE731464846B5
:1058200000F01AF80FE0D6F88000C06B804710F047
:10583000FF0002D0012803D005E084F800B002E0A8
:10584000062500E004252846BDE8F09F781D0020CD
:105850003C010020901D00202DE9F35F0098FDF72A
:105860007EFE002821D07A4C05277A4821797A4D8E
:1058700000264FF008094FF0070B4FF002084FF0D9
:10588000010A092911D2DFE801F010051233609EE8
:10589000B3C9D5006E4943781F2230390098FFF70D
:1058A00045FB84F805A084F80480BDE8FC9F41789E
:1058B0000098FDF720FE012806D002286BD00428AE
:1058C000F3D185F800A0B2E06148EE60303884F88A
:1058D0000580017B806801F08001002866D0686047
:1058E000A068A860802901D00420AFE00320ADE0CB
:1058F000804601780098FDF7FEFD012802D061790D
:1059000003291CD00320EE606071686840280DD91F
:1059100098F800304022A9680098FFF7F3FA686809
:1059200040386860A8684030A860BEE790B382B293
:1059300098F80030A9680098FFF7E4FA34E00428EA
:10594000B3D12E7084F804B00EE080464178009800
:10595000FDF7D1FD012809D0022829D00428A4D1BF
:1059600085F800A084F8049067719EE70420EE603B
:105970006071686840280FD998F801304022A96802
:105980000098FFF7D3FAA8684030A86068684038EC
:1059900068608AE70AE058E040B182B298F80130C6
:1059A000A9680098FFF7C2FA6E607EE727717CE76E
:1059B000A96898F80130009802B04022BDE8F05F75
:1059C0004039FFF7B3BA2249677110393F22A1600D
:1059D000A2810D220B469E54521E12F0FF02FAD1F4
:1059E0001E7003783F220098FFF78CFA06202DE006
:1059F00001780098FDF77FFD012805D0042894D197
:105A00002E7084F804B050E7EE606771A0782070C3
:105A1000DDE90001FFF724FEE07346E7DDE9000160
:105A20000022FFF7FBFD58B9287802280DD184F831
:105A300004903AE7DDE900010122FFF7EFFD20B114
:105A4000042892D184F80F802FE7607920712CE729
:105A5000781D0020881D00202C01002010B5FDF7C6
:105A60007EFD002148B10848064A0260074A4260AC
:105A70004173054A01203032D0700548C1600548A5
:105A8000017010BD55534243481D00205040302046
:105A90002C0100203C01002070B50C4C064600256E
:105AA000617831B100F01FFF61783046FFF726FBC7
:105AB00065702178002907D0304600F014FF217866
:105AC0003046FFF71BFB257070BD0000881D0020CD
:105AD0002DE9FC41064691F843000C46082803D105
